{
  "_format": "hh-sol-artifact-1",
  "contractName": "Investments",
  "sourceName": "contracts/Invetments.sol",
  "abi": [
    {
      "anonymous": false,
      "inputs": [
        {
          "indexed": false,
          "internalType": "uint256",
          "name": "fdId",
          "type": "uint256"
        },
        {
          "indexed": false,
          "internalType": "string",
          "name": "name",
          "type": "string"
        },
        {
          "indexed": false,
          "internalType": "string",
          "name": "_type",
          "type": "string"
        },
        {
          "indexed": false,
          "internalType": "uint256",
          "name": "startDate",
          "type": "uint256"
        },
        {
          "indexed": false,
          "internalType": "uint256",
          "name": "endDate",
          "type": "uint256"
        },
        {
          "indexed": false,
          "internalType": "uint256",
          "name": "amount",
          "type": "uint256"
        },
        {
          "indexed": false,
          "internalType": "address",
          "name": "currency",
          "type": "address"
        },
        {
          "indexed": false,
          "internalType": "uint256",
          "name": "cTokens",
          "type": "uint256"
        }
      ],
      "name": "FdCreated",
      "type": "event"
    },
    {
      "anonymous": false,
      "inputs": [
        {
          "indexed": true,
          "internalType": "address",
          "name": "previousOwner",
          "type": "address"
        },
        {
          "indexed": true,
          "internalType": "address",
          "name": "newOwner",
          "type": "address"
        }
      ],
      "name": "OwnershipTransferred",
      "type": "event"
    },
    {
      "anonymous": false,
      "inputs": [
        {
          "indexed": false,
          "internalType": "uint256",
          "name": "rdId",
          "type": "uint256"
        },
        {
          "indexed": false,
          "internalType": "string",
          "name": "name",
          "type": "string"
        },
        {
          "indexed": false,
          "internalType": "string",
          "name": "_type",
          "type": "string"
        },
        {
          "indexed": false,
          "internalType": "uint256",
          "name": "startDate",
          "type": "uint256"
        },
        {
          "indexed": false,
          "internalType": "uint256",
          "name": "endDate",
          "type": "uint256"
        },
        {
          "indexed": false,
          "internalType": "uint256",
          "name": "amount",
          "type": "uint256"
        },
        {
          "indexed": false,
          "internalType": "uint256",
          "name": "sip",
          "type": "uint256"
        },
        {
          "indexed": false,
          "internalType": "uint256",
          "name": "frequency",
          "type": "uint256"
        },
        {
          "indexed": false,
          "internalType": "address",
          "name": "currency",
          "type": "address"
        },
        {
          "indexed": false,
          "internalType": "uint256",
          "name": "cTokens",
          "type": "uint256"
        }
      ],
      "name": "RdCreated",
      "type": "event"
    },
    {
      "inputs": [
        {
          "internalType": "string",
          "name": "_name",
          "type": "string"
        },
        {
          "internalType": "string",
          "name": "_type",
          "type": "string"
        },
        {
          "internalType": "uint256",
          "name": "startDate",
          "type": "uint256"
        },
        {
          "internalType": "uint256",
          "name": "endDate",
          "type": "uint256"
        }
      ],
      "name": "makeFd",
      "outputs": [],
      "stateMutability": "payable",
      "type": "function"
    },
    {
      "inputs": [
        {
          "internalType": "string",
          "name": "_name",
          "type": "string"
        },
        {
          "internalType": "string",
          "name": "_type",
          "type": "string"
        },
        {
          "internalType": "uint256",
          "name": "startDate",
          "type": "uint256"
        },
        {
          "internalType": "uint256",
          "name": "endDate",
          "type": "uint256"
        },
        {
          "internalType": "uint256",
          "name": "sip",
          "type": "uint256"
        },
        {
          "internalType": "uint256",
          "name": "frequency",
          "type": "uint256"
        }
      ],
      "name": "makeRd",
      "outputs": [],
      "stateMutability": "payable",
      "type": "function"
    },
    {
      "inputs": [],
      "name": "owner",
      "outputs": [
        {
          "internalType": "address",
          "name": "",
          "type": "address"
        }
      ],
      "stateMutability": "view",
      "type": "function"
    },
    {
      "inputs": [],
      "name": "renounceOwnership",
      "outputs": [],
      "stateMutability": "nonpayable",
      "type": "function"
    },
    {
      "inputs": [
        {
          "internalType": "address",
          "name": "newOwner",
          "type": "address"
        }
      ],
      "name": "transferOwnership",
      "outputs": [],
      "stateMutability": "nonpayable",
      "type": "function"
    }
  ],
  "bytecode": "0x608060405273859e9d8a4edadfedb5a2ff311243af80f85a91b8600460006101000a81548173ffffffffffffffffffffffffffffffffffffffff021916908373ffffffffffffffffffffffffffffffffffffffff160217905550600460009054906101000a900473ffffffffffffffffffffffffffffffffffffffff16600560006101000a81548173ffffffffffffffffffffffffffffffffffffffff021916908373ffffffffffffffffffffffffffffffffffffffff1602179055503480156100c857600080fd5b5060016000819055506100ed6100e26100f260201b60201c565b6100fa60201b60201c565b6101c0565b600033905090565b6000600160009054906101000a900473ffffffffffffffffffffffffffffffffffffffff16905081600160006101000a81548173ffffffffffffffffffffffffffffffffffffffff021916908373ffffffffffffffffffffffffffffffffffffffff1602179055508173ffffffffffffffffffffffffffffffffffffffff168173ffffffffffffffffffffffffffffffffffffffff167f8be0079c531659141344cd1fd0a4f28419497f9722a3daafe3b4186f6b6457e060405160405180910390a35050565b611484806101cf6000396000f3fe60806040526004361061004a5760003560e01c8063715018a61461004f5780637837248d146100665780638da5cb5b146100825780638e6771cd146100ad578063f2fde38b146100c9575b600080fd5b34801561005b57600080fd5b506100646100f2565b005b610080600480360381019061007b9190610dc0565b61017a565b005b34801561008e57600080fd5b506100976105a5565b6040516100a49190610f71565b60405180910390f35b6100c760048036038101906100c29190610d2d565b6105cf565b005b3480156100d557600080fd5b506100f060048036038101906100eb9190610d04565b6109d0565b005b6100fa610ac8565b73ffffffffffffffffffffffffffffffffffffffff166101186105a5565b73ffffffffffffffffffffffffffffffffffffffff161461016e576040517f08c379a000000000000000000000000000000000000000000000000000000000815260040161016590610fac565b60405180910390fd5b6101786000610ad0565b565b662386f26fc100003410156101c4576040517f08c379a00000000000000000000000000000000000000000000000000000000081526004016101bb90610fcc565b60405180910390fd5b6101ce6003610b96565b60006101da6003610bac565b90506000600560009054906101000a900473ffffffffffffffffffffffffffffffffffffffff1673ffffffffffffffffffffffffffffffffffffffff166370a08231306040518263ffffffff1660e01b81526004016102399190610f71565b60206040518083038186803b15801561025157600080fd5b505afa158015610265573d6000803e3d6000fd5b505050506040513d601f19601f820116820180604052508101906102899190610e79565b9050600560009054906101000a900473ffffffffffffffffffffffffffffffffffffffff1673ffffffffffffffffffffffffffffffffffffffff16631249c58b346040518263ffffffff1660e01b81526004016000604051808303818588803b1580156102f557600080fd5b505af1158015610309573d6000803e3d6000fd5b50505050506000600560009054906101000a900473ffffffffffffffffffffffffffffffffffffffff1673ffffffffffffffffffffffffffffffffffffffff166370a08231306040518263ffffffff1660e01b815260040161036b9190610f71565b60206040518083038186803b15801561038357600080fd5b505afa158015610397573d6000803e3d6000fd5b505050506040513d601f19601f820116820180604052508101906103bb9190610e79565b9050600082826103cb9190611194565b90506040518061014001604052808581526020018b81526020018a815260200189815260200188815260200160008152602001878152602001868152602001600073ffffffffffffffffffffffffffffffffffffffff1681526020018281525060086000868152602001908152602001600020600082015181600001556020820151816001019080519060200190610464929190610bba565b506040820151816002019080519060200190610481929190610bba565b50606082015181600301556080820151816004015560a0820151816005015560c0820151816006015560e082015181600701556101008201518160080160006101000a81548173ffffffffffffffffffffffffffffffffffffffff021916908373ffffffffffffffffffffffffffffffffffffffff160217905550610120820151816009015590505083600960003373ffffffffffffffffffffffffffffffffffffffff1673ffffffffffffffffffffffffffffffffffffffff168152602001908152602001600020819055507fc7e7fed678ca586ed6b631a2b9a75f2a4402976530d3922283e73c0eb28db3eb848b8b8b8b60008c8c60008a6040516105919a99989796959493929190610fec565b60405180910390a150505050505050505050565b6000600160009054906101000a900473ffffffffffffffffffffffffffffffffffffffff16905090565b662386f26fc10000341015610619576040517f08c379a000000000000000000000000000000000000000000000000000000000815260040161061090610fcc565b60405180910390fd5b6106236002610b96565b600061062f6002610bac565b90506000600560009054906101000a900473ffffffffffffffffffffffffffffffffffffffff1673ffffffffffffffffffffffffffffffffffffffff166370a08231306040518263ffffffff1660e01b815260040161068e9190610f71565b60206040518083038186803b1580156106a657600080fd5b505afa1580156106ba573d6000803e3d6000fd5b505050506040513d601f19601f820116820180604052508101906106de9190610e79565b9050600560009054906101000a900473ffffffffffffffffffffffffffffffffffffffff1673ffffffffffffffffffffffffffffffffffffffff16631249c58b346040518263ffffffff1660e01b81526004016000604051808303818588803b15801561074a57600080fd5b505af115801561075e573d6000803e3d6000fd5b50505050506000600560009054906101000a900473ffffffffffffffffffffffffffffffffffffffff1673ffffffffffffffffffffffffffffffffffffffff166370a08231306040518263ffffffff1660e01b81526004016107c09190610f71565b60206040518083038186803b1580156107d857600080fd5b505afa1580156107ec573d6000803e3d6000fd5b505050506040513d601f19601f820116820180604052508101906108109190610e79565b9050600082826108209190611194565b9050604051806101000160405280858152602001898152602001888152602001878152602001868152602001348152602001600073ffffffffffffffffffffffffffffffffffffffff16815260200182815250600660008681526020019081526020016000206000820151816000015560208201518160010190805190602001906108ac929190610bba565b5060408201518160020190805190602001906108c9929190610bba565b50606082015181600301556080820151816004015560a0820151816005015560c08201518160060160006101000a81548173ffffffffffffffffffffffffffffffffffffffff021916908373ffffffffffffffffffffffffffffffffffffffff16021790555060e0820151816007015590505083600760003373ffffffffffffffffffffffffffffffffffffffff1673ffffffffffffffffffffffffffffffffffffffff168152602001908152602001600020819055507fc4998938b6677fbdbfc02d4b72cabfbd7c0aa256e8754a1a22e7e09df1315e938489898989346000886040516109be989796959493929190611096565b60405180910390a15050505050505050565b6109d8610ac8565b73ffffffffffffffffffffffffffffffffffffffff166109f66105a5565b73ffffffffffffffffffffffffffffffffffffffff1614610a4c576040517f08c379a0000000000000000000000000000000000000000000000000000000008152600401610a4390610fac565b60405180910390fd5b600073ffffffffffffffffffffffffffffffffffffffff168173ffffffffffffffffffffffffffffffffffffffff161415610abc576040517f08c379a0000000000000000000000000000000000000000000000000000000008152600401610ab390610f8c565b60405180910390fd5b610ac581610ad0565b50565b600033905090565b6000600160009054906101000a900473ffffffffffffffffffffffffffffffffffffffff16905081600160006101000a81548173ffffffffffffffffffffffffffffffffffffffff021916908373ffffffffffffffffffffffffffffffffffffffff1602179055508173ffffffffffffffffffffffffffffffffffffffff168173ffffffffffffffffffffffffffffffffffffffff167f8be0079c531659141344cd1fd0a4f28419497f9722a3daafe3b4186f6b6457e060405160405180910390a35050565b6001816000016000828254019250508190555050565b600081600001549050919050565b828054610bc690611258565b90600052602060002090601f016020900481019282610be85760008555610c2f565b82601f10610c0157805160ff1916838001178555610c2f565b82800160010185558215610c2f579182015b82811115610c2e578251825591602001919060010190610c13565b5b509050610c3c9190610c40565b5090565b5b80821115610c59576000816000905550600101610c41565b5090565b6000610c70610c6b84611147565b611122565b905082815260208101848484011115610c8857600080fd5b610c93848285611216565b509392505050565b600081359050610caa81611420565b92915050565b600082601f830112610cc157600080fd5b8135610cd1848260208601610c5d565b91505092915050565b600081359050610ce981611437565b92915050565b600081519050610cfe81611437565b92915050565b600060208284031215610d1657600080fd5b6000610d2484828501610c9b565b91505092915050565b60008060008060808587031215610d4357600080fd5b600085013567ffffffffffffffff811115610d5d57600080fd5b610d6987828801610cb0565b945050602085013567ffffffffffffffff811115610d8657600080fd5b610d9287828801610cb0565b9350506040610da387828801610cda565b9250506060610db487828801610cda565b91505092959194509250565b60008060008060008060c08789031215610dd957600080fd5b600087013567ffffffffffffffff811115610df357600080fd5b610dff89828a01610cb0565b965050602087013567ffffffffffffffff811115610e1c57600080fd5b610e2889828a01610cb0565b9550506040610e3989828a01610cda565b9450506060610e4a89828a01610cda565b9350506080610e5b89828a01610cda565b92505060a0610e6c89828a01610cda565b9150509295509295509295565b600060208284031215610e8b57600080fd5b6000610e9984828501610cef565b91505092915050565b610eab816111c8565b82525050565b610eba81611204565b82525050565b6000610ecb82611178565b610ed58185611183565b9350610ee5818560208601611225565b610eee81611348565b840191505092915050565b6000610f06602683611183565b9150610f1182611359565b604082019050919050565b6000610f29602083611183565b9150610f34826113a8565b602082019050919050565b6000610f4c602283611183565b9150610f57826113d1565b604082019050919050565b610f6b816111fa565b82525050565b6000602082019050610f866000830184610ea2565b92915050565b60006020820190508181036000830152610fa581610ef9565b9050919050565b60006020820190508181036000830152610fc581610f1c565b9050919050565b60006020820190508181036000830152610fe581610f3f565b9050919050565b600061014082019050611002600083018d610f62565b8181036020830152611014818c610ec0565b90508181036040830152611028818b610ec0565b9050611037606083018a610f62565b6110446080830189610f62565b61105160a0830188610eb1565b61105e60c0830187610f62565b61106b60e0830186610f62565b611079610100830185610ea2565b611087610120830184610f62565b9b9a5050505050505050505050565b6000610100820190506110ac600083018b610f62565b81810360208301526110be818a610ec0565b905081810360408301526110d28189610ec0565b90506110e16060830188610f62565b6110ee6080830187610f62565b6110fb60a0830186610f62565b61110860c0830185610ea2565b61111560e0830184610f62565b9998505050505050505050565b600061112c61113d565b9050611138828261128a565b919050565b6000604051905090565b600067ffffffffffffffff82111561116257611161611319565b5b61116b82611348565b9050602081019050919050565b600081519050919050565b600082825260208201905092915050565b600061119f826111fa565b91506111aa836111fa565b9250828210156111bd576111bc6112bb565b5b828203905092915050565b60006111d3826111da565b9050919050565b600073ffffffffffffffffffffffffffffffffffffffff82169050919050565b6000819050919050565b600061120f826111fa565b9050919050565b82818337600083830152505050565b60005b83811015611243578082015181840152602081019050611228565b83811115611252576000848401525b50505050565b6000600282049050600182168061127057607f821691505b60208210811415611284576112836112ea565b5b50919050565b61129382611348565b810181811067ffffffffffffffff821117156112b2576112b1611319565b5b80604052505050565b7f4e487b7100000000000000000000000000000000000000000000000000000000600052601160045260246000fd5b7f4e487b7100000000000000000000000000000000000000000000000000000000600052602260045260246000fd5b7f4e487b7100000000000000000000000000000000000000000000000000000000600052604160045260246000fd5b6000601f19601f8301169050919050565b7f4f776e61626c653a206e6577206f776e657220697320746865207a65726f206160008201527f6464726573730000000000000000000000000000000000000000000000000000602082015250565b7f4f776e61626c653a2063616c6c6572206973206e6f7420746865206f776e6572600082015250565b7f4d696e696d756d206465706f73697420616d6f756e7420697320302e3031204560008201527f7468000000000000000000000000000000000000000000000000000000000000602082015250565b611429816111c8565b811461143457600080fd5b50565b611440816111fa565b811461144b57600080fd5b5056fea2646970667358221220690025acafe775861c56a2606fa93afded9ac6b3b98f4f763786508c3b3c600a64736f6c63430008040033",
  "linkReferences": {},
  "deployedLinkReferences": {}
}