{
  "_format": "hh-sol-artifact-1",
  "contractName": "Investments",
  "sourceName": "contracts/Invetments.sol",
  "abi": [
    {
      "anonymous": false,
      "inputs": [
        {
          "indexed": false,
          "internalType": "uint256",
          "name": "fdId",
          "type": "uint256"
        },
        {
          "indexed": false,
          "internalType": "address",
          "name": "owner",
          "type": "address"
        },
        {
          "indexed": false,
          "internalType": "string",
          "name": "name",
          "type": "string"
        },
        {
          "indexed": false,
          "internalType": "uint256",
          "name": "startDate",
          "type": "uint256"
        },
        {
          "indexed": false,
          "internalType": "uint256",
          "name": "endDate",
          "type": "uint256"
        },
        {
          "indexed": false,
          "internalType": "uint256",
          "name": "amount",
          "type": "uint256"
        },
        {
          "indexed": false,
          "internalType": "uint256",
          "name": "redeemedAmount",
          "type": "uint256"
        },
        {
          "indexed": false,
          "internalType": "address",
          "name": "currency",
          "type": "address"
        },
        {
          "indexed": false,
          "internalType": "uint256",
          "name": "cTokens",
          "type": "uint256"
        },
        {
          "indexed": false,
          "internalType": "bool",
          "name": "isActive",
          "type": "bool"
        }
      ],
      "name": "FdCreated",
      "type": "event"
    },
    {
      "anonymous": false,
      "inputs": [
        {
          "indexed": false,
          "internalType": "uint256",
          "name": "fdId",
          "type": "uint256"
        },
        {
          "indexed": false,
          "internalType": "uint256",
          "name": "redeemedAmount",
          "type": "uint256"
        }
      ],
      "name": "FdRedeemd",
      "type": "event"
    },
    {
      "anonymous": false,
      "inputs": [
        {
          "indexed": true,
          "internalType": "address",
          "name": "previousOwner",
          "type": "address"
        },
        {
          "indexed": true,
          "internalType": "address",
          "name": "newOwner",
          "type": "address"
        }
      ],
      "name": "OwnershipTransferred",
      "type": "event"
    },
    {
      "anonymous": false,
      "inputs": [
        {
          "indexed": false,
          "internalType": "uint256",
          "name": "rdId",
          "type": "uint256"
        },
        {
          "indexed": false,
          "internalType": "address",
          "name": "owner",
          "type": "address"
        },
        {
          "indexed": false,
          "internalType": "string",
          "name": "name",
          "type": "string"
        },
        {
          "indexed": false,
          "internalType": "uint256",
          "name": "startDate",
          "type": "uint256"
        },
        {
          "indexed": false,
          "internalType": "uint256",
          "name": "endDate",
          "type": "uint256"
        },
        {
          "indexed": false,
          "internalType": "uint256",
          "name": "amount",
          "type": "uint256"
        },
        {
          "indexed": false,
          "internalType": "uint256",
          "name": "redeemedAmount",
          "type": "uint256"
        },
        {
          "indexed": false,
          "internalType": "uint256",
          "name": "frequency",
          "type": "uint256"
        },
        {
          "indexed": false,
          "internalType": "address",
          "name": "currency",
          "type": "address"
        },
        {
          "indexed": false,
          "internalType": "uint256",
          "name": "cTokens",
          "type": "uint256"
        },
        {
          "indexed": false,
          "internalType": "bool",
          "name": "isActive",
          "type": "bool"
        }
      ],
      "name": "RdCreated",
      "type": "event"
    },
    {
      "inputs": [
        {
          "internalType": "uint256",
          "name": "fdId",
          "type": "uint256"
        }
      ],
      "name": "getFdBalance",
      "outputs": [
        {
          "internalType": "uint256",
          "name": "",
          "type": "uint256"
        }
      ],
      "stateMutability": "view",
      "type": "function"
    },
    {
      "inputs": [
        {
          "internalType": "uint256",
          "name": "fdId",
          "type": "uint256"
        }
      ],
      "name": "getFdBalanceWithInterest",
      "outputs": [
        {
          "internalType": "uint256",
          "name": "",
          "type": "uint256"
        }
      ],
      "stateMutability": "view",
      "type": "function"
    },
    {
      "inputs": [
        {
          "internalType": "string",
          "name": "_name",
          "type": "string"
        },
        {
          "internalType": "uint256",
          "name": "duration",
          "type": "uint256"
        }
      ],
      "name": "makeFd",
      "outputs": [],
      "stateMutability": "payable",
      "type": "function"
    },
    {
      "inputs": [
        {
          "internalType": "string",
          "name": "_name",
          "type": "string"
        },
        {
          "internalType": "uint256",
          "name": "startDate",
          "type": "uint256"
        },
        {
          "internalType": "uint256",
          "name": "endDate",
          "type": "uint256"
        },
        {
          "internalType": "uint256",
          "name": "frequency",
          "type": "uint256"
        }
      ],
      "name": "makeRd",
      "outputs": [],
      "stateMutability": "payable",
      "type": "function"
    },
    {
      "inputs": [],
      "name": "owner",
      "outputs": [
        {
          "internalType": "address",
          "name": "",
          "type": "address"
        }
      ],
      "stateMutability": "view",
      "type": "function"
    },
    {
      "inputs": [
        {
          "internalType": "uint256",
          "name": "fdId",
          "type": "uint256"
        }
      ],
      "name": "redeemFd",
      "outputs": [],
      "stateMutability": "nonpayable",
      "type": "function"
    },
    {
      "inputs": [],
      "name": "renounceOwnership",
      "outputs": [],
      "stateMutability": "nonpayable",
      "type": "function"
    },
    {
      "inputs": [
        {
          "internalType": "address",
          "name": "newOwner",
          "type": "address"
        }
      ],
      "name": "transferOwnership",
      "outputs": [],
      "stateMutability": "nonpayable",
      "type": "function"
    }
  ],
  "bytecode": "0x608060405273859e9d8a4edadfedb5a2ff311243af80f85a91b8600460006101000a81548173ffffffffffffffffffffffffffffffffffffffff021916908373ffffffffffffffffffffffffffffffffffffffff160217905550600460009054906101000a900473ffffffffffffffffffffffffffffffffffffffff16600560006101000a81548173ffffffffffffffffffffffffffffffffffffffff021916908373ffffffffffffffffffffffffffffffffffffffff1602179055503480156100c857600080fd5b5060016000819055506100ed6100e26100f260201b60201c565b6100fa60201b60201c565b6101c0565b600033905090565b6000600160009054906101000a900473ffffffffffffffffffffffffffffffffffffffff16905081600160006101000a81548173ffffffffffffffffffffffffffffffffffffffff021916908373ffffffffffffffffffffffffffffffffffffffff1602179055508173ffffffffffffffffffffffffffffffffffffffff168173ffffffffffffffffffffffffffffffffffffffff167f8be0079c531659141344cd1fd0a4f28419497f9722a3daafe3b4186f6b6457e060405160405180910390a35050565b611c0f806101cf6000396000f3fe60806040526004361061007b5760003560e01c80638fda876a1161004e5780638fda876a146100fa578063a2359b0314610137578063d232949f14610174578063f2fde38b1461019d5761007b565b80633d598b5414610080578063715018a61461009c57806387f070bf146100b35780638da5cb5b146100cf575b600080fd5b61009a600480360381019061009591906112fa565b6101c6565b005b3480156100a857600080fd5b506100b161065d565b005b6100cd60048036038101906100c891906112a6565b6106e5565b005b3480156100db57600080fd5b506100e4610b8a565b6040516100f191906114eb565b60405180910390f35b34801561010657600080fd5b50610121600480360381019061011c9190611375565b610bb4565b60405161012e91906115a6565b60405180910390f35b34801561014357600080fd5b5061015e60048036038101906101599190611375565b610c91565b60405161016b91906115a6565b60405180910390f35b34801561018057600080fd5b5061019b60048036038101906101969190611375565b610cb1565b005b3480156101a957600080fd5b506101c460048036038101906101bf919061127d565b610f49565b005b662386f26fc10000341015610210576040517f08c379a000000000000000000000000000000000000000000000000000000000815260040161020790611546565b60405180910390fd5b61021a6003611041565b60006102266003611057565b90506000600560009054906101000a900473ffffffffffffffffffffffffffffffffffffffff1673ffffffffffffffffffffffffffffffffffffffff166370a08231306040518263ffffffff1660e01b815260040161028591906114eb565b60206040518083038186803b15801561029d57600080fd5b505afa1580156102b1573d6000803e3d6000fd5b505050506040513d601f19601f820116820180604052508101906102d5919061139e565b9050600560009054906101000a900473ffffffffffffffffffffffffffffffffffffffff1673ffffffffffffffffffffffffffffffffffffffff16631249c58b346040518263ffffffff1660e01b81526004016000604051808303818588803b15801561034157600080fd5b505af1158015610355573d6000803e3d6000fd5b50505050506000600560009054906101000a900473ffffffffffffffffffffffffffffffffffffffff1673ffffffffffffffffffffffffffffffffffffffff166370a08231306040518263ffffffff1660e01b81526004016103b791906114eb565b60206040518083038186803b1580156103cf57600080fd5b505afa1580156103e3573d6000803e3d6000fd5b505050506040513d601f19601f82011682018060405250810190610407919061139e565b9050600082826104179190611892565b90506040518061016001604052808581526020013373ffffffffffffffffffffffffffffffffffffffff1681526020018981526020018881526020018781526020016000815260200160008152602001868152602001600073ffffffffffffffffffffffffffffffffffffffff16815260200182815260200160011515815250600860008681526020019081526020016000206000820151816000015560208201518160010160006101000a81548173ffffffffffffffffffffffffffffffffffffffff021916908373ffffffffffffffffffffffffffffffffffffffff1602179055506040820151816002019080519060200190610517929190611133565b50606082015181600301556080820151816004015560a0820151816005015560c0820151816006015560e082015181600701556101008201518160080160006101000a81548173ffffffffffffffffffffffffffffffffffffffff021916908373ffffffffffffffffffffffffffffffffffffffff160217905550610120820151816009015561014082015181600a0160006101000a81548160ff02191690831515021790555090505083600960003373ffffffffffffffffffffffffffffffffffffffff1673ffffffffffffffffffffffffffffffffffffffff168152602001908152602001600020819055507fb332856736cc20dd99695082aa5518e32408577e1b7a9855b61527a288228d1584338a8a8a6000808c60008a600160405161064b9b9a999897969594939291906115c1565b60405180910390a15050505050505050565b610665611065565b73ffffffffffffffffffffffffffffffffffffffff16610683610b8a565b73ffffffffffffffffffffffffffffffffffffffff16146106d9576040517f08c379a00000000000000000000000000000000000000000000000000000000081526004016106d090611526565b60405180910390fd5b6106e3600061106d565b565b662386f26fc1000034101561072f576040517f08c379a000000000000000000000000000000000000000000000000000000000815260040161072690611546565b60405180910390fd5b6107396002611041565b60006107456002611057565b905060004290506000620151808461075d9190611838565b4261076891906117b1565b90506000600560009054906101000a900473ffffffffffffffffffffffffffffffffffffffff1673ffffffffffffffffffffffffffffffffffffffff166370a08231306040518263ffffffff1660e01b81526004016107c791906114eb565b60206040518083038186803b1580156107df57600080fd5b505afa1580156107f3573d6000803e3d6000fd5b505050506040513d601f19601f82011682018060405250810190610817919061139e565b9050600560009054906101000a900473ffffffffffffffffffffffffffffffffffffffff1673ffffffffffffffffffffffffffffffffffffffff16631249c58b346040518263ffffffff1660e01b81526004016000604051808303818588803b15801561088357600080fd5b505af1158015610897573d6000803e3d6000fd5b50505050506000600560009054906101000a900473ffffffffffffffffffffffffffffffffffffffff1673ffffffffffffffffffffffffffffffffffffffff166370a08231306040518263ffffffff1660e01b81526004016108f991906114eb565b60206040518083038186803b15801561091157600080fd5b505afa158015610925573d6000803e3d6000fd5b505050506040513d601f19601f82011682018060405250810190610949919061139e565b9050600082826109599190611892565b90506040518061014001604052808781526020013373ffffffffffffffffffffffffffffffffffffffff16815260200189815260200186815260200185815260200134815260200160008152602001600073ffffffffffffffffffffffffffffffffffffffff16815260200182815260200160011515815250600660008881526020019081526020016000206000820151816000015560208201518160010160006101000a81548173ffffffffffffffffffffffffffffffffffffffff021916908373ffffffffffffffffffffffffffffffffffffffff1602179055506040820151816002019080519060200190610a52929190611133565b50606082015181600301556080820151816004015560a0820151816005015560c0820151816006015560e08201518160070160006101000a81548173ffffffffffffffffffffffffffffffffffffffff021916908373ffffffffffffffffffffffffffffffffffffffff16021790555061010082015181600801556101208201518160090160006101000a81548160ff02191690831515021790555090505085600760003373ffffffffffffffffffffffffffffffffffffffff1673ffffffffffffffffffffffffffffffffffffffff168152602001908152602001600020819055507f1df0e7cb371df144b82519bbabb3c237703e191b902c1414d9dc9296d283469686338a888834600080896001604051610b789a99989796959493929190611673565b60405180910390a15050505050505050565b6000600160009054906101000a900473ffffffffffffffffffffffffffffffffffffffff16905090565b6000670de0b6b3a7640000600560009054906101000a900473ffffffffffffffffffffffffffffffffffffffff1673ffffffffffffffffffffffffffffffffffffffff1663182df0f56040518163ffffffff1660e01b815260040160206040518083038186803b158015610c2757600080fd5b505afa158015610c3b573d6000803e3d6000fd5b505050506040513d601f19601f82011682018060405250810190610c5f919061139e565b6006600085815260200190815260200160002060080154610c809190611838565b610c8a9190611807565b9050919050565b600060066000838152602001908152602001600020600501549050919050565b60026000541415610cf7576040517f08c379a0000000000000000000000000000000000000000000000000000000008152600401610cee90611566565b60405180910390fd5b600260008190555060006006600083815260200190815260200160002090508060010160009054906101000a900473ffffffffffffffffffffffffffffffffffffffff1673ffffffffffffffffffffffffffffffffffffffff163373ffffffffffffffffffffffffffffffffffffffff1614610da8576040517f08c379a0000000000000000000000000000000000000000000000000000000008152600401610d9f90611586565b60405180910390fd5b60008160010160009054906101000a900473ffffffffffffffffffffffffffffffffffffffff169050600560009054906101000a900473ffffffffffffffffffffffffffffffffffffffff1673ffffffffffffffffffffffffffffffffffffffff1663db006a7583600801546040518263ffffffff1660e01b8152600401610e3091906115a6565b602060405180830381600087803b158015610e4a57600080fd5b505af1158015610e5e573d6000803e3d6000fd5b505050506040513d601f19601f82011682018060405250810190610e82919061139e565b506000610e928360080154610bb4565b90506000836008018190555060008360090160006101000a81548160ff0219169083151502179055508173ffffffffffffffffffffffffffffffffffffffff166108fc829081150290604051600060405180830381858888f19350505050158015610f01573d6000803e3d6000fd5b507f5ec10b70e94bd245fb82641e9379c6e26800956e3fa022a9a7b6e74e35b9c4898482604051610f33929190611716565b60405180910390a1505050600160008190555050565b610f51611065565b73ffffffffffffffffffffffffffffffffffffffff16610f6f610b8a565b73ffffffffffffffffffffffffffffffffffffffff1614610fc5576040517f08c379a0000000000000000000000000000000000000000000000000000000008152600401610fbc90611526565b60405180910390fd5b600073ffffffffffffffffffffffffffffffffffffffff168173ffffffffffffffffffffffffffffffffffffffff161415611035576040517f08c379a000000000000000000000000000000000000000000000000000000000815260040161102c90611506565b60405180910390fd5b61103e8161106d565b50565b6001816000016000828254019250508190555050565b600081600001549050919050565b600033905090565b6000600160009054906101000a900473ffffffffffffffffffffffffffffffffffffffff16905081600160006101000a81548173ffffffffffffffffffffffffffffffffffffffff021916908373ffffffffffffffffffffffffffffffffffffffff1602179055508173ffffffffffffffffffffffffffffffffffffffff168173ffffffffffffffffffffffffffffffffffffffff167f8be0079c531659141344cd1fd0a4f28419497f9722a3daafe3b4186f6b6457e060405160405180910390a35050565b82805461113f90611962565b90600052602060002090601f01602090048101928261116157600085556111a8565b82601f1061117a57805160ff19168380011785556111a8565b828001600101855582156111a8579182015b828111156111a757825182559160200191906001019061118c565b5b5090506111b591906111b9565b5090565b5b808211156111d25760008160009055506001016111ba565b5090565b60006111e96111e484611764565b61173f565b90508281526020810184848401111561120157600080fd5b61120c848285611920565b509392505050565b60008135905061122381611bab565b92915050565b600082601f83011261123a57600080fd5b813561124a8482602086016111d6565b91505092915050565b60008135905061126281611bc2565b92915050565b60008151905061127781611bc2565b92915050565b60006020828403121561128f57600080fd5b600061129d84828501611214565b91505092915050565b600080604083850312156112b957600080fd5b600083013567ffffffffffffffff8111156112d357600080fd5b6112df85828601611229565b92505060206112f085828601611253565b9150509250929050565b6000806000806080858703121561131057600080fd5b600085013567ffffffffffffffff81111561132a57600080fd5b61133687828801611229565b945050602061134787828801611253565b935050604061135887828801611253565b925050606061136987828801611253565b91505092959194509250565b60006020828403121561138757600080fd5b600061139584828501611253565b91505092915050565b6000602082840312156113b057600080fd5b60006113be84828501611268565b91505092915050565b6113d0816118c6565b82525050565b6113df816118d8565b82525050565b6113ee8161190e565b82525050565b60006113ff82611795565b61140981856117a0565b935061141981856020860161192f565b61142281611a81565b840191505092915050565b600061143a6026836117a0565b915061144582611a92565b604082019050919050565b600061145d6020836117a0565b915061146882611ae1565b602082019050919050565b60006114806022836117a0565b915061148b82611b0a565b604082019050919050565b60006114a3601f836117a0565b91506114ae82611b59565b602082019050919050565b60006114c66011836117a0565b91506114d182611b82565b602082019050919050565b6114e581611904565b82525050565b600060208201905061150060008301846113c7565b92915050565b6000602082019050818103600083015261151f8161142d565b9050919050565b6000602082019050818103600083015261153f81611450565b9050919050565b6000602082019050818103600083015261155f81611473565b9050919050565b6000602082019050818103600083015261157f81611496565b9050919050565b6000602082019050818103600083015261159f816114b9565b9050919050565b60006020820190506115bb60008301846114dc565b92915050565b6000610160820190506115d7600083018e6114dc565b6115e4602083018d6113c7565b81810360408301526115f6818c6113f4565b9050611605606083018b6114dc565b611612608083018a6114dc565b61161f60a08301896113e5565b61162c60c08301886113e5565b61163960e08301876114dc565b6116476101008301866113c7565b6116556101208301856114dc565b6116636101408301846113d6565b9c9b505050505050505050505050565b600061014082019050611689600083018d6114dc565b611696602083018c6113c7565b81810360408301526116a8818b6113f4565b90506116b7606083018a6114dc565b6116c460808301896114dc565b6116d160a08301886114dc565b6116de60c08301876113e5565b6116eb60e08301866113c7565b6116f96101008301856114dc565b6117076101208301846113d6565b9b9a5050505050505050505050565b600060408201905061172b60008301856114dc565b61173860208301846114dc565b9392505050565b600061174961175a565b90506117558282611994565b919050565b6000604051905090565b600067ffffffffffffffff82111561177f5761177e611a52565b5b61178882611a81565b9050602081019050919050565b600081519050919050565b600082825260208201905092915050565b60006117bc82611904565b91506117c783611904565b9250827fffffffffffffffffffffffffffffffffffffffffffffffffffffffffffffffff038211156117fc576117fb6119c5565b5b828201905092915050565b600061181282611904565b915061181d83611904565b92508261182d5761182c6119f4565b5b828204905092915050565b600061184382611904565b915061184e83611904565b9250817fffffffffffffffffffffffffffffffffffffffffffffffffffffffffffffffff0483118215151615611887576118866119c5565b5b828202905092915050565b600061189d82611904565b91506118a883611904565b9250828210156118bb576118ba6119c5565b5b828203905092915050565b60006118d1826118e4565b9050919050565b60008115159050919050565b600073ffffffffffffffffffffffffffffffffffffffff82169050919050565b6000819050919050565b600061191982611904565b9050919050565b82818337600083830152505050565b60005b8381101561194d578082015181840152602081019050611932565b8381111561195c576000848401525b50505050565b6000600282049050600182168061197a57607f821691505b6020821081141561198e5761198d611a23565b5b50919050565b61199d82611a81565b810181811067ffffffffffffffff821117156119bc576119bb611a52565b5b80604052505050565b7f4e487b7100000000000000000000000000000000000000000000000000000000600052601160045260246000fd5b7f4e487b7100000000000000000000000000000000000000000000000000000000600052601260045260246000fd5b7f4e487b7100000000000000000000000000000000000000000000000000000000600052602260045260246000fd5b7f4e487b7100000000000000000000000000000000000000000000000000000000600052604160045260246000fd5b6000601f19601f8301169050919050565b7f4f776e61626c653a206e6577206f776e657220697320746865207a65726f206160008201527f6464726573730000000000000000000000000000000000000000000000000000602082015250565b7f4f776e61626c653a2063616c6c6572206973206e6f7420746865206f776e6572600082015250565b7f4d696e696d756d206465706f73697420616d6f756e7420697320302e3031204560008201527f7468000000000000000000000000000000000000000000000000000000000000602082015250565b7f5265656e7472616e637947756172643a207265656e7472616e742063616c6c00600082015250565b7f596f7520617265206e6f74206f776e6572000000000000000000000000000000600082015250565b611bb4816118c6565b8114611bbf57600080fd5b50565b611bcb81611904565b8114611bd657600080fd5b5056fea264697066735822122075fa523deccde11d695c5c8ce48bc6528cd30d7a4b6748a0236839b9e5d6fdad64736f6c63430008040033",
  "linkReferences": {},
  "deployedLinkReferences": {}
}