{
  "_format": "hh-sol-artifact-1",
  "contractName": "InvestmentsPolygon",
  "sourceName": "contracts/InvetmentsPolygon.sol",
  "abi": [
    {
      "anonymous": false,
      "inputs": [
        {
          "indexed": false,
          "internalType": "uint256",
          "name": "fdId",
          "type": "uint256"
        },
        {
          "indexed": false,
          "internalType": "address",
          "name": "owner",
          "type": "address"
        },
        {
          "indexed": false,
          "internalType": "string",
          "name": "name",
          "type": "string"
        },
        {
          "indexed": false,
          "internalType": "uint256",
          "name": "startDate",
          "type": "uint256"
        },
        {
          "indexed": false,
          "internalType": "uint256",
          "name": "endDate",
          "type": "uint256"
        },
        {
          "indexed": false,
          "internalType": "uint256",
          "name": "amount",
          "type": "uint256"
        },
        {
          "indexed": false,
          "internalType": "uint256",
          "name": "redeemedAmount",
          "type": "uint256"
        },
        {
          "indexed": false,
          "internalType": "address",
          "name": "currency",
          "type": "address"
        },
        {
          "indexed": false,
          "internalType": "uint256",
          "name": "cTokens",
          "type": "uint256"
        },
        {
          "indexed": false,
          "internalType": "bool",
          "name": "isActive",
          "type": "bool"
        }
      ],
      "name": "FdCreated",
      "type": "event"
    },
    {
      "anonymous": false,
      "inputs": [
        {
          "indexed": false,
          "internalType": "uint256",
          "name": "fdId",
          "type": "uint256"
        },
        {
          "indexed": false,
          "internalType": "uint256",
          "name": "redeemedAmount",
          "type": "uint256"
        }
      ],
      "name": "FdRedeemd",
      "type": "event"
    },
    {
      "anonymous": false,
      "inputs": [
        {
          "indexed": true,
          "internalType": "address",
          "name": "previousOwner",
          "type": "address"
        },
        {
          "indexed": true,
          "internalType": "address",
          "name": "newOwner",
          "type": "address"
        }
      ],
      "name": "OwnershipTransferred",
      "type": "event"
    },
    {
      "anonymous": false,
      "inputs": [
        {
          "indexed": false,
          "internalType": "uint256",
          "name": "rdId",
          "type": "uint256"
        },
        {
          "indexed": false,
          "internalType": "address",
          "name": "owner",
          "type": "address"
        },
        {
          "indexed": false,
          "internalType": "string",
          "name": "name",
          "type": "string"
        },
        {
          "indexed": false,
          "internalType": "uint256",
          "name": "startDate",
          "type": "uint256"
        },
        {
          "indexed": false,
          "internalType": "uint256",
          "name": "endDate",
          "type": "uint256"
        },
        {
          "indexed": false,
          "internalType": "uint256",
          "name": "amount",
          "type": "uint256"
        },
        {
          "indexed": false,
          "internalType": "uint256",
          "name": "redeemedAmount",
          "type": "uint256"
        },
        {
          "indexed": false,
          "internalType": "uint256",
          "name": "frequency",
          "type": "uint256"
        },
        {
          "indexed": false,
          "internalType": "address",
          "name": "currency",
          "type": "address"
        },
        {
          "indexed": false,
          "internalType": "uint256",
          "name": "cTokens",
          "type": "uint256"
        },
        {
          "indexed": false,
          "internalType": "bool",
          "name": "isActive",
          "type": "bool"
        }
      ],
      "name": "RdCreated",
      "type": "event"
    },
    {
      "inputs": [
        {
          "internalType": "uint256",
          "name": "fdId",
          "type": "uint256"
        }
      ],
      "name": "getFdBalance",
      "outputs": [
        {
          "internalType": "uint256",
          "name": "",
          "type": "uint256"
        }
      ],
      "stateMutability": "view",
      "type": "function"
    },
    {
      "inputs": [
        {
          "internalType": "uint256",
          "name": "fdId",
          "type": "uint256"
        }
      ],
      "name": "getFdBalanceWithInterest",
      "outputs": [
        {
          "internalType": "uint256",
          "name": "",
          "type": "uint256"
        }
      ],
      "stateMutability": "view",
      "type": "function"
    },
    {
      "inputs": [
        {
          "internalType": "string",
          "name": "_name",
          "type": "string"
        },
        {
          "internalType": "uint256",
          "name": "duration",
          "type": "uint256"
        }
      ],
      "name": "makeFd",
      "outputs": [],
      "stateMutability": "payable",
      "type": "function"
    },
    {
      "inputs": [],
      "name": "owner",
      "outputs": [
        {
          "internalType": "address",
          "name": "",
          "type": "address"
        }
      ],
      "stateMutability": "view",
      "type": "function"
    },
    {
      "inputs": [
        {
          "internalType": "uint256",
          "name": "fdId",
          "type": "uint256"
        }
      ],
      "name": "redeemFd",
      "outputs": [],
      "stateMutability": "nonpayable",
      "type": "function"
    },
    {
      "inputs": [],
      "name": "redeemMaturedFds",
      "outputs": [],
      "stateMutability": "nonpayable",
      "type": "function"
    },
    {
      "inputs": [],
      "name": "renounceOwnership",
      "outputs": [],
      "stateMutability": "nonpayable",
      "type": "function"
    },
    {
      "inputs": [
        {
          "internalType": "address",
          "name": "newOwner",
          "type": "address"
        }
      ],
      "name": "transferOwnership",
      "outputs": [],
      "stateMutability": "nonpayable",
      "type": "function"
    }
  ],
  "bytecode": "0x608060405273178113104fecbcd7ff8669a0150721e231f0fd4b600460006101000a81548173ffffffffffffffffffffffffffffffffffffffff021916908373ffffffffffffffffffffffffffffffffffffffff16021790555073ee9ee614ad26963bec1bec0d2c92879ae1f209fa600560006101000a81548173ffffffffffffffffffffffffffffffffffffffff021916908373ffffffffffffffffffffffffffffffffffffffff16021790555073f45444171435d0acb08a8af493837ef18e86ee27600660006101000a81548173ffffffffffffffffffffffffffffffffffffffff021916908373ffffffffffffffffffffffffffffffffffffffff160217905550600060075534801561011457600080fd5b50600160008190555061013961012e61013e60201b60201c565b61014660201b60201c565b61020c565b600033905090565b6000600160009054906101000a900473ffffffffffffffffffffffffffffffffffffffff16905081600160006101000a81548173ffffffffffffffffffffffffffffffffffffffff021916908373ffffffffffffffffffffffffffffffffffffffff1602179055508173ffffffffffffffffffffffffffffffffffffffff168173ffffffffffffffffffffffffffffffffffffffff167f8be0079c531659141344cd1fd0a4f28419497f9722a3daafe3b4186f6b6457e060405160405180910390a35050565b61193d8061021b6000396000f3fe60806040526004361061007b5760003560e01c80638fda876a1161004e5780638fda876a146100f5578063a2359b0314610132578063d232949f1461016f578063f2fde38b146101985761007b565b8063417369fb14610080578063715018a61461009757806387f070bf146100ae5780638da5cb5b146100ca575b600080fd5b34801561008c57600080fd5b506100956101c1565b005b3480156100a357600080fd5b506100ac610215565b005b6100c860048036038101906100c3919061101b565b61029d565b005b3480156100d657600080fd5b506100df610810565b6040516100ec91906111f4565b60405180910390f35b34801561010157600080fd5b5061011c6004803603810190610117919061106f565b61083a565b604051610129919061131d565b60405180910390f35b34801561013e57600080fd5b506101596004803603810190610154919061106f565b610927565b604051610166919061131d565b60405180910390f35b34801561017b57600080fd5b506101966004803603810190610191919061106f565b610947565b005b3480156101a457600080fd5b506101bf60048036038101906101ba9190610fc9565b610c80565b005b6000600190505b6101d26002610d78565b811161021257426008600083815260200190815260200160002060040154116101ff576101fe81610947565b5b808061020a906116aa565b9150506101c8565b50565b61021d610d86565b73ffffffffffffffffffffffffffffffffffffffff1661023b610810565b73ffffffffffffffffffffffffffffffffffffffff1614610291576040517f08c379a00000000000000000000000000000000000000000000000000000000081526004016102889061129d565b60405180910390fd5b61029b6000610d8e565b565b662386f26fc100003410156102e7576040517f08c379a00000000000000000000000000000000000000000000000000000000081526004016102de906112bd565b60405180910390fd5b6000600460009054906101000a900473ffffffffffffffffffffffffffffffffffffffff1673ffffffffffffffffffffffffffffffffffffffff16630261bf8b6040518163ffffffff1660e01b815260040160206040518083038186803b15801561035157600080fd5b505afa158015610365573d6000803e3d6000fd5b505050506040513d601f19601f820116820180604052508101906103899190610ff2565b90506103956002610e54565b60006103a16002610d78565b90506000429050600062015180856103b991906114fd565b426103c49190611476565b90506000600660009054906101000a900473ffffffffffffffffffffffffffffffffffffffff1673ffffffffffffffffffffffffffffffffffffffff166370a08231306040518263ffffffff1660e01b815260040161042391906111f4565b60206040518083038186803b15801561043b57600080fd5b505afa15801561044f573d6000803e3d6000fd5b505050506040513d601f19601f820116820180604052508101906104739190611098565b9050600560009054906101000a900473ffffffffffffffffffffffffffffffffffffffff1673ffffffffffffffffffffffffffffffffffffffff1663474cf53d34873060006040518563ffffffff1660e01b81526004016104d69392919061120f565b6000604051808303818588803b1580156104ef57600080fd5b505af1158015610503573d6000803e3d6000fd5b50505050506000600660009054906101000a900473ffffffffffffffffffffffffffffffffffffffff1673ffffffffffffffffffffffffffffffffffffffff166370a08231306040518263ffffffff1660e01b815260040161056591906111f4565b60206040518083038186803b15801561057d57600080fd5b505afa158015610591573d6000803e3d6000fd5b505050506040513d601f19601f820116820180604052508101906105b59190611098565b9050600082826105c59190611557565b90506040518061014001604052808781526020013373ffffffffffffffffffffffffffffffffffffffff1681526020018a815260200186815260200185815260200134815260200160008152602001600073ffffffffffffffffffffffffffffffffffffffff16815260200182815260200160011515815250600860008881526020019081526020016000206000820151816000015560208201518160010160006101000a81548173ffffffffffffffffffffffffffffffffffffffff021916908373ffffffffffffffffffffffffffffffffffffffff16021790555060408201518160020190805190602001906106be929190610e6a565b50606082015181600301556080820151816004015560a0820151816005015560c0820151816006015560e08201518160070160006101000a81548173ffffffffffffffffffffffffffffffffffffffff021916908373ffffffffffffffffffffffffffffffffffffffff16021790555061010082015181600801556101208201518160090160006101000a81548160ff02191690831515021790555090505085600960003373ffffffffffffffffffffffffffffffffffffffff1673ffffffffffffffffffffffffffffffffffffffff1681526020019081526020016000208190555034600760008282546107b39190611476565b925050819055507f1df0e7cb371df144b82519bbabb3c237703e191b902c1414d9dc9296d283469686338b8888346000808960016040516107fd9a99989796959493929190611338565b60405180910390a1505050505050505050565b6000600160009054906101000a900473ffffffffffffffffffffffffffffffffffffffff16905090565b600080600660009054906101000a900473ffffffffffffffffffffffffffffffffffffffff1673ffffffffffffffffffffffffffffffffffffffff16631da24f3e306040518263ffffffff1660e01b815260040161089891906111f4565b60206040518083038186803b1580156108b057600080fd5b505afa1580156108c4573d6000803e3d6000fd5b505050506040513d601f19601f820116820180604052508101906108e89190611098565b90506000600754826108fa91906114cc565b905080600860008681526020019081526020016000206005015461091e91906114fd565b92505050919050565b600060086000838152602001908152602001600020600501549050919050565b6002600054141561098d576040517f08c379a0000000000000000000000000000000000000000000000000000000008152600401610984906112dd565b60405180910390fd5b600260008190555060006008600083815260200190815260200160002090508060010160009054906101000a900473ffffffffffffffffffffffffffffffffffffffff1673ffffffffffffffffffffffffffffffffffffffff163373ffffffffffffffffffffffffffffffffffffffff1614610a3e576040517f08c379a0000000000000000000000000000000000000000000000000000000008152600401610a35906112fd565b60405180910390fd5b6000600460009054906101000a900473ffffffffffffffffffffffffffffffffffffffff1673ffffffffffffffffffffffffffffffffffffffff16630261bf8b6040518163ffffffff1660e01b815260040160206040518083038186803b158015610aa857600080fd5b505afa158015610abc573d6000803e3d6000fd5b505050506040513d601f19601f82011682018060405250810190610ae09190610ff2565b9050600081905060008360010160009054906101000a900473ffffffffffffffffffffffffffffffffffffffff1690508173ffffffffffffffffffffffffffffffffffffffff166369328dec73f45444171435d0acb08a8af493837ef18e86ee278660080154306040518463ffffffff1660e01b8152600401610b6593929190611246565b602060405180830381600087803b158015610b7f57600080fd5b505af1158015610b93573d6000803e3d6000fd5b505050506040513d601f19601f82011682018060405250810190610bb79190611098565b506000610bc7856000015461083a565b90506000856008018190555060008560090160006101000a81548160ff0219169083151502179055508173ffffffffffffffffffffffffffffffffffffffff166108fc829081150290604051600060405180830381858888f19350505050158015610c36573d6000803e3d6000fd5b507f5ec10b70e94bd245fb82641e9379c6e26800956e3fa022a9a7b6e74e35b9c4898682604051610c689291906113db565b60405180910390a15050505050600160008190555050565b610c88610d86565b73ffffffffffffffffffffffffffffffffffffffff16610ca6610810565b73ffffffffffffffffffffffffffffffffffffffff1614610cfc576040517f08c379a0000000000000000000000000000000000000000000000000000000008152600401610cf39061129d565b60405180910390fd5b600073ffffffffffffffffffffffffffffffffffffffff168173ffffffffffffffffffffffffffffffffffffffff161415610d6c576040517f08c379a0000000000000000000000000000000000000000000000000000000008152600401610d639061127d565b60405180910390fd5b610d7581610d8e565b50565b600081600001549050919050565b600033905090565b6000600160009054906101000a900473ffffffffffffffffffffffffffffffffffffffff16905081600160006101000a81548173ffffffffffffffffffffffffffffffffffffffff021916908373ffffffffffffffffffffffffffffffffffffffff1602179055508173ffffffffffffffffffffffffffffffffffffffff168173ffffffffffffffffffffffffffffffffffffffff167f8be0079c531659141344cd1fd0a4f28419497f9722a3daafe3b4186f6b6457e060405160405180910390a35050565b6001816000016000828254019250508190555050565b828054610e7690611647565b90600052602060002090601f016020900481019282610e985760008555610edf565b82601f10610eb157805160ff1916838001178555610edf565b82800160010185558215610edf579182015b82811115610ede578251825591602001919060010190610ec3565b5b509050610eec9190610ef0565b5090565b5b80821115610f09576000816000905550600101610ef1565b5090565b6000610f20610f1b84611429565b611404565b905082815260208101848484011115610f3857600080fd5b610f43848285611605565b509392505050565b600081359050610f5a816118d9565b92915050565b600081519050610f6f816118d9565b92915050565b600082601f830112610f8657600080fd5b8135610f96848260208601610f0d565b91505092915050565b600081359050610fae816118f0565b92915050565b600081519050610fc3816118f0565b92915050565b600060208284031215610fdb57600080fd5b6000610fe984828501610f4b565b91505092915050565b60006020828403121561100457600080fd5b600061101284828501610f60565b91505092915050565b6000806040838503121561102e57600080fd5b600083013567ffffffffffffffff81111561104857600080fd5b61105485828601610f75565b925050602061106585828601610f9f565b9150509250929050565b60006020828403121561108157600080fd5b600061108f84828501610f9f565b91505092915050565b6000602082840312156110aa57600080fd5b60006110b884828501610fb4565b91505092915050565b6110ca8161158b565b82525050565b6110d98161159d565b82525050565b6110e8816115e1565b82525050565b6110f7816115f3565b82525050565b60006111088261145a565b6111128185611465565b9350611122818560208601611614565b61112b816117af565b840191505092915050565b6000611143602683611465565b915061114e826117c0565b604082019050919050565b6000611166602083611465565b91506111718261180f565b602082019050919050565b6000611189602283611465565b915061119482611838565b604082019050919050565b60006111ac601f83611465565b91506111b782611887565b602082019050919050565b60006111cf601183611465565b91506111da826118b0565b602082019050919050565b6111ee816115d7565b82525050565b600060208201905061120960008301846110c1565b92915050565b600060608201905061122460008301866110c1565b61123160208301856110c1565b61123e60408301846110df565b949350505050565b600060608201905061125b60008301866110c1565b61126860208301856111e5565b61127560408301846110c1565b949350505050565b6000602082019050818103600083015261129681611136565b9050919050565b600060208201905081810360008301526112b681611159565b9050919050565b600060208201905081810360008301526112d68161117c565b9050919050565b600060208201905081810360008301526112f68161119f565b9050919050565b60006020820190508181036000830152611316816111c2565b9050919050565b600060208201905061133260008301846111e5565b92915050565b60006101408201905061134e600083018d6111e5565b61135b602083018c6110c1565b818103604083015261136d818b6110fd565b905061137c606083018a6111e5565b61138960808301896111e5565b61139660a08301886111e5565b6113a360c08301876110ee565b6113b060e08301866110c1565b6113be6101008301856111e5565b6113cc6101208301846110d0565b9b9a5050505050505050505050565b60006040820190506113f060008301856111e5565b6113fd60208301846111e5565b9392505050565b600061140e61141f565b905061141a8282611679565b919050565b6000604051905090565b600067ffffffffffffffff82111561144457611443611780565b5b61144d826117af565b9050602081019050919050565b600081519050919050565b600082825260208201905092915050565b6000611481826115d7565b915061148c836115d7565b9250827fffffffffffffffffffffffffffffffffffffffffffffffffffffffffffffffff038211156114c1576114c06116f3565b5b828201905092915050565b60006114d7826115d7565b91506114e2836115d7565b9250826114f2576114f1611722565b5b828204905092915050565b6000611508826115d7565b9150611513836115d7565b9250817fffffffffffffffffffffffffffffffffffffffffffffffffffffffffffffffff048311821515161561154c5761154b6116f3565b5b828202905092915050565b6000611562826115d7565b915061156d836115d7565b9250828210156115805761157f6116f3565b5b828203905092915050565b6000611596826115b7565b9050919050565b60008115159050919050565b600061ffff82169050919050565b600073ffffffffffffffffffffffffffffffffffffffff82169050919050565b6000819050919050565b60006115ec826115a9565b9050919050565b60006115fe826115d7565b9050919050565b82818337600083830152505050565b60005b83811015611632578082015181840152602081019050611617565b83811115611641576000848401525b50505050565b6000600282049050600182168061165f57607f821691505b6020821081141561167357611672611751565b5b50919050565b611682826117af565b810181811067ffffffffffffffff821117156116a1576116a0611780565b5b80604052505050565b60006116b5826115d7565b91507fffffffffffffffffffffffffffffffffffffffffffffffffffffffffffffffff8214156116e8576116e76116f3565b5b600182019050919050565b7f4e487b7100000000000000000000000000000000000000000000000000000000600052601160045260246000fd5b7f4e487b7100000000000000000000000000000000000000000000000000000000600052601260045260246000fd5b7f4e487b7100000000000000000000000000000000000000000000000000000000600052602260045260246000fd5b7f4e487b7100000000000000000000000000000000000000000000000000000000600052604160045260246000fd5b6000601f19601f8301169050919050565b7f4f776e61626c653a206e6577206f776e657220697320746865207a65726f206160008201527f6464726573730000000000000000000000000000000000000000000000000000602082015250565b7f4f776e61626c653a2063616c6c6572206973206e6f7420746865206f776e6572600082015250565b7f4d696e696d756d206465706f73697420616d6f756e7420697320302e3031204560008201527f7468000000000000000000000000000000000000000000000000000000000000602082015250565b7f5265656e7472616e637947756172643a207265656e7472616e742063616c6c00600082015250565b7f596f7520617265206e6f74206f776e6572000000000000000000000000000000600082015250565b6118e28161158b565b81146118ed57600080fd5b50565b6118f9816115d7565b811461190457600080fd5b5056fea26469706673582212205c4a01f49a684fe1f42dd7306182809ea1fde3d9caf4085c46611d5ddb490a0264736f6c63430008040033",
  "linkReferences": {},
  "deployedLinkReferences": {}
}