{
  "_format": "hh-sol-artifact-1",
  "contractName": "NeobankPolygon",
  "sourceName": "contracts/NeobankPolygon.sol",
  "abi": [
    {
      "anonymous": false,
      "inputs": [
        {
          "indexed": false,
          "internalType": "string",
          "name": "name",
          "type": "string"
        },
        {
          "indexed": false,
          "internalType": "uint32",
          "name": "decimal",
          "type": "uint32"
        },
        {
          "indexed": false,
          "internalType": "string",
          "name": "symbol",
          "type": "string"
        },
        {
          "indexed": false,
          "internalType": "string",
          "name": "icon",
          "type": "string"
        },
        {
          "indexed": false,
          "internalType": "address",
          "name": "token",
          "type": "address"
        },
        {
          "indexed": false,
          "internalType": "address",
          "name": "cToken",
          "type": "address"
        }
      ],
      "name": "ATokenAdded",
      "type": "event"
    },
    {
      "anonymous": false,
      "inputs": [
        {
          "indexed": false,
          "internalType": "address",
          "name": "_owner",
          "type": "address"
        },
        {
          "indexed": false,
          "internalType": "uint256",
          "name": "_accountNumber",
          "type": "uint256"
        },
        {
          "indexed": false,
          "internalType": "string",
          "name": "_metadata",
          "type": "string"
        }
      ],
      "name": "AccountCreated",
      "type": "event"
    },
    {
      "anonymous": false,
      "inputs": [
        {
          "indexed": false,
          "internalType": "address",
          "name": "_depositor",
          "type": "address"
        },
        {
          "indexed": false,
          "internalType": "address",
          "name": "_owner",
          "type": "address"
        },
        {
          "indexed": false,
          "internalType": "uint256",
          "name": "_accountNumber",
          "type": "uint256"
        },
        {
          "indexed": false,
          "internalType": "address",
          "name": "currency",
          "type": "address"
        },
        {
          "indexed": false,
          "internalType": "uint256",
          "name": "_amount",
          "type": "uint256"
        },
        {
          "indexed": false,
          "internalType": "uint256",
          "name": "_timestamp",
          "type": "uint256"
        }
      ],
      "name": "Erc20DepositMade",
      "type": "event"
    },
    {
      "anonymous": false,
      "inputs": [
        {
          "indexed": false,
          "internalType": "address",
          "name": "_withdrawer",
          "type": "address"
        },
        {
          "indexed": false,
          "internalType": "address",
          "name": "_owner",
          "type": "address"
        },
        {
          "indexed": false,
          "internalType": "uint256",
          "name": "_accountNumber",
          "type": "uint256"
        },
        {
          "indexed": false,
          "internalType": "address",
          "name": "currency",
          "type": "address"
        },
        {
          "indexed": false,
          "internalType": "uint256",
          "name": "_amount",
          "type": "uint256"
        },
        {
          "indexed": false,
          "internalType": "uint256",
          "name": "_timestamp",
          "type": "uint256"
        }
      ],
      "name": "Erc20WithdrawMade",
      "type": "event"
    },
    {
      "anonymous": false,
      "inputs": [
        {
          "indexed": false,
          "internalType": "address",
          "name": "_depositor",
          "type": "address"
        },
        {
          "indexed": false,
          "internalType": "address",
          "name": "_owner",
          "type": "address"
        },
        {
          "indexed": false,
          "internalType": "uint256",
          "name": "_accountNumber",
          "type": "uint256"
        },
        {
          "indexed": false,
          "internalType": "uint256",
          "name": "_amount",
          "type": "uint256"
        },
        {
          "indexed": false,
          "internalType": "uint256",
          "name": "_timestamp",
          "type": "uint256"
        }
      ],
      "name": "EthDepositMade",
      "type": "event"
    },
    {
      "anonymous": false,
      "inputs": [
        {
          "indexed": false,
          "internalType": "address",
          "name": "_depositor",
          "type": "address"
        },
        {
          "indexed": false,
          "internalType": "uint256",
          "name": "_depositorAccount",
          "type": "uint256"
        },
        {
          "indexed": false,
          "internalType": "address",
          "name": "_receiver",
          "type": "address"
        },
        {
          "indexed": false,
          "internalType": "uint256",
          "name": "_receiverAccount",
          "type": "uint256"
        },
        {
          "indexed": false,
          "internalType": "uint256",
          "name": "_amount",
          "type": "uint256"
        },
        {
          "indexed": false,
          "internalType": "uint256",
          "name": "_timestamp",
          "type": "uint256"
        }
      ],
      "name": "EthTransferMade",
      "type": "event"
    },
    {
      "anonymous": false,
      "inputs": [
        {
          "indexed": false,
          "internalType": "address",
          "name": "_withdrawer",
          "type": "address"
        },
        {
          "indexed": false,
          "internalType": "address",
          "name": "_owner",
          "type": "address"
        },
        {
          "indexed": false,
          "internalType": "uint256",
          "name": "_accountNumber",
          "type": "uint256"
        },
        {
          "indexed": false,
          "internalType": "uint256",
          "name": "_amount",
          "type": "uint256"
        },
        {
          "indexed": false,
          "internalType": "uint256",
          "name": "_timestamp",
          "type": "uint256"
        }
      ],
      "name": "EthWithdrawMade",
      "type": "event"
    },
    {
      "anonymous": false,
      "inputs": [
        {
          "indexed": true,
          "internalType": "address",
          "name": "previousOwner",
          "type": "address"
        },
        {
          "indexed": true,
          "internalType": "address",
          "name": "newOwner",
          "type": "address"
        }
      ],
      "name": "OwnershipTransferred",
      "type": "event"
    },
    {
      "inputs": [
        {
          "internalType": "string",
          "name": "name",
          "type": "string"
        },
        {
          "internalType": "uint32",
          "name": "decimal",
          "type": "uint32"
        },
        {
          "internalType": "string",
          "name": "symbol",
          "type": "string"
        },
        {
          "internalType": "string",
          "name": "icon",
          "type": "string"
        },
        {
          "internalType": "address",
          "name": "token",
          "type": "address"
        },
        {
          "internalType": "address",
          "name": "cToken",
          "type": "address"
        }
      ],
      "name": "addRelaventAtoken",
      "outputs": [],
      "stateMutability": "nonpayable",
      "type": "function"
    },
    {
      "inputs": [
        {
          "internalType": "string",
          "name": "_name",
          "type": "string"
        },
        {
          "internalType": "string",
          "name": "_metadata",
          "type": "string"
        }
      ],
      "name": "createAccount",
      "outputs": [],
      "stateMutability": "nonpayable",
      "type": "function"
    },
    {
      "inputs": [
        {
          "internalType": "address",
          "name": "_owner",
          "type": "address"
        },
        {
          "internalType": "uint256",
          "name": "_accountNumber",
          "type": "uint256"
        },
        {
          "internalType": "uint256",
          "name": "amount",
          "type": "uint256"
        },
        {
          "internalType": "address",
          "name": "currency",
          "type": "address"
        }
      ],
      "name": "depositERC20IntoAccount",
      "outputs": [],
      "stateMutability": "payable",
      "type": "function"
    },
    {
      "inputs": [
        {
          "internalType": "address",
          "name": "_owner",
          "type": "address"
        },
        {
          "internalType": "uint256",
          "name": "_accountNumber",
          "type": "uint256"
        },
        {
          "internalType": "uint256",
          "name": "_amount",
          "type": "uint256"
        }
      ],
      "name": "depositIntoAccount",
      "outputs": [],
      "stateMutability": "payable",
      "type": "function"
    },
    {
      "inputs": [
        {
          "internalType": "address",
          "name": "_owner",
          "type": "address"
        },
        {
          "internalType": "uint256",
          "name": "_accountNumber",
          "type": "uint256"
        }
      ],
      "name": "getAccountDetails",
      "outputs": [
        {
          "components": [
            {
              "internalType": "uint256",
              "name": "accountNumber",
              "type": "uint256"
            },
            {
              "internalType": "string",
              "name": "metadata",
              "type": "string"
            }
          ],
          "internalType": "struct NeobankPolygon.Account",
          "name": "",
          "type": "tuple"
        }
      ],
      "stateMutability": "view",
      "type": "function"
    },
    {
      "inputs": [],
      "name": "getContractBalance",
      "outputs": [
        {
          "internalType": "uint256",
          "name": "",
          "type": "uint256"
        }
      ],
      "stateMutability": "view",
      "type": "function"
    },
    {
      "inputs": [
        {
          "internalType": "uint256",
          "name": "_accountNumber",
          "type": "uint256"
        },
        {
          "internalType": "address",
          "name": "currency",
          "type": "address"
        }
      ],
      "name": "getERC20Balance",
      "outputs": [
        {
          "internalType": "uint256",
          "name": "",
          "type": "uint256"
        }
      ],
      "stateMutability": "view",
      "type": "function"
    },
    {
      "inputs": [
        {
          "internalType": "uint256",
          "name": "_accountNumber",
          "type": "uint256"
        },
        {
          "internalType": "address",
          "name": "erc20Token",
          "type": "address"
        }
      ],
      "name": "getERC20BalanceWithInterest",
      "outputs": [
        {
          "internalType": "uint256",
          "name": "",
          "type": "uint256"
        }
      ],
      "stateMutability": "view",
      "type": "function"
    },
    {
      "inputs": [
        {
          "internalType": "uint256",
          "name": "_accountNumber",
          "type": "uint256"
        }
      ],
      "name": "getEthBalance",
      "outputs": [
        {
          "internalType": "uint256",
          "name": "",
          "type": "uint256"
        }
      ],
      "stateMutability": "view",
      "type": "function"
    },
    {
      "inputs": [
        {
          "internalType": "uint256",
          "name": "_accountNumber",
          "type": "uint256"
        }
      ],
      "name": "getEthBalanceWithInterest",
      "outputs": [
        {
          "internalType": "uint256",
          "name": "",
          "type": "uint256"
        }
      ],
      "stateMutability": "view",
      "type": "function"
    },
    {
      "inputs": [
        {
          "internalType": "address",
          "name": "token",
          "type": "address"
        }
      ],
      "name": "getRelaventAToken",
      "outputs": [
        {
          "internalType": "address",
          "name": "",
          "type": "address"
        }
      ],
      "stateMutability": "view",
      "type": "function"
    },
    {
      "inputs": [
        {
          "internalType": "address",
          "name": "_erc20Token",
          "type": "address"
        }
      ],
      "name": "getTotalErc20Balance",
      "outputs": [
        {
          "internalType": "uint256",
          "name": "",
          "type": "uint256"
        }
      ],
      "stateMutability": "view",
      "type": "function"
    },
    {
      "inputs": [],
      "name": "getTotalEthBalance",
      "outputs": [
        {
          "internalType": "uint256",
          "name": "",
          "type": "uint256"
        }
      ],
      "stateMutability": "view",
      "type": "function"
    },
    {
      "inputs": [],
      "name": "myAccounts",
      "outputs": [
        {
          "components": [
            {
              "internalType": "uint256",
              "name": "accountNumber",
              "type": "uint256"
            },
            {
              "internalType": "string",
              "name": "metadata",
              "type": "string"
            }
          ],
          "internalType": "struct NeobankPolygon.Account[]",
          "name": "",
          "type": "tuple[]"
        }
      ],
      "stateMutability": "view",
      "type": "function"
    },
    {
      "inputs": [],
      "name": "owner",
      "outputs": [
        {
          "internalType": "address",
          "name": "",
          "type": "address"
        }
      ],
      "stateMutability": "view",
      "type": "function"
    },
    {
      "inputs": [],
      "name": "renounceOwnership",
      "outputs": [],
      "stateMutability": "nonpayable",
      "type": "function"
    },
    {
      "inputs": [
        {
          "internalType": "address",
          "name": "newOwner",
          "type": "address"
        }
      ],
      "name": "transferOwnership",
      "outputs": [],
      "stateMutability": "nonpayable",
      "type": "function"
    },
    {
      "inputs": [
        {
          "internalType": "uint256",
          "name": "amountRequested",
          "type": "uint256"
        },
        {
          "internalType": "uint256",
          "name": "_accountNumber",
          "type": "uint256"
        },
        {
          "internalType": "address",
          "name": "_erc20Token",
          "type": "address"
        }
      ],
      "name": "withdrawAmountErc20",
      "outputs": [],
      "stateMutability": "nonpayable",
      "type": "function"
    },
    {
      "inputs": [
        {
          "internalType": "uint256",
          "name": "amountRequested",
          "type": "uint256"
        },
        {
          "internalType": "uint256",
          "name": "_accountNumber",
          "type": "uint256"
        }
      ],
      "name": "withdrawAmountEth",
      "outputs": [],
      "stateMutability": "nonpayable",
      "type": "function"
    },
    {
      "inputs": [
        {
          "internalType": "uint256",
          "name": "_accountNumber",
          "type": "uint256"
        }
      ],
      "name": "withdrawMaxEth",
      "outputs": [],
      "stateMutability": "nonpayable",
      "type": "function"
    },
    {
      "stateMutability": "payable",
      "type": "receive"
    }
  ],
  "bytecode": "0x608060405273178113104fecbcd7ff8669a0150721e231f0fd4b600360006101000a81548173ffffffffffffffffffffffffffffffffffffffff021916908373ffffffffffffffffffffffffffffffffffffffff16021790555073ee9ee614ad26963bec1bec0d2c92879ae1f209fa600460006101000a81548173ffffffffffffffffffffffffffffffffffffffff021916908373ffffffffffffffffffffffffffffffffffffffff16021790555073f45444171435d0acb08a8af493837ef18e86ee27600560006101000a81548173ffffffffffffffffffffffffffffffffffffffff021916908373ffffffffffffffffffffffffffffffffffffffff1602179055506000600655600a600855600854600a6200011e919062000667565b6009553480156200012e57600080fd5b506200014f620001436200054060201b60201c565b6200054860201b60201c565b6001808190555073af50a5a6af87418dac1f28f9797ceb3bfb62750a600260007360b10c134088ebd63f80766874e2cade05fc987b73ffffffffffffffffffffffffffffffffffffffff1673ffffffffffffffffffffffffffffffffffffffff16815260200190815260200160002060006101000a81548173ffffffffffffffffffffffffffffffffffffffff021916908373ffffffffffffffffffffffffffffffffffffffff16021790555073bc689667c13fb2a04f09272753760e38a95b998c6002600073ad6d458402f60fd3bd25163575031acdce07538d73ffffffffffffffffffffffffffffffffffffffff1673ffffffffffffffffffffffffffffffffffffffff16815260200190815260200160002060006101000a81548173ffffffffffffffffffffffffffffffffffffffff021916908373ffffffffffffffffffffffffffffffffffffffff1602179055507365280b21167bbd059221488b7cbe759f9fb18bb56002600073c8f88977e21630cf93c02d02d9e8812ff0dfc37a73ffffffffffffffffffffffffffffffffffffffff1673ffffffffffffffffffffffffffffffffffffffff16815260200190815260200160002060006101000a81548173ffffffffffffffffffffffffffffffffffffffff021916908373ffffffffffffffffffffffffffffffffffffffff16021790555073541c9cb0e97b77f142684cc33e8ac9ac17b1990f600260007365058d7081fcdc3cd8727dbb7f8f9d52cefdd29173ffffffffffffffffffffffffffffffffffffffff1673ffffffffffffffffffffffffffffffffffffffff16815260200190815260200160002060006101000a81548173ffffffffffffffffffffffffffffffffffffffff021916908373ffffffffffffffffffffffffffffffffffffffff160217905550732973e69b20563bcc66dc63bde153072c33ef37fe6002600073fe724a829fdf12f7012365db98730eee33742ea273ffffffffffffffffffffffffffffffffffffffff1673ffffffffffffffffffffffffffffffffffffffff16815260200190815260200160002060006101000a81548173ffffffffffffffffffffffffffffffffffffffff021916908373ffffffffffffffffffffffffffffffffffffffff16021790555073f6958cf3127e62d3eb26c79f4f45d3f3b2ccded460026000736ee856ae55b6e1a249f04cd3b947141bc146273c73ffffffffffffffffffffffffffffffffffffffff1673ffffffffffffffffffffffffffffffffffffffff16815260200190815260200160002060006101000a81548173ffffffffffffffffffffffffffffffffffffffff021916908373ffffffffffffffffffffffffffffffffffffffff160217905550620007ea565b600033905090565b60008060009054906101000a900473ffffffffffffffffffffffffffffffffffffffff169050816000806101000a81548173ffffffffffffffffffffffffffffffffffffffff021916908373ffffffffffffffffffffffffffffffffffffffff1602179055508173ffffffffffffffffffffffffffffffffffffffff168173ffffffffffffffffffffffffffffffffffffffff167f8be0079c531659141344cd1fd0a4f28419497f9722a3daafe3b4186f6b6457e060405160405180910390a35050565b6000808291508390505b60018511156200065e57808604811115620006365762000635620007ae565b5b6001851615620006465780820291505b80810290506200065685620007dd565b945062000616565b94509492505050565b60006200067482620007a4565b91506200068183620007a4565b9250620006b07fffffffffffffffffffffffffffffffffffffffffffffffffffffffffffffffff8484620006b8565b905092915050565b600082620006ca57600190506200079d565b81620006da57600090506200079d565b8160018114620006f35760028114620006fe5762000734565b60019150506200079d565b60ff841115620007135762000712620007ae565b5b8360020a9150848211156200072d576200072c620007ae565b5b506200079d565b5060208310610133831016604e8410600b84101617156200076e5782820a905083811115620007685762000767620007ae565b5b6200079d565b6200077d84848460016200060c565b92509050818404811115620007975762000796620007ae565b5b81810290505b9392505050565b6000819050919050565b7f4e487b7100000000000000000000000000000000000000000000000000000000600052601160045260246000fd5b60008160011c9050919050565b613de280620007fa6000396000f3fe6080604052600436106101235760003560e01c8063715018a6116100a0578063cc308d7411610064578063cc308d74146103ea578063cc8e544614610413578063ef26bd551461043c578063f1e29e0814610465578063f2fde38b146104a25761012a565b8063715018a61461031257806375e738b3146103295780638da5cb5b146103665780639cd488e014610391578063c9a21ae6146103ce5761012a565b806339dc5445116100e757806339dc54451461023a5780633e89c72314610263578063443562af1461028e5780635475d2fb146102aa5780636f9fb98a146102e75761012a565b8063192892871461012f5780631ab74062146101585780632366159414610195578063287cc96b146101d257806338cfb249146101fd5761012a565b3661012a57005b600080fd5b34801561013b57600080fd5b5061015660048036038101906101519190612d41565b6104cb565b005b34801561016457600080fd5b5061017f600480360381019061017a9190612c2a565b61059c565b60405161018c9190613682565b60405180910390f35b3480156101a157600080fd5b506101bc60048036038101906101b79190612bd8565b61079c565b6040516101c99190613316565b60405180910390f35b3480156101de57600080fd5b506101e7610805565b6040516101f491906136a4565b60405180910390f35b34801561020957600080fd5b50610224600480360381019061021f9190612bd8565b6108b7565b60405161023191906136a4565b60405180910390f35b34801561024657600080fd5b50610261600480360381019061025c9190612f48565b6109f1565b005b34801561026f57600080fd5b50610278611071565b60405161028591906134ea565b60405180910390f35b6102a860048036038101906102a39190612c66565b6111a9565b005b3480156102b657600080fd5b506102d160048036038101906102cc9190612e7e565b611590565b6040516102de91906136a4565b60405180910390f35b3480156102f357600080fd5b506102fc61167a565b60405161030991906136a4565b60405180910390f35b34801561031e57600080fd5b50610327611684565b005b34801561033557600080fd5b50610350600480360381019061034b9190612ed0565b61170c565b60405161035d91906136a4565b60405180910390f35b34801561037257600080fd5b5061037b611767565b6040516103889190613316565b60405180910390f35b34801561039d57600080fd5b506103b860048036038101906103b39190612e7e565b611790565b6040516103c591906136a4565b60405180910390f35b6103e860048036038101906103e39190612cb5565b6117ad565b005b3480156103f657600080fd5b50610411600480360381019061040c9190612f0c565b611c24565b005b34801561041f57600080fd5b5061043a60048036038101906104359190612dad565b6121c0565b005b34801561044857600080fd5b50610463600480360381019061045e9190612e7e565b612303565b005b34801561047157600080fd5b5061048c60048036038101906104879190612ed0565b6126c7565b60405161049991906136a4565b60405180910390f35b3480156104ae57600080fd5b506104c960048036038101906104c49190612bd8565b612828565b005b60006104d683612920565b9050600a60003373ffffffffffffffffffffffffffffffffffffffff1673ffffffffffffffffffffffffffffffffffffffff168152602001908152602001600020604051806040016040528083815260200184815250908060018154018082558091505060019003906000526020600020906002020160009091909190915060008201518160000155602082015181600101908051906020019061057b929190612a35565b5050506000600b600083815260200190815260200160002081905550505050565b6105a4612abb565b6000600a60008573ffffffffffffffffffffffffffffffffffffffff1673ffffffffffffffffffffffffffffffffffffffff168152602001908152602001600020805480602002602001604051908101604052809291908181526020016000905b828210156106d35783829060005260206000209060020201604051806040016040529081600082015481526020016001820180546106429061398b565b80601f016020809104026020016040519081016040528092919081815260200182805461066e9061398b565b80156106bb5780601f10610690576101008083540402835291602001916106bb565b820191906000526020600020905b81548152906001019060200180831161069e57829003601f168201915b50505050508152505081526020019060010190610605565b5050505090506106e1612abb565b60005b82518110156107905784838281518110610727577f4e487b7100000000000000000000000000000000000000000000000000000000600052603260045260246000fd5b602002602001015160000151141561077d57828181518110610772577f4e487b7100000000000000000000000000000000000000000000000000000000600052603260045260246000fd5b602002602001015191505b8080610788906139ee565b9150506106e4565b50809250505092915050565b6000600260008373ffffffffffffffffffffffffffffffffffffffff1673ffffffffffffffffffffffffffffffffffffffff16815260200190815260200160002060009054906101000a900473ffffffffffffffffffffffffffffffffffffffff169050919050565b6000600560009054906101000a900473ffffffffffffffffffffffffffffffffffffffff1673ffffffffffffffffffffffffffffffffffffffff16631da24f3e306040518263ffffffff1660e01b81526004016108629190613316565b60206040518083038186803b15801561087a57600080fd5b505afa15801561088e573d6000803e3d6000fd5b505050506040513d601f19601f820116820180604052508101906108b29190612ea7565b905090565b6000806108c38361079c565b9050670de0b6b3a76400008173ffffffffffffffffffffffffffffffffffffffff1663182df0f56040518163ffffffff1660e01b815260040160206040518083038186803b15801561091457600080fd5b505afa158015610928573d6000803e3d6000fd5b505050506040513d601f19601f8201168201806040525081019061094c9190612ea7565b8273ffffffffffffffffffffffffffffffffffffffff166370a08231306040518263ffffffff1660e01b81526004016109859190613316565b60206040518083038186803b15801561099d57600080fd5b505afa1580156109b1573d6000803e3d6000fd5b505050506040513d601f19601f820116820180604052508101906109d59190612ea7565b6109df919061380d565b6109e991906137dc565b915050919050565b60026001541415610a37576040517f08c379a0000000000000000000000000000000000000000000000000000000008152600401610a2e90613622565b60405180910390fd5b6002600181905550600080600085905060008490506000600360009054906101000a900473ffffffffffffffffffffffffffffffffffffffff1673ffffffffffffffffffffffffffffffffffffffff16630261bf8b6040518163ffffffff1660e01b815260040160206040518083038186803b158015610ab657600080fd5b505afa158015610aca573d6000803e3d6000fd5b505050506040513d601f19601f82011682018060405250810190610aee9190612c01565b905060008190506000610b008861079c565b905060005b600a60003373ffffffffffffffffffffffffffffffffffffffff1673ffffffffffffffffffffffffffffffffffffffff16815260200190815260200160002080549050811015610bfa5789600a60003373ffffffffffffffffffffffffffffffffffffffff1673ffffffffffffffffffffffffffffffffffffffff1681526020019081526020016000208281548110610bc7577f4e487b7100000000000000000000000000000000000000000000000000000000600052603260045260246000fd5b9060005260206000209060020201600001541415610be757809750600196505b8080610bf2906139ee565b915050610b05565b508515610c3c576040517f08c379a0000000000000000000000000000000000000000000000000000000008152600401610c3390613662565b60405180910390fd5b610c4e89610c498a61079c565b6126c7565b8a1115610c90576040517f08c379a0000000000000000000000000000000000000000000000000000000008152600401610c87906135c2565b60405180910390fd5b600033905060008273ffffffffffffffffffffffffffffffffffffffff166370a08231306040518263ffffffff1660e01b8152600401610cd09190613316565b60206040518083038186803b158015610ce857600080fd5b505afa158015610cfc573d6000803e3d6000fd5b505050506040513d601f19601f82011682018060405250810190610d209190612ea7565b90508373ffffffffffffffffffffffffffffffffffffffff166369328dec610d478c61079c565b8e306040518463ffffffff1660e01b8152600401610d679392919061346e565b602060405180830381600087803b158015610d8157600080fd5b505af1158015610d95573d6000803e3d6000fd5b505050506040513d601f19601f82011682018060405250810190610db99190612ea7565b5060008373ffffffffffffffffffffffffffffffffffffffff166370a08231306040518263ffffffff1660e01b8152600401610df59190613316565b60206040518083038186803b158015610e0d57600080fd5b505afa158015610e21573d6000803e3d6000fd5b505050506040513d601f19601f82011682018060405250810190610e459190612ea7565b905060008282610e559190613867565b90508060076000610e658f61079c565b73ffffffffffffffffffffffffffffffffffffffff1673ffffffffffffffffffffffffffffffffffffffff1681526020019081526020016000206000828254610eae9190613867565b9250508190555080600e60008f81526020019081526020016000206000610ed48f61079c565b73ffffffffffffffffffffffffffffffffffffffff1673ffffffffffffffffffffffffffffffffffffffff1681526020019081526020016000206000828254610f1d9190613867565b925050819055508d600d60008f815260200190815260200160002060008e73ffffffffffffffffffffffffffffffffffffffff1673ffffffffffffffffffffffffffffffffffffffff1681526020019081526020016000206000828254610f849190613867565b925050819055508773ffffffffffffffffffffffffffffffffffffffff1663a9059cbb858b6040518363ffffffff1660e01b8152600401610fc6929190613331565b602060405180830381600087803b158015610fe057600080fd5b505af1158015610ff4573d6000803e3d6000fd5b505050506040513d601f19601f820116820180604052508101906110189190612d18565b507f8fb4891d307727b93beb160470a693b397cf751c1fdd9717dddbe9717c98ecf833338f8f8d4260405161105296959493929190613391565b60405180910390a1505050505050505050505060018081905550505050565b6060600a60003373ffffffffffffffffffffffffffffffffffffffff1673ffffffffffffffffffffffffffffffffffffffff168152602001908152602001600020805480602002602001604051908101604052809291908181526020016000905b828210156111a057838290600052602060002090600202016040518060400160405290816000820154815260200160018201805461110f9061398b565b80601f016020809104026020016040519081016040528092919081815260200182805461113b9061398b565b80156111885780601f1061115d57610100808354040283529160200191611188565b820191906000526020600020905b81548152906001019060200180831161116b57829003601f168201915b505050505081525050815260200190600101906110d2565b50505050905090565b6000600360009054906101000a900473ffffffffffffffffffffffffffffffffffffffff1673ffffffffffffffffffffffffffffffffffffffff16630261bf8b6040518163ffffffff1660e01b815260040160206040518083038186803b15801561121357600080fd5b505afa158015611227573d6000803e3d6000fd5b505050506040513d601f19601f8201168201806040525081019061124b9190612c01565b905081341015611290576040517f08c379a000000000000000000000000000000000000000000000000000000000815260040161128790613642565b60405180910390fd5b662386f26fc100003410156112da576040517f08c379a00000000000000000000000000000000000000000000000000000000081526004016112d1906135e2565b60405180910390fd5b6000600560009054906101000a900473ffffffffffffffffffffffffffffffffffffffff1673ffffffffffffffffffffffffffffffffffffffff166370a08231306040518263ffffffff1660e01b81526004016113379190613316565b60206040518083038186803b15801561134f57600080fd5b505afa158015611363573d6000803e3d6000fd5b505050506040513d601f19601f820116820180604052508101906113879190612ea7565b9050600460009054906101000a900473ffffffffffffffffffffffffffffffffffffffff1673ffffffffffffffffffffffffffffffffffffffff1663474cf53d34843060006040518563ffffffff1660e01b81526004016113ea9392919061335a565b6000604051808303818588803b15801561140357600080fd5b505af1158015611417573d6000803e3d6000fd5b50505050506000600560009054906101000a900473ffffffffffffffffffffffffffffffffffffffff1673ffffffffffffffffffffffffffffffffffffffff166370a08231306040518263ffffffff1660e01b81526004016114799190613316565b60206040518083038186803b15801561149157600080fd5b505afa1580156114a5573d6000803e3d6000fd5b505050506040513d601f19601f820116820180604052508101906114c99190612ea7565b9050600082826114d99190613867565b905034600b600088815260200190815260200160002060008282546114fe9190613786565b9250508190555080600c600088815260200190815260200160002060008282546115289190613786565b9250508190555034600660008282546115419190613786565b925050819055507f3a8bced2b6a24c6a3e626f96aed9eb7f6236aa50d35c9bb99738d6b3c024f3fe338888344260405161157f9594939291906133f2565b60405180910390a150505050505050565b600080600560009054906101000a900473ffffffffffffffffffffffffffffffffffffffff1673ffffffffffffffffffffffffffffffffffffffff16631da24f3e306040518263ffffffff1660e01b81526004016115ee9190613316565b60206040518083038186803b15801561160657600080fd5b505afa15801561161a573d6000803e3d6000fd5b505050506040513d601f19601f8201168201806040525081019061163e9190612ea7565b905060006006548261165091906137dc565b905080600c600086815260200190815260200160002054611671919061380d565b92505050919050565b6000600654905090565b61168c612969565b73ffffffffffffffffffffffffffffffffffffffff166116aa611767565b73ffffffffffffffffffffffffffffffffffffffff1614611700576040517f08c379a00000000000000000000000000000000000000000000000000000000081526004016116f7906135a2565b60405180910390fd5b61170a6000612971565b565b6000600d600084815260200190815260200160002060008373ffffffffffffffffffffffffffffffffffffffff1673ffffffffffffffffffffffffffffffffffffffff16815260200190815260200160002054905092915050565b60008060009054906101000a900473ffffffffffffffffffffffffffffffffffffffff16905090565b6000600b6000838152602001908152602001600020549050919050565b60006117b88261079c565b905060008290506000600360009054906101000a900473ffffffffffffffffffffffffffffffffffffffff1673ffffffffffffffffffffffffffffffffffffffff16630261bf8b6040518163ffffffff1660e01b815260040160206040518083038186803b15801561182957600080fd5b505afa15801561183d573d6000803e3d6000fd5b505050506040513d601f19601f820116820180604052508101906118619190612c01565b9050600081905060008473ffffffffffffffffffffffffffffffffffffffff166370a08231306040518263ffffffff1660e01b81526004016118a39190613316565b60206040518083038186803b1580156118bb57600080fd5b505afa1580156118cf573d6000803e3d6000fd5b505050506040513d601f19601f820116820180604052508101906118f39190612ea7565b90508373ffffffffffffffffffffffffffffffffffffffff1663095ea7b361191a8861079c565b896040518363ffffffff1660e01b8152600401611938929190613445565b602060405180830381600087803b15801561195257600080fd5b505af1158015611966573d6000803e3d6000fd5b505050506040513d601f19601f8201168201806040525081019061198a9190612d18565b508173ffffffffffffffffffffffffffffffffffffffff1663e8eda9df6119b08861079c565b893060006040518563ffffffff1660e01b81526004016119d394939291906134a5565b600060405180830381600087803b1580156119ed57600080fd5b505af1158015611a01573d6000803e3d6000fd5b5050505060008573ffffffffffffffffffffffffffffffffffffffff166370a08231306040518263ffffffff1660e01b8152600401611a409190613316565b60206040518083038186803b158015611a5857600080fd5b505afa158015611a6c573d6000803e3d6000fd5b505050506040513d601f19601f82011682018060405250810190611a909190612ea7565b905060008282611aa09190613867565b905088600d60008c815260200190815260200160002060008a73ffffffffffffffffffffffffffffffffffffffff1673ffffffffffffffffffffffffffffffffffffffff1681526020019081526020016000206000828254611b029190613786565b9250508190555080600e60008c81526020019081526020016000206000611b288b61079c565b73ffffffffffffffffffffffffffffffffffffffff1673ffffffffffffffffffffffffffffffffffffffff1681526020019081526020016000206000828254611b719190613786565b925050819055508860076000611b868b61079c565b73ffffffffffffffffffffffffffffffffffffffff1673ffffffffffffffffffffffffffffffffffffffff1681526020019081526020016000206000828254611bcf9190613786565b925050819055507f8fb4891d307727b93beb160470a693b397cf751c1fdd9717dddbe9717c98ecf8338c8c8b8d42604051611c0f96959493929190613391565b60405180910390a15050505050505050505050565b60026001541415611c6a576040517f08c379a0000000000000000000000000000000000000000000000000000000008152600401611c6190613622565b60405180910390fd5b60026001819055506000806000600360009054906101000a900473ffffffffffffffffffffffffffffffffffffffff1673ffffffffffffffffffffffffffffffffffffffff16630261bf8b6040518163ffffffff1660e01b815260040160206040518083038186803b158015611cdf57600080fd5b505afa158015611cf3573d6000803e3d6000fd5b505050506040513d601f19601f82011682018060405250810190611d179190612c01565b9050600081905060005b600a60003373ffffffffffffffffffffffffffffffffffffffff1673ffffffffffffffffffffffffffffffffffffffff16815260200190815260200160002080549050811015611e165785600a60003373ffffffffffffffffffffffffffffffffffffffff1673ffffffffffffffffffffffffffffffffffffffff1681526020019081526020016000208281548110611de3577f4e487b7100000000000000000000000000000000000000000000000000000000600052603260045260246000fd5b9060005260206000209060020201600001541415611e0357809450600193505b8080611e0e906139ee565b915050611d21565b508215611e58576040517f08c379a0000000000000000000000000000000000000000000000000000000008152600401611e4f90613662565b60405180910390fd5b611e6185611590565b861115611ea3576040517f08c379a0000000000000000000000000000000000000000000000000000000008152600401611e9a90613602565b60405180910390fd5b60003390506000600560009054906101000a900473ffffffffffffffffffffffffffffffffffffffff1673ffffffffffffffffffffffffffffffffffffffff166370a08231306040518263ffffffff1660e01b8152600401611f059190613316565b60206040518083038186803b158015611f1d57600080fd5b505afa158015611f31573d6000803e3d6000fd5b505050506040513d601f19601f82011682018060405250810190611f559190612ea7565b90508273ffffffffffffffffffffffffffffffffffffffff166369328dec73f45444171435d0acb08a8af493837ef18e86ee278a306040518463ffffffff1660e01b8152600401611fa89392919061346e565b602060405180830381600087803b158015611fc257600080fd5b505af1158015611fd6573d6000803e3d6000fd5b505050506040513d601f19601f82011682018060405250810190611ffa9190612ea7565b506000600560009054906101000a900473ffffffffffffffffffffffffffffffffffffffff1673ffffffffffffffffffffffffffffffffffffffff166370a08231306040518263ffffffff1660e01b81526004016120589190613316565b60206040518083038186803b15801561207057600080fd5b505afa158015612084573d6000803e3d6000fd5b505050506040513d601f19601f820116820180604052508101906120a89190612ea7565b9050600082826120b89190613867565b905080600660008282546120cc9190613867565b9250508190555080600c60008b815260200190815260200160002060008282546120f69190613867565b9250508190555089600b60008b815260200190815260200160002060008282546121209190613867565b925050819055508373ffffffffffffffffffffffffffffffffffffffff166108fc8b9081150290604051600060405180830381858888f1935050505015801561216d573d6000803e3d6000fd5b507fd457fe9a0ba100b8f82984e03f42fd46de0f4f9544e7eb7ef688e971b540ed0a33338b8d426040516121a59594939291906133f2565b60405180910390a15050505050505050600180819055505050565b6121c8612969565b73ffffffffffffffffffffffffffffffffffffffff166121e6611767565b73ffffffffffffffffffffffffffffffffffffffff161461223c576040517f08c379a0000000000000000000000000000000000000000000000000000000008152600401612233906135a2565b60405180910390fd5b80600260008473ffffffffffffffffffffffffffffffffffffffff1673ffffffffffffffffffffffffffffffffffffffff16815260200190815260200160002060006101000a81548173ffffffffffffffffffffffffffffffffffffffff021916908373ffffffffffffffffffffffffffffffffffffffff1602179055507fd112e3eb6ed07089d06c81995c5730b6b7de8a0dcaceee6e7d3be0bcebe7e18b8686868686866040516122f39695949392919061350c565b60405180910390a1505050505050565b60026001541415612349576040517f08c379a000000000000000000000000000000000000000000000000000000000815260040161234090613622565b60405180910390fd5b600260018190555060008060005b600a60003373ffffffffffffffffffffffffffffffffffffffff1673ffffffffffffffffffffffffffffffffffffffff1681526020019081526020016000208054905081101561244c5783600a60003373ffffffffffffffffffffffffffffffffffffffff1673ffffffffffffffffffffffffffffffffffffffff1681526020019081526020016000208281548110612419577f4e487b7100000000000000000000000000000000000000000000000000000000600052603260045260246000fd5b906000526020600020906002020160000154141561243957809250600191505b8080612444906139ee565b915050612357565b508061248d576040517f08c379a000000000000000000000000000000000000000000000000000000000815260040161248490613662565b60405180910390fd5b6000600360009054906101000a900473ffffffffffffffffffffffffffffffffffffffff1673ffffffffffffffffffffffffffffffffffffffff16630261bf8b6040518163ffffffff1660e01b815260040160206040518083038186803b1580156124f757600080fd5b505afa15801561250b573d6000803e3d6000fd5b505050506040513d601f19601f8201168201806040525081019061252f9190612c01565b9050600081905060003390508173ffffffffffffffffffffffffffffffffffffffff166369328dec73f45444171435d0acb08a8af493837ef18e86ee27600c60008a815260200190815260200160002054306040518463ffffffff1660e01b815260040161259f9392919061346e565b602060405180830381600087803b1580156125b957600080fd5b505af11580156125cd573d6000803e3d6000fd5b505050506040513d601f19601f820116820180604052508101906125f19190612ea7565b5060006125fd87611590565b90506000600c6000898152602001908152602001600020819055506000600b6000898152602001908152602001600020819055508173ffffffffffffffffffffffffffffffffffffffff166108fc829081150290604051600060405180830381858888f19350505050158015612677573d6000803e3d6000fd5b507fd457fe9a0ba100b8f82984e03f42fd46de0f4f9544e7eb7ef688e971b540ed0a33338984426040516126af9594939291906133f2565b60405180910390a15050505050506001808190555050565b6000806126d38361079c565b905060008173ffffffffffffffffffffffffffffffffffffffff16631da24f3e306040518263ffffffff1660e01b81526004016127109190613316565b60206040518083038186803b15801561272857600080fd5b505afa15801561273c573d6000803e3d6000fd5b505050506040513d601f19601f820116820180604052508101906127609190612ea7565b90506000600760006127718761079c565b73ffffffffffffffffffffffffffffffffffffffff1673ffffffffffffffffffffffffffffffffffffffff16815260200190815260200160002054826127b791906137dc565b905080600e600088815260200190815260200160002060006127d88861079c565b73ffffffffffffffffffffffffffffffffffffffff1673ffffffffffffffffffffffffffffffffffffffff1681526020019081526020016000205461281d91906137dc565b935050505092915050565b612830612969565b73ffffffffffffffffffffffffffffffffffffffff1661284e611767565b73ffffffffffffffffffffffffffffffffffffffff16146128a4576040517f08c379a000000000000000000000000000000000000000000000000000000000815260040161289b906135a2565b60405180910390fd5b600073ffffffffffffffffffffffffffffffffffffffff168173ffffffffffffffffffffffffffffffffffffffff161415612914576040517f08c379a000000000000000000000000000000000000000000000000000000000815260040161290b90613582565b60405180910390fd5b61291d81612971565b50565b600080338342604051602001612938939291906132dd565b6040516020818303038152906040528051906020012060001c9050600954816129619190613a65565b915050919050565b600033905090565b60008060009054906101000a900473ffffffffffffffffffffffffffffffffffffffff169050816000806101000a81548173ffffffffffffffffffffffffffffffffffffffff021916908373ffffffffffffffffffffffffffffffffffffffff1602179055508173ffffffffffffffffffffffffffffffffffffffff168173ffffffffffffffffffffffffffffffffffffffff167f8be0079c531659141344cd1fd0a4f28419497f9722a3daafe3b4186f6b6457e060405160405180910390a35050565b828054612a419061398b565b90600052602060002090601f016020900481019282612a635760008555612aaa565b82601f10612a7c57805160ff1916838001178555612aaa565b82800160010185558215612aaa579182015b82811115612aa9578251825591602001919060010190612a8e565b5b509050612ab79190612ad5565b5090565b604051806040016040528060008152602001606081525090565b5b80821115612aee576000816000905550600101612ad6565b5090565b6000612b05612b00846136e4565b6136bf565b905082815260208101848484011115612b1d57600080fd5b612b28848285613949565b509392505050565b600081359050612b3f81613d50565b92915050565b600081519050612b5481613d50565b92915050565b600081519050612b6981613d67565b92915050565b600082601f830112612b8057600080fd5b8135612b90848260208601612af2565b91505092915050565b600081359050612ba881613d7e565b92915050565b600081519050612bbd81613d7e565b92915050565b600081359050612bd281613d95565b92915050565b600060208284031215612bea57600080fd5b6000612bf884828501612b30565b91505092915050565b600060208284031215612c1357600080fd5b6000612c2184828501612b45565b91505092915050565b60008060408385031215612c3d57600080fd5b6000612c4b85828601612b30565b9250506020612c5c85828601612b99565b9150509250929050565b600080600060608486031215612c7b57600080fd5b6000612c8986828701612b30565b9350506020612c9a86828701612b99565b9250506040612cab86828701612b99565b9150509250925092565b60008060008060808587031215612ccb57600080fd5b6000612cd987828801612b30565b9450506020612cea87828801612b99565b9350506040612cfb87828801612b99565b9250506060612d0c87828801612b30565b91505092959194509250565b600060208284031215612d2a57600080fd5b6000612d3884828501612b5a565b91505092915050565b60008060408385031215612d5457600080fd5b600083013567ffffffffffffffff811115612d6e57600080fd5b612d7a85828601612b6f565b925050602083013567ffffffffffffffff811115612d9757600080fd5b612da385828601612b6f565b9150509250929050565b60008060008060008060c08789031215612dc657600080fd5b600087013567ffffffffffffffff811115612de057600080fd5b612dec89828a01612b6f565b9650506020612dfd89828a01612bc3565b955050604087013567ffffffffffffffff811115612e1a57600080fd5b612e2689828a01612b6f565b945050606087013567ffffffffffffffff811115612e4357600080fd5b612e4f89828a01612b6f565b9350506080612e6089828a01612b30565b92505060a0612e7189828a01612b30565b9150509295509295509295565b600060208284031215612e9057600080fd5b6000612e9e84828501612b99565b91505092915050565b600060208284031215612eb957600080fd5b6000612ec784828501612bae565b91505092915050565b60008060408385031215612ee357600080fd5b6000612ef185828601612b99565b9250506020612f0285828601612b30565b9150509250929050565b60008060408385031215612f1f57600080fd5b6000612f2d85828601612b99565b9250506020612f3e85828601612b99565b9150509250929050565b600080600060608486031215612f5d57600080fd5b6000612f6b86828701612b99565b9350506020612f7c86828701612b99565b9250506040612f8d86828701612b30565b9150509250925092565b6000612fa3838361321f565b905092915050565b612fb481613901565b82525050565b612fc38161389b565b82525050565b612fda612fd58261389b565b613a37565b82525050565b6000612feb82613725565b612ff58185613748565b93508360208202850161300785613715565b8060005b8581101561304357848403895281516130248582612f97565b945061302f8361373b565b925060208a0199505060018101905061300b565b50829750879550505050505092915050565b61305e81613913565b82525050565b600061306f82613730565b6130798185613759565b9350613089818560208601613958565b61309281613b52565b840191505092915050565b60006130a882613730565b6130b2818561376a565b93506130c2818560208601613958565b6130cb81613b52565b840191505092915050565b60006130e182613730565b6130eb818561377b565b93506130fb818560208601613958565b80840191505092915050565b600061311460268361376a565b915061311f82613b70565b604082019050919050565b600061313760208361376a565b915061314282613bbf565b602082019050919050565b600061315a60318361376a565b915061316582613be8565b604082019050919050565b600061317d60228361376a565b915061318882613c37565b604082019050919050565b60006131a0602f8361376a565b91506131ab82613c86565b604082019050919050565b60006131c3601f8361376a565b91506131ce82613cd5565b602082019050919050565b60006131e660148361376a565b91506131f182613cfe565b602082019050919050565b600061320960128361376a565b915061321482613d27565b602082019050919050565b60006040830160008301516132376000860182613299565b506020830151848203602086015261324f8282613064565b9150508091505092915050565b60006040830160008301516132746000860182613299565b506020830151848203602086015261328c8282613064565b9150508091505092915050565b6132a2816138e7565b82525050565b6132b1816138e7565b82525050565b6132c86132c3826138e7565b613a5b565b82525050565b6132d7816138f1565b82525050565b60006132e98286612fc9565b6014820191506132f982856130d6565b915061330582846132b7565b602082019150819050949350505050565b600060208201905061332b6000830184612fba565b92915050565b60006040820190506133466000830185612fab565b61335360208301846132a8565b9392505050565b600060608201905061336f6000830186612fba565b61337c6020830185612fba565b6133896040830184613055565b949350505050565b600060c0820190506133a66000830189612fba565b6133b36020830188612fba565b6133c060408301876132a8565b6133cd6060830186612fba565b6133da60808301856132a8565b6133e760a08301846132a8565b979650505050505050565b600060a0820190506134076000830188612fba565b6134146020830187612fba565b61342160408301866132a8565b61342e60608301856132a8565b61343b60808301846132a8565b9695505050505050565b600060408201905061345a6000830185612fba565b61346760208301846132a8565b9392505050565b60006060820190506134836000830186612fba565b61349060208301856132a8565b61349d6040830184612fba565b949350505050565b60006080820190506134ba6000830187612fba565b6134c760208301866132a8565b6134d46040830185612fba565b6134e16060830184613055565b95945050505050565b600060208201905081810360008301526135048184612fe0565b905092915050565b600060c0820190508181036000830152613526818961309d565b905061353560208301886132ce565b8181036040830152613547818761309d565b9050818103606083015261355b818661309d565b905061356a6080830185612fba565b61357760a0830184612fba565b979650505050505050565b6000602082019050818103600083015261359b81613107565b9050919050565b600060208201905081810360008301526135bb8161312a565b9050919050565b600060208201905081810360008301526135db8161314d565b9050919050565b600060208201905081810360008301526135fb81613170565b9050919050565b6000602082019050818103600083015261361b81613193565b9050919050565b6000602082019050818103600083015261363b816131b6565b9050919050565b6000602082019050818103600083015261365b816131d9565b9050919050565b6000602082019050818103600083015261367b816131fc565b9050919050565b6000602082019050818103600083015261369c818461325c565b905092915050565b60006020820190506136b960008301846132a8565b92915050565b60006136c96136da565b90506136d582826139bd565b919050565b6000604051905090565b600067ffffffffffffffff8211156136ff576136fe613b23565b5b61370882613b52565b9050602081019050919050565b6000819050602082019050919050565b600081519050919050565b600081519050919050565b6000602082019050919050565b600082825260208201905092915050565b600082825260208201905092915050565b600082825260208201905092915050565b600081905092915050565b6000613791826138e7565b915061379c836138e7565b9250827fffffffffffffffffffffffffffffffffffffffffffffffffffffffffffffffff038211156137d1576137d0613a96565b5b828201905092915050565b60006137e7826138e7565b91506137f2836138e7565b92508261380257613801613ac5565b5b828204905092915050565b6000613818826138e7565b9150613823836138e7565b9250817fffffffffffffffffffffffffffffffffffffffffffffffffffffffffffffffff048311821515161561385c5761385b613a96565b5b828202905092915050565b6000613872826138e7565b915061387d836138e7565b9250828210156138905761388f613a96565b5b828203905092915050565b60006138a6826138c7565b9050919050565b60008115159050919050565b600061ffff82169050919050565b600073ffffffffffffffffffffffffffffffffffffffff82169050919050565b6000819050919050565b600063ffffffff82169050919050565b600061390c82613925565b9050919050565b600061391e826138b9565b9050919050565b600061393082613937565b9050919050565b6000613942826138c7565b9050919050565b82818337600083830152505050565b60005b8381101561397657808201518184015260208101905061395b565b83811115613985576000848401525b50505050565b600060028204905060018216806139a357607f821691505b602082108114156139b7576139b6613af4565b5b50919050565b6139c682613b52565b810181811067ffffffffffffffff821117156139e5576139e4613b23565b5b80604052505050565b60006139f9826138e7565b91507fffffffffffffffffffffffffffffffffffffffffffffffffffffffffffffffff821415613a2c57613a2b613a96565b5b600182019050919050565b6000613a4282613a49565b9050919050565b6000613a5482613b63565b9050919050565b6000819050919050565b6000613a70826138e7565b9150613a7b836138e7565b925082613a8b57613a8a613ac5565b5b828206905092915050565b7f4e487b7100000000000000000000000000000000000000000000000000000000600052601160045260246000fd5b7f4e487b7100000000000000000000000000000000000000000000000000000000600052601260045260246000fd5b7f4e487b7100000000000000000000000000000000000000000000000000000000600052602260045260246000fd5b7f4e487b7100000000000000000000000000000000000000000000000000000000600052604160045260246000fd5b6000601f19601f8301169050919050565b60008160601b9050919050565b7f4f776e61626c653a206e6577206f776e657220697320746865207a65726f206160008201527f6464726573730000000000000000000000000000000000000000000000000000602082015250565b7f4f776e61626c653a2063616c6c6572206973206e6f7420746865206f776e6572600082015250565b7f596f75722062616c616e636520697320736d616c6c6572207468616e2074686560008201527f2072657175657374656420616d6f756e74000000000000000000000000000000602082015250565b7f4d696e696d756d206465706f73697420616d6f756e7420697320302e3031204560008201527f7468000000000000000000000000000000000000000000000000000000000000602082015250565b7f596f75722062616c616e6365206973206c6f776572207468616e20746865207260008201527f657175657374656420616d6f756e740000000000000000000000000000000000602082015250565b7f5265656e7472616e637947756172643a207265656e7472616e742063616c6c00600082015250565b7f416d6f756e742073656e74206973206c6573732e000000000000000000000000600082015250565b7f4163636f756e74206e6f7420666f756e642e0000000000000000000000000000600082015250565b613d598161389b565b8114613d6457600080fd5b50565b613d70816138ad565b8114613d7b57600080fd5b50565b613d87816138e7565b8114613d9257600080fd5b50565b613d9e816138f1565b8114613da957600080fd5b5056fea2646970667358221220f633b2ba3bf625fbdbc6b1d4017ea7f85ce56dbbb2d449c390d03cf3612b09f364736f6c63430008040033",
  "linkReferences": {},
  "deployedLinkReferences": {}
}