{
  "_format": "hh-sol-artifact-1",
  "contractName": "CryptoneoToken",
  "sourceName": "contracts/CryptoneoToken.sol",
  "abi": [
    {
      "inputs": [],
      "stateMutability": "nonpayable",
      "type": "constructor"
    },
    {
      "anonymous": false,
      "inputs": [
        {
          "indexed": true,
          "internalType": "address",
          "name": "owner",
          "type": "address"
        },
        {
          "indexed": true,
          "internalType": "address",
          "name": "spender",
          "type": "address"
        },
        {
          "indexed": false,
          "internalType": "uint256",
          "name": "value",
          "type": "uint256"
        }
      ],
      "name": "Approval",
      "type": "event"
    },
    {
      "anonymous": false,
      "inputs": [
        {
          "indexed": true,
          "internalType": "address",
          "name": "delegator",
          "type": "address"
        },
        {
          "indexed": true,
          "internalType": "address",
          "name": "fromDelegate",
          "type": "address"
        },
        {
          "indexed": true,
          "internalType": "address",
          "name": "toDelegate",
          "type": "address"
        }
      ],
      "name": "DelegateChanged",
      "type": "event"
    },
    {
      "anonymous": false,
      "inputs": [
        {
          "indexed": true,
          "internalType": "address",
          "name": "delegate",
          "type": "address"
        },
        {
          "indexed": false,
          "internalType": "uint256",
          "name": "previousBalance",
          "type": "uint256"
        },
        {
          "indexed": false,
          "internalType": "uint256",
          "name": "newBalance",
          "type": "uint256"
        }
      ],
      "name": "DelegateVotesChanged",
      "type": "event"
    },
    {
      "anonymous": false,
      "inputs": [
        {
          "indexed": false,
          "internalType": "address",
          "name": "account",
          "type": "address"
        }
      ],
      "name": "Paused",
      "type": "event"
    },
    {
      "anonymous": false,
      "inputs": [
        {
          "indexed": true,
          "internalType": "bytes32",
          "name": "role",
          "type": "bytes32"
        },
        {
          "indexed": true,
          "internalType": "bytes32",
          "name": "previousAdminRole",
          "type": "bytes32"
        },
        {
          "indexed": true,
          "internalType": "bytes32",
          "name": "newAdminRole",
          "type": "bytes32"
        }
      ],
      "name": "RoleAdminChanged",
      "type": "event"
    },
    {
      "anonymous": false,
      "inputs": [
        {
          "indexed": true,
          "internalType": "bytes32",
          "name": "role",
          "type": "bytes32"
        },
        {
          "indexed": true,
          "internalType": "address",
          "name": "account",
          "type": "address"
        },
        {
          "indexed": true,
          "internalType": "address",
          "name": "sender",
          "type": "address"
        }
      ],
      "name": "RoleGranted",
      "type": "event"
    },
    {
      "anonymous": false,
      "inputs": [
        {
          "indexed": true,
          "internalType": "bytes32",
          "name": "role",
          "type": "bytes32"
        },
        {
          "indexed": true,
          "internalType": "address",
          "name": "account",
          "type": "address"
        },
        {
          "indexed": true,
          "internalType": "address",
          "name": "sender",
          "type": "address"
        }
      ],
      "name": "RoleRevoked",
      "type": "event"
    },
    {
      "anonymous": false,
      "inputs": [
        {
          "indexed": true,
          "internalType": "address",
          "name": "from",
          "type": "address"
        },
        {
          "indexed": true,
          "internalType": "address",
          "name": "to",
          "type": "address"
        },
        {
          "indexed": false,
          "internalType": "uint256",
          "name": "value",
          "type": "uint256"
        }
      ],
      "name": "Transfer",
      "type": "event"
    },
    {
      "anonymous": false,
      "inputs": [
        {
          "indexed": false,
          "internalType": "address",
          "name": "account",
          "type": "address"
        }
      ],
      "name": "Unpaused",
      "type": "event"
    },
    {
      "inputs": [],
      "name": "DEFAULT_ADMIN_ROLE",
      "outputs": [
        {
          "internalType": "bytes32",
          "name": "",
          "type": "bytes32"
        }
      ],
      "stateMutability": "view",
      "type": "function"
    },
    {
      "inputs": [],
      "name": "DOMAIN_SEPARATOR",
      "outputs": [
        {
          "internalType": "bytes32",
          "name": "",
          "type": "bytes32"
        }
      ],
      "stateMutability": "view",
      "type": "function"
    },
    {
      "inputs": [],
      "name": "MINTER_ROLE",
      "outputs": [
        {
          "internalType": "bytes32",
          "name": "",
          "type": "bytes32"
        }
      ],
      "stateMutability": "view",
      "type": "function"
    },
    {
      "inputs": [],
      "name": "PAUSER_ROLE",
      "outputs": [
        {
          "internalType": "bytes32",
          "name": "",
          "type": "bytes32"
        }
      ],
      "stateMutability": "view",
      "type": "function"
    },
    {
      "inputs": [
        {
          "internalType": "address",
          "name": "owner",
          "type": "address"
        },
        {
          "internalType": "address",
          "name": "spender",
          "type": "address"
        }
      ],
      "name": "allowance",
      "outputs": [
        {
          "internalType": "uint256",
          "name": "",
          "type": "uint256"
        }
      ],
      "stateMutability": "view",
      "type": "function"
    },
    {
      "inputs": [
        {
          "internalType": "address",
          "name": "spender",
          "type": "address"
        },
        {
          "internalType": "uint256",
          "name": "amount",
          "type": "uint256"
        }
      ],
      "name": "approve",
      "outputs": [
        {
          "internalType": "bool",
          "name": "",
          "type": "bool"
        }
      ],
      "stateMutability": "nonpayable",
      "type": "function"
    },
    {
      "inputs": [
        {
          "internalType": "address",
          "name": "account",
          "type": "address"
        }
      ],
      "name": "balanceOf",
      "outputs": [
        {
          "internalType": "uint256",
          "name": "",
          "type": "uint256"
        }
      ],
      "stateMutability": "view",
      "type": "function"
    },
    {
      "inputs": [
        {
          "internalType": "uint256",
          "name": "amount",
          "type": "uint256"
        }
      ],
      "name": "burn",
      "outputs": [],
      "stateMutability": "nonpayable",
      "type": "function"
    },
    {
      "inputs": [
        {
          "internalType": "address",
          "name": "account",
          "type": "address"
        },
        {
          "internalType": "uint256",
          "name": "amount",
          "type": "uint256"
        }
      ],
      "name": "burnFrom",
      "outputs": [],
      "stateMutability": "nonpayable",
      "type": "function"
    },
    {
      "inputs": [
        {
          "internalType": "address",
          "name": "account",
          "type": "address"
        },
        {
          "internalType": "uint32",
          "name": "pos",
          "type": "uint32"
        }
      ],
      "name": "checkpoints",
      "outputs": [
        {
          "components": [
            {
              "internalType": "uint32",
              "name": "fromBlock",
              "type": "uint32"
            },
            {
              "internalType": "uint224",
              "name": "votes",
              "type": "uint224"
            }
          ],
          "internalType": "struct ERC20VotesUpgradeable.Checkpoint",
          "name": "",
          "type": "tuple"
        }
      ],
      "stateMutability": "view",
      "type": "function"
    },
    {
      "inputs": [],
      "name": "decimals",
      "outputs": [
        {
          "internalType": "uint8",
          "name": "",
          "type": "uint8"
        }
      ],
      "stateMutability": "view",
      "type": "function"
    },
    {
      "inputs": [
        {
          "internalType": "address",
          "name": "spender",
          "type": "address"
        },
        {
          "internalType": "uint256",
          "name": "subtractedValue",
          "type": "uint256"
        }
      ],
      "name": "decreaseAllowance",
      "outputs": [
        {
          "internalType": "bool",
          "name": "",
          "type": "bool"
        }
      ],
      "stateMutability": "nonpayable",
      "type": "function"
    },
    {
      "inputs": [
        {
          "internalType": "address",
          "name": "delegatee",
          "type": "address"
        }
      ],
      "name": "delegate",
      "outputs": [],
      "stateMutability": "nonpayable",
      "type": "function"
    },
    {
      "inputs": [
        {
          "internalType": "address",
          "name": "delegatee",
          "type": "address"
        },
        {
          "internalType": "uint256",
          "name": "nonce",
          "type": "uint256"
        },
        {
          "internalType": "uint256",
          "name": "expiry",
          "type": "uint256"
        },
        {
          "internalType": "uint8",
          "name": "v",
          "type": "uint8"
        },
        {
          "internalType": "bytes32",
          "name": "r",
          "type": "bytes32"
        },
        {
          "internalType": "bytes32",
          "name": "s",
          "type": "bytes32"
        }
      ],
      "name": "delegateBySig",
      "outputs": [],
      "stateMutability": "nonpayable",
      "type": "function"
    },
    {
      "inputs": [
        {
          "internalType": "address",
          "name": "account",
          "type": "address"
        }
      ],
      "name": "delegates",
      "outputs": [
        {
          "internalType": "address",
          "name": "",
          "type": "address"
        }
      ],
      "stateMutability": "view",
      "type": "function"
    },
    {
      "inputs": [
        {
          "internalType": "address",
          "name": "token",
          "type": "address"
        },
        {
          "internalType": "uint256",
          "name": "amount",
          "type": "uint256"
        }
      ],
      "name": "flashFee",
      "outputs": [
        {
          "internalType": "uint256",
          "name": "",
          "type": "uint256"
        }
      ],
      "stateMutability": "view",
      "type": "function"
    },
    {
      "inputs": [
        {
          "internalType": "contract IERC3156FlashBorrowerUpgradeable",
          "name": "receiver",
          "type": "address"
        },
        {
          "internalType": "address",
          "name": "token",
          "type": "address"
        },
        {
          "internalType": "uint256",
          "name": "amount",
          "type": "uint256"
        },
        {
          "internalType": "bytes",
          "name": "data",
          "type": "bytes"
        }
      ],
      "name": "flashLoan",
      "outputs": [
        {
          "internalType": "bool",
          "name": "",
          "type": "bool"
        }
      ],
      "stateMutability": "nonpayable",
      "type": "function"
    },
    {
      "inputs": [
        {
          "internalType": "uint256",
          "name": "blockNumber",
          "type": "uint256"
        }
      ],
      "name": "getPastTotalSupply",
      "outputs": [
        {
          "internalType": "uint256",
          "name": "",
          "type": "uint256"
        }
      ],
      "stateMutability": "view",
      "type": "function"
    },
    {
      "inputs": [
        {
          "internalType": "address",
          "name": "account",
          "type": "address"
        },
        {
          "internalType": "uint256",
          "name": "blockNumber",
          "type": "uint256"
        }
      ],
      "name": "getPastVotes",
      "outputs": [
        {
          "internalType": "uint256",
          "name": "",
          "type": "uint256"
        }
      ],
      "stateMutability": "view",
      "type": "function"
    },
    {
      "inputs": [
        {
          "internalType": "bytes32",
          "name": "role",
          "type": "bytes32"
        }
      ],
      "name": "getRoleAdmin",
      "outputs": [
        {
          "internalType": "bytes32",
          "name": "",
          "type": "bytes32"
        }
      ],
      "stateMutability": "view",
      "type": "function"
    },
    {
      "inputs": [
        {
          "internalType": "address",
          "name": "account",
          "type": "address"
        }
      ],
      "name": "getVotes",
      "outputs": [
        {
          "internalType": "uint256",
          "name": "",
          "type": "uint256"
        }
      ],
      "stateMutability": "view",
      "type": "function"
    },
    {
      "inputs": [
        {
          "internalType": "bytes32",
          "name": "role",
          "type": "bytes32"
        },
        {
          "internalType": "address",
          "name": "account",
          "type": "address"
        }
      ],
      "name": "grantRole",
      "outputs": [],
      "stateMutability": "nonpayable",
      "type": "function"
    },
    {
      "inputs": [
        {
          "internalType": "bytes32",
          "name": "role",
          "type": "bytes32"
        },
        {
          "internalType": "address",
          "name": "account",
          "type": "address"
        }
      ],
      "name": "hasRole",
      "outputs": [
        {
          "internalType": "bool",
          "name": "",
          "type": "bool"
        }
      ],
      "stateMutability": "view",
      "type": "function"
    },
    {
      "inputs": [
        {
          "internalType": "address",
          "name": "spender",
          "type": "address"
        },
        {
          "internalType": "uint256",
          "name": "addedValue",
          "type": "uint256"
        }
      ],
      "name": "increaseAllowance",
      "outputs": [
        {
          "internalType": "bool",
          "name": "",
          "type": "bool"
        }
      ],
      "stateMutability": "nonpayable",
      "type": "function"
    },
    {
      "inputs": [],
      "name": "initialize",
      "outputs": [],
      "stateMutability": "nonpayable",
      "type": "function"
    },
    {
      "inputs": [
        {
          "internalType": "address",
          "name": "token",
          "type": "address"
        }
      ],
      "name": "maxFlashLoan",
      "outputs": [
        {
          "internalType": "uint256",
          "name": "",
          "type": "uint256"
        }
      ],
      "stateMutability": "view",
      "type": "function"
    },
    {
      "inputs": [
        {
          "internalType": "address",
          "name": "to",
          "type": "address"
        },
        {
          "internalType": "uint256",
          "name": "amount",
          "type": "uint256"
        }
      ],
      "name": "mint",
      "outputs": [],
      "stateMutability": "nonpayable",
      "type": "function"
    },
    {
      "inputs": [],
      "name": "name",
      "outputs": [
        {
          "internalType": "string",
          "name": "",
          "type": "string"
        }
      ],
      "stateMutability": "view",
      "type": "function"
    },
    {
      "inputs": [
        {
          "internalType": "address",
          "name": "owner",
          "type": "address"
        }
      ],
      "name": "nonces",
      "outputs": [
        {
          "internalType": "uint256",
          "name": "",
          "type": "uint256"
        }
      ],
      "stateMutability": "view",
      "type": "function"
    },
    {
      "inputs": [
        {
          "internalType": "address",
          "name": "account",
          "type": "address"
        }
      ],
      "name": "numCheckpoints",
      "outputs": [
        {
          "internalType": "uint32",
          "name": "",
          "type": "uint32"
        }
      ],
      "stateMutability": "view",
      "type": "function"
    },
    {
      "inputs": [],
      "name": "pause",
      "outputs": [],
      "stateMutability": "nonpayable",
      "type": "function"
    },
    {
      "inputs": [],
      "name": "paused",
      "outputs": [
        {
          "internalType": "bool",
          "name": "",
          "type": "bool"
        }
      ],
      "stateMutability": "view",
      "type": "function"
    },
    {
      "inputs": [
        {
          "internalType": "address",
          "name": "owner",
          "type": "address"
        },
        {
          "internalType": "address",
          "name": "spender",
          "type": "address"
        },
        {
          "internalType": "uint256",
          "name": "value",
          "type": "uint256"
        },
        {
          "internalType": "uint256",
          "name": "deadline",
          "type": "uint256"
        },
        {
          "internalType": "uint8",
          "name": "v",
          "type": "uint8"
        },
        {
          "internalType": "bytes32",
          "name": "r",
          "type": "bytes32"
        },
        {
          "internalType": "bytes32",
          "name": "s",
          "type": "bytes32"
        }
      ],
      "name": "permit",
      "outputs": [],
      "stateMutability": "nonpayable",
      "type": "function"
    },
    {
      "inputs": [
        {
          "internalType": "bytes32",
          "name": "role",
          "type": "bytes32"
        },
        {
          "internalType": "address",
          "name": "account",
          "type": "address"
        }
      ],
      "name": "renounceRole",
      "outputs": [],
      "stateMutability": "nonpayable",
      "type": "function"
    },
    {
      "inputs": [
        {
          "internalType": "bytes32",
          "name": "role",
          "type": "bytes32"
        },
        {
          "internalType": "address",
          "name": "account",
          "type": "address"
        }
      ],
      "name": "revokeRole",
      "outputs": [],
      "stateMutability": "nonpayable",
      "type": "function"
    },
    {
      "inputs": [
        {
          "internalType": "bytes4",
          "name": "interfaceId",
          "type": "bytes4"
        }
      ],
      "name": "supportsInterface",
      "outputs": [
        {
          "internalType": "bool",
          "name": "",
          "type": "bool"
        }
      ],
      "stateMutability": "view",
      "type": "function"
    },
    {
      "inputs": [],
      "name": "symbol",
      "outputs": [
        {
          "internalType": "string",
          "name": "",
          "type": "string"
        }
      ],
      "stateMutability": "view",
      "type": "function"
    },
    {
      "inputs": [],
      "name": "totalSupply",
      "outputs": [
        {
          "internalType": "uint256",
          "name": "",
          "type": "uint256"
        }
      ],
      "stateMutability": "view",
      "type": "function"
    },
    {
      "inputs": [
        {
          "internalType": "address",
          "name": "to",
          "type": "address"
        },
        {
          "internalType": "uint256",
          "name": "amount",
          "type": "uint256"
        }
      ],
      "name": "transfer",
      "outputs": [
        {
          "internalType": "bool",
          "name": "",
          "type": "bool"
        }
      ],
      "stateMutability": "nonpayable",
      "type": "function"
    },
    {
      "inputs": [
        {
          "internalType": "address",
          "name": "from",
          "type": "address"
        },
        {
          "internalType": "address",
          "name": "to",
          "type": "address"
        },
        {
          "internalType": "uint256",
          "name": "amount",
          "type": "uint256"
        }
      ],
      "name": "transferFrom",
      "outputs": [
        {
          "internalType": "bool",
          "name": "",
          "type": "bool"
        }
      ],
      "stateMutability": "nonpayable",
      "type": "function"
    },
    {
      "inputs": [],
      "name": "unpause",
      "outputs": [],
      "stateMutability": "nonpayable",
      "type": "function"
    }
  ],
  "bytecode": "0x60806040523480156200001157600080fd5b50600060019054906101000a900460ff166200003c5760008054906101000a900460ff16156200004d565b6200004c6200010960201b60201c565b5b6200008f576040517f08c379a0000000000000000000000000000000000000000000000000000000008152600401620000869062000171565b60405180910390fd5b60008060019054906101000a900460ff161590508015620000e0576001600060016101000a81548160ff02191690831515021790555060016000806101000a81548160ff0219169083151502179055505b8015620001025760008060016101000a81548160ff0219169083151502179055505b50620001f3565b600062000121306200012760201b62001b671760201c565b15905090565b6000808273ffffffffffffffffffffffffffffffffffffffff163b119050919050565b600062000159602e8362000193565b91506200016682620001a4565b604082019050919050565b600060208201905081810360008301526200018c816200014a565b9050919050565b600082825260208201905092915050565b7f496e697469616c697a61626c653a20636f6e747261637420697320616c72656160008201527f647920696e697469616c697a6564000000000000000000000000000000000000602082015250565b615fa480620002036000396000f3fe608060405234801561001057600080fd5b50600436106102535760003560e01c80636fcfff4511610146578063a217fddf116100c3578063d539139311610087578063d539139314610758578063d547741f14610776578063d9d98ce414610792578063dd62ed3e146107c2578063e63ab1e9146107f2578063f1127ed81461081057610253565b8063a217fddf146106a2578063a457c2d7146106c0578063a9059cbb146106f0578063c3cda52014610720578063d505accf1461073c57610253565b80638456cb591161010a5780638456cb59146105ea5780638e539e8c146105f457806391d148541461062457806395d89b41146106545780639ab24eb01461067257610253565b80636fcfff451461053457806370a082311461056457806379cc6790146105945780637ecebe00146105b05780638129fc1c146105e057610253565b806339509351116101d4578063587cde1e11610198578063587cde1e1461046a5780635c19a95c1461049a5780635c975abb146104b65780635cffe9de146104d4578063613255ab1461050457610253565b806339509351146103c85780633a46b1a8146103f85780633f4ba83a1461042857806340c10f191461043257806342966c681461044e57610253565b8063248a9ca31161021b578063248a9ca3146103245780632f2ff15d14610354578063313ce567146103705780633644e5151461038e57806336568abe146103ac57610253565b806301ffc9a71461025857806306fdde0314610288578063095ea7b3146102a657806318160ddd146102d657806323b872dd146102f4575b600080fd5b610272600480360381019061026d9190614377565b610840565b60405161027f9190614b4f565b60405180910390f35b6102906108ba565b60405161029d9190614cc3565b60405180910390f35b6102c060048036038101906102bb91906141e8565b61094c565b6040516102cd9190614b4f565b60405180910390f35b6102de61096f565b6040516102eb9190615100565b60405180910390f35b61030e600480360381019061030991906140fb565b610979565b60405161031b9190614b4f565b60405180910390f35b61033e600480360381019061033991906142e9565b6109a8565b60405161034b9190614b6a565b60405180910390f35b61036e6004803603810190610369919061433b565b6109c8565b005b6103786109f1565b604051610385919061515f565b60405180910390f35b6103966109fa565b6040516103a39190614b6a565b60405180910390f35b6103c660048036038101906103c1919061433b565b610a09565b005b6103e260048036038101906103dd91906141e8565b610a8c565b6040516103ef9190614b4f565b60405180910390f35b610412600480360381019061040d91906141e8565b610b36565b60405161041f9190615100565b60405180910390f35b610430610bcb565b005b61044c600480360381019061044791906141e8565b610c08565b005b61046860048036038101906104639190614420565b610c49565b005b610484600480360381019061047f9190614096565b610c5d565b6040516104919190614ad8565b60405180910390f35b6104b460048036038101906104af9190614096565b610cc7565b005b6104be610cdb565b6040516104cb9190614b4f565b60405180910390f35b6104ee60048036038101906104e991906143a0565b610cf2565b6040516104fb9190614b4f565b60405180910390f35b61051e60048036038101906105199190614096565b610eee565b60405161052b9190615100565b60405180910390f35b61054e60048036038101906105499190614096565b610f65565b60405161055b9190615144565b60405180910390f35b61057e60048036038101906105799190614096565b610fba565b60405161058b9190615100565b60405180910390f35b6105ae60048036038101906105a991906141e8565b611003565b005b6105ca60048036038101906105c59190614096565b611023565b6040516105d79190615100565b60405180910390f35b6105e8611074565b005b6105f26112b7565b005b61060e60048036038101906106099190614420565b6112f4565b60405161061b9190615100565b60405180910390f35b61063e6004803603810190610639919061433b565b61134b565b60405161064b9190614b4f565b60405180910390f35b61065c6113b6565b6040516106699190614cc3565b60405180910390f35b61068c60048036038101906106879190614096565b611448565b6040516106999190615100565b60405180910390f35b6106aa611581565b6040516106b79190614b6a565b60405180910390f35b6106da60048036038101906106d591906141e8565b611588565b6040516106e79190614b4f565b60405180910390f35b61070a600480360381019061070591906141e8565b611672565b6040516107179190614b4f565b60405180910390f35b61073a60048036038101906107359190614224565b611695565b005b6107566004803603810190610751919061414a565b611799565b005b6107606118be565b60405161076d9190614b6a565b60405180910390f35b610790600480360381019061078b919061433b565b6118e2565b005b6107ac60048036038101906107a791906141e8565b61190b565b6040516107b99190615100565b60405180910390f35b6107dc60048036038101906107d791906140bf565b611985565b6040516107e99190615100565b60405180910390f35b6107fa611a0c565b6040516108079190614b6a565b60405180910390f35b61082a600480360381019061082591906142ad565b611a30565b60405161083791906150e5565b60405180910390f35b60007f7965db0b000000000000000000000000000000000000000000000000000000007bffffffffffffffffffffffffffffffffffffffffffffffffffffffff1916827bffffffffffffffffffffffffffffffffffffffffffffffffffffffff191614806108b357506108b282611b8a565b5b9050919050565b6060603680546108c990615579565b80601f01602080910402602001604051908101604052809291908181526020018280546108f590615579565b80156109425780601f1061091757610100808354040283529160200191610942565b820191906000526020600020905b81548152906001019060200180831161092557829003601f168201915b5050505050905090565b600080610957611bf4565b9050610964818585611bfc565b600191505092915050565b6000603554905090565b600080610984611bf4565b9050610991858285611dc7565b61099c858585611e53565b60019150509392505050565b600060fb6000838152602001908152602001600020600101549050919050565b6109d1826109a8565b6109e2816109dd611bf4565b6120d7565b6109ec8383612174565b505050565b60006012905090565b6000610a04612255565b905090565b610a11611bf4565b73ffffffffffffffffffffffffffffffffffffffff168173ffffffffffffffffffffffffffffffffffffffff1614610a7e576040517f08c379a0000000000000000000000000000000000000000000000000000000008152600401610a75906150a5565b60405180910390fd5b610a888282612295565b5050565b600080610a97611bf4565b9050610b2b818585603460008673ffffffffffffffffffffffffffffffffffffffff1673ffffffffffffffffffffffffffffffffffffffff16815260200190815260200160002060008973ffffffffffffffffffffffffffffffffffffffff1673ffffffffffffffffffffffffffffffffffffffff16815260200190815260200160002054610b2691906151b2565b611bfc565b600191505092915050565b6000438210610b7a576040517f08c379a0000000000000000000000000000000000000000000000000000000008152600401610b7190614d45565b60405180910390fd5b610bc361019560008573ffffffffffffffffffffffffffffffffffffffff1673ffffffffffffffffffffffffffffffffffffffff16815260200190815260200160002083612377565b905092915050565b7f65d7a28e3265b37a6474929f336521b332c1681b933f6cb9f3376673440d862a610bfd81610bf8611bf4565b6120d7565b610c056124cf565b50565b7f9f2df0fed2c77648de5860a4cc508cd0818c85b8b8a1ab4ceeef8d981c8956a6610c3a81610c35611bf4565b6120d7565b610c448383612571565b505050565b610c5a610c54611bf4565b8261257f565b50565b600061019460008373ffffffffffffffffffffffffffffffffffffffff1673ffffffffffffffffffffffffffffffffffffffff16815260200190815260200160002060009054906101000a900473ffffffffffffffffffffffffffffffffffffffff169050919050565b610cd8610cd2611bf4565b8261258d565b50565b6000609760009054906101000a900460ff16905090565b6000610cfd85610eee565b841115610d3f576040517f08c379a0000000000000000000000000000000000000000000000000000000008152600401610d3690614fa5565b60405180910390fd5b6000610d4b868661190b565b9050610d578786612571565b7f439148f0bbc682ca079e46d6e2c2f0c1e3b820f1a291b069d8882abf8cf18dd98773ffffffffffffffffffffffffffffffffffffffff166323e30c8b338989868a8a6040518763ffffffff1660e01b8152600401610dbb96959493929190614af3565b602060405180830381600087803b158015610dd557600080fd5b505af1158015610de9573d6000803e3d6000fd5b505050506040513d601f19601f82011682018060405250810190610e0d9190614312565b14610e4d576040517f08c379a0000000000000000000000000000000000000000000000000000000008152600401610e4490614ea5565b60405180910390fd5b6000610e598830611985565b90508186610e6791906151b2565b811015610ea9576040517f08c379a0000000000000000000000000000000000000000000000000000000008152600401610ea090615065565b60405180910390fd5b610eca8830848985610ebb9190615404565b610ec59190615404565b611bfc565b610edf888388610eda91906151b2565b61257f565b60019250505095945050505050565b60003073ffffffffffffffffffffffffffffffffffffffff168273ffffffffffffffffffffffffffffffffffffffff1614610f2a576000610f5e565b610f3261096f565b7fffffffffffffffffffffffffffffffffffffffffffffffffffffffffffffffff610f5d9190615404565b5b9050919050565b6000610fb361019560008473ffffffffffffffffffffffffffffffffffffffff1673ffffffffffffffffffffffffffffffffffffffff168152602001908152602001600020805490506126a8565b9050919050565b6000603360008373ffffffffffffffffffffffffffffffffffffffff1673ffffffffffffffffffffffffffffffffffffffff168152602001908152602001600020549050919050565b6110158261100f611bf4565b83611dc7565b61101f828261257f565b5050565b600061106d61016160008473ffffffffffffffffffffffffffffffffffffffff1673ffffffffffffffffffffffffffffffffffffffff1681526020019081526020016000206126fb565b9050919050565b600060019054906101000a900460ff1661109c5760008054906101000a900460ff16156110a5565b6110a4612709565b5b6110e4576040517f08c379a00000000000000000000000000000000000000000000000000000000081526004016110db90614ee5565b60405180910390fd5b60008060019054906101000a900460ff161590508015611134576001600060016101000a81548160ff02191690831515021790555060016000806101000a81548160ff0219169083151502179055505b6111a86040518060400160405280600e81526020017f43727970746f6e656f546f6b656e0000000000000000000000000000000000008152506040518060400160405280600481526020017f434e454f0000000000000000000000000000000000000000000000000000000081525061271a565b6111b0612777565b6111b86127c8565b6111c0612821565b6111fe6040518060400160405280600e81526020017f43727970746f6e656f546f6b656e000000000000000000000000000000000000815250612872565b61120661290c565b6112136000801b33612174565b61123d7f65d7a28e3265b37a6474929f336521b332c1681b933f6cb9f3376673440d862a33612174565b611269336112496109f1565b600a611255919061528c565b6305f5e10061126491906153aa565b612571565b6112937f9f2df0fed2c77648de5860a4cc508cd0818c85b8b8a1ab4ceeef8d981c8956a633612174565b80156112b45760008060016101000a81548160ff0219169083151502179055505b50565b7f65d7a28e3265b37a6474929f336521b332c1681b933f6cb9f3376673440d862a6112e9816112e4611bf4565b6120d7565b6112f161295d565b50565b6000438210611338576040517f08c379a000000000000000000000000000000000000000000000000000000000815260040161132f90614d45565b60405180910390fd5b61134461019683612377565b9050919050565b600060fb600084815260200190815260200160002060000160008373ffffffffffffffffffffffffffffffffffffffff1673ffffffffffffffffffffffffffffffffffffffff16815260200190815260200160002060009054906101000a900460ff16905092915050565b6060603780546113c590615579565b80601f01602080910402602001604051908101604052809291908181526020018280546113f190615579565b801561143e5780601f106114135761010080835404028352916020019161143e565b820191906000526020600020905b81548152906001019060200180831161142157829003601f168201915b5050505050905090565b60008061019560008473ffffffffffffffffffffffffffffffffffffffff1673ffffffffffffffffffffffffffffffffffffffff168152602001908152602001600020805490509050600081146115585761019560008473ffffffffffffffffffffffffffffffffffffffff1673ffffffffffffffffffffffffffffffffffffffff1681526020019081526020016000206001826114e69190615404565b8154811061151d577f4e487b7100000000000000000000000000000000000000000000000000000000600052603260045260246000fd5b9060005260206000200160000160049054906101000a90047bffffffffffffffffffffffffffffffffffffffffffffffffffffffff1661155b565b60005b7bffffffffffffffffffffffffffffffffffffffffffffffffffffffff16915050919050565b6000801b81565b600080611593611bf4565b90506000603460008373ffffffffffffffffffffffffffffffffffffffff1673ffffffffffffffffffffffffffffffffffffffff16815260200190815260200160002060008673ffffffffffffffffffffffffffffffffffffffff1673ffffffffffffffffffffffffffffffffffffffff16815260200190815260200160002054905083811015611659576040517f08c379a000000000000000000000000000000000000000000000000000000000815260040161165090615085565b60405180910390fd5b6116668286868403611bfc565b60019250505092915050565b60008061167d611bf4565b905061168a818585611e53565b600191505092915050565b834211156116d8576040517f08c379a00000000000000000000000000000000000000000000000000000000081526004016116cf90614d85565b60405180910390fd5b600061173a6117327fe48329057bfd03d55e49b547132e39cffd9c1820ad7b9d4c5307691425d15adf8989896040516020016117179493929190614be6565b60405160208183030381529060405280519060200120612a00565b858585612a1a565b905061174581612a45565b8614611786576040517f08c379a000000000000000000000000000000000000000000000000000000000815260040161177d90614de5565b60405180910390fd5b611790818861258d565b50505050505050565b834211156117dc576040517f08c379a00000000000000000000000000000000000000000000000000000000081526004016117d390614e45565b60405180910390fd5b6000610162548888886117ee8c612a45565b8960405160200161180496959493929190614b85565b604051602081830303815290604052805190602001209050600061182782612a00565b9050600061183782878787612a1a565b90508973ffffffffffffffffffffffffffffffffffffffff168173ffffffffffffffffffffffffffffffffffffffff16146118a7576040517f08c379a000000000000000000000000000000000000000000000000000000000815260040161189e90614f45565b60405180910390fd5b6118b28a8a8a611bfc565b50505050505050505050565b7f9f2df0fed2c77648de5860a4cc508cd0818c85b8b8a1ab4ceeef8d981c8956a681565b6118eb826109a8565b6118fc816118f7611bf4565b6120d7565b6119068383612295565b505050565b60003073ffffffffffffffffffffffffffffffffffffffff168373ffffffffffffffffffffffffffffffffffffffff161461197b576040517f08c379a000000000000000000000000000000000000000000000000000000000815260040161197290614f05565b60405180910390fd5b6000905092915050565b6000603460008473ffffffffffffffffffffffffffffffffffffffff1673ffffffffffffffffffffffffffffffffffffffff16815260200190815260200160002060008373ffffffffffffffffffffffffffffffffffffffff1673ffffffffffffffffffffffffffffffffffffffff16815260200190815260200160002054905092915050565b7f65d7a28e3265b37a6474929f336521b332c1681b933f6cb9f3376673440d862a81565b611a38613ec3565b61019560008473ffffffffffffffffffffffffffffffffffffffff1673ffffffffffffffffffffffffffffffffffffffff1681526020019081526020016000208263ffffffff1681548110611ab6577f4e487b7100000000000000000000000000000000000000000000000000000000600052603260045260246000fd5b906000526020600020016040518060400160405290816000820160009054906101000a900463ffffffff1663ffffffff1663ffffffff1681526020016000820160049054906101000a90047bffffffffffffffffffffffffffffffffffffffffffffffffffffffff167bffffffffffffffffffffffffffffffffffffffffffffffffffffffff167bffffffffffffffffffffffffffffffffffffffffffffffffffffffff1681525050905092915050565b6000808273ffffffffffffffffffffffffffffffffffffffff163b119050919050565b60007f01ffc9a7000000000000000000000000000000000000000000000000000000007bffffffffffffffffffffffffffffffffffffffffffffffffffffffff1916827bffffffffffffffffffffffffffffffffffffffffffffffffffffffff1916149050919050565b600033905090565b600073ffffffffffffffffffffffffffffffffffffffff168373ffffffffffffffffffffffffffffffffffffffff161415611c6c576040517f08c379a0000000000000000000000000000000000000000000000000000000008152600401611c6390615025565b60405180910390fd5b600073ffffffffffffffffffffffffffffffffffffffff168273ffffffffffffffffffffffffffffffffffffffff161415611cdc576040517f08c379a0000000000000000000000000000000000000000000000000000000008152600401611cd390614e05565b60405180910390fd5b80603460008573ffffffffffffffffffffffffffffffffffffffff1673ffffffffffffffffffffffffffffffffffffffff16815260200190815260200160002060008473ffffffffffffffffffffffffffffffffffffffff1673ffffffffffffffffffffffffffffffffffffffff168152602001908152602001600020819055508173ffffffffffffffffffffffffffffffffffffffff168373ffffffffffffffffffffffffffffffffffffffff167f8c5be1e5ebec7d5bd14f71427d1e84f3dd0314c0f7b2291e5b200ac8c7c3b92583604051611dba9190615100565b60405180910390a3505050565b6000611dd38484611985565b90507fffffffffffffffffffffffffffffffffffffffffffffffffffffffffffffffff8114611e4d5781811015611e3f576040517f08c379a0000000000000000000000000000000000000000000000000000000008152600401611e3690614e25565b60405180910390fd5b611e4c8484848403611bfc565b5b50505050565b600073ffffffffffffffffffffffffffffffffffffffff168373ffffffffffffffffffffffffffffffffffffffff161415611ec3576040517f08c379a0000000000000000000000000000000000000000000000000000000008152600401611eba90614fe5565b60405180910390fd5b600073ffffffffffffffffffffffffffffffffffffffff168273ffffffffffffffffffffffffffffffffffffffff161415611f33576040517f08c379a0000000000000000000000000000000000000000000000000000000008152600401611f2a90614d25565b60405180910390fd5b611f3e838383612aa4565b6000603360008573ffffffffffffffffffffffffffffffffffffffff1673ffffffffffffffffffffffffffffffffffffffff16815260200190815260200160002054905081811015611fc5576040517f08c379a0000000000000000000000000000000000000000000000000000000008152600401611fbc90614e65565b60405180910390fd5b818103603360008673ffffffffffffffffffffffffffffffffffffffff1673ffffffffffffffffffffffffffffffffffffffff1681526020019081526020016000208190555081603360008573ffffffffffffffffffffffffffffffffffffffff1673ffffffffffffffffffffffffffffffffffffffff168152602001908152602001600020600082825461205a91906151b2565b925050819055508273ffffffffffffffffffffffffffffffffffffffff168473ffffffffffffffffffffffffffffffffffffffff167fddf252ad1be2c89b69c2b068fc378daa952ba7f163c4a11628f55a4df523b3ef846040516120be9190615100565b60405180910390a36120d1848484612afc565b50505050565b6120e1828261134b565b612170576121068173ffffffffffffffffffffffffffffffffffffffff166014612b0c565b6121148360001c6020612b0c565b604051602001612125929190614a9e565b6040516020818303038152906040526040517f08c379a00000000000000000000000000000000000000000000000000000000081526004016121679190614cc3565b60405180910390fd5b5050565b61217e828261134b565b61225157600160fb600084815260200190815260200160002060000160008373ffffffffffffffffffffffffffffffffffffffff1673ffffffffffffffffffffffffffffffffffffffff16815260200190815260200160002060006101000a81548160ff0219169083151502179055506121f6611bf4565b73ffffffffffffffffffffffffffffffffffffffff168173ffffffffffffffffffffffffffffffffffffffff16837f2f8788117e7eff1d82e926ec794901d17c78024a50270940304540a733656f0d60405160405180910390a45b5050565b60006122907f8b73c3c69bb8fe3d512ecc4cf759cc79239f7b179b0ffacaa9a75d522b39400f612283612e06565b61228b612e11565b612e1c565b905090565b61229f828261134b565b1561237357600060fb600084815260200190815260200160002060000160008373ffffffffffffffffffffffffffffffffffffffff1673ffffffffffffffffffffffffffffffffffffffff16815260200190815260200160002060006101000a81548160ff021916908315150217905550612318611bf4565b73ffffffffffffffffffffffffffffffffffffffff168173ffffffffffffffffffffffffffffffffffffffff16837ff6391f5c32d9c69d2a47ea670b442974b53935d1edc7fd64eb21e047a839171b60405160405180910390a45b5050565b6000808380549050905060005b8181101561241c5760006123988284612e56565b9050848682815481106123d4577f4e487b7100000000000000000000000000000000000000000000000000000000600052603260045260246000fd5b9060005260206000200160000160009054906101000a900463ffffffff1663ffffffff16111561240657809250612416565b60018161241391906151b2565b91505b50612384565b600082146124a457846001836124329190615404565b81548110612469577f4e487b7100000000000000000000000000000000000000000000000000000000600052603260045260246000fd5b9060005260206000200160000160049054906101000a90047bffffffffffffffffffffffffffffffffffffffffffffffffffffffff166124a7565b60005b7bffffffffffffffffffffffffffffffffffffffffffffffffffffffff169250505092915050565b6124d7610cdb565b612516576040517f08c379a000000000000000000000000000000000000000000000000000000000815260040161250d90614d65565b60405180910390fd5b6000609760006101000a81548160ff0219169083151502179055507f5db9ee0a495bf2e6ff9c91a7834c1ba4fdd244a5e8aa4e537bd38aeae4b073aa61255a611bf4565b6040516125679190614ad8565b60405180910390a1565b61257b8282612e7c565b5050565b6125898282612f0a565b5050565b600061259883610c5d565b905060006125a584610fba565b90508261019460008673ffffffffffffffffffffffffffffffffffffffff1673ffffffffffffffffffffffffffffffffffffffff16815260200190815260200160002060006101000a81548173ffffffffffffffffffffffffffffffffffffffff021916908373ffffffffffffffffffffffffffffffffffffffff1602179055508273ffffffffffffffffffffffffffffffffffffffff168273ffffffffffffffffffffffffffffffffffffffff168573ffffffffffffffffffffffffffffffffffffffff167f3134e8a2e6d97e929a7e54011ea5485d7d196dd5f0ba4d4ef95803e8e3fc257f60405160405180910390a46126a2828483612f29565b50505050565b600063ffffffff80168211156126f3576040517f08c379a00000000000000000000000000000000000000000000000000000000081526004016126ea90615005565b60405180910390fd5b819050919050565b600081600001549050919050565b600061271430611b67565b15905090565b600060019054906101000a900460ff16612769576040517f08c379a000000000000000000000000000000000000000000000000000000000815260040161276090615045565b60405180910390fd5b6127738282613124565b5050565b600060019054906101000a900460ff166127c6576040517f08c379a00000000000000000000000000000000000000000000000000000000081526004016127bd90615045565b60405180910390fd5b565b600060019054906101000a900460ff16612817576040517f08c379a000000000000000000000000000000000000000000000000000000000815260040161280e90615045565b60405180910390fd5b61281f6131a5565b565b600060019054906101000a900460ff16612870576040517f08c379a000000000000000000000000000000000000000000000000000000000815260040161286790615045565b60405180910390fd5b565b600060019054906101000a900460ff166128c1576040517f08c379a00000000000000000000000000000000000000000000000000000000081526004016128b890615045565b60405180910390fd5b612900816040518060400160405280600181526020017f3100000000000000000000000000000000000000000000000000000000000000815250613211565b6129098161328e565b50565b600060019054906101000a900460ff1661295b576040517f08c379a000000000000000000000000000000000000000000000000000000000815260040161295290615045565b60405180910390fd5b565b612965610cdb565b156129a5576040517f08c379a000000000000000000000000000000000000000000000000000000000815260040161299c90614ec5565b60405180910390fd5b6001609760006101000a81548160ff0219169083151502179055507f62e78cea01bee320cd4e420270b5ea74000d11b0c9f74754ebdbfc544b05a2586129e9611bf4565b6040516129f69190614ad8565b60405180910390a1565b6000612a13612a0d612255565b83613308565b9050919050565b6000806000612a2b8787878761333b565b91509150612a3881613448565b8192505050949350505050565b60008061016160008473ffffffffffffffffffffffffffffffffffffffff1673ffffffffffffffffffffffffffffffffffffffff1681526020019081526020016000209050612a93816126fb565b9150612a9e81613799565b50919050565b612aac610cdb565b15612aec576040517f08c379a0000000000000000000000000000000000000000000000000000000008152600401612ae390614ec5565b60405180910390fd5b612af78383836137af565b505050565b612b078383836137b4565b505050565b606060006002836002612b1f91906153aa565b612b2991906151b2565b67ffffffffffffffff811115612b68577f4e487b7100000000000000000000000000000000000000000000000000000000600052604160045260246000fd5b6040519080825280601f01601f191660200182016040528015612b9a5781602001600182028036833780820191505090505b5090507f300000000000000000000000000000000000000000000000000000000000000081600081518110612bf8577f4e487b7100000000000000000000000000000000000000000000000000000000600052603260045260246000fd5b60200101907effffffffffffffffffffffffffffffffffffffffffffffffffffffffffffff1916908160001a9053507f780000000000000000000000000000000000000000000000000000000000000081600181518110612c82577f4e487b7100000000000000000000000000000000000000000000000000000000600052603260045260246000fd5b60200101907effffffffffffffffffffffffffffffffffffffffffffffffffffffffffffff1916908160001a90535060006001846002612cc291906153aa565b612ccc91906151b2565b90505b6001811115612db8577f3031323334353637383961626364656600000000000000000000000000000000600f861660108110612d34577f4e487b7100000000000000000000000000000000000000000000000000000000600052603260045260246000fd5b1a60f81b828281518110612d71577f4e487b7100000000000000000000000000000000000000000000000000000000600052603260045260246000fd5b60200101907effffffffffffffffffffffffffffffffffffffffffffffffffffffffffffff1916908160001a905350600485901c945080612db19061554f565b9050612ccf565b5060008414612dfc576040517f08c379a0000000000000000000000000000000000000000000000000000000008152600401612df390614d05565b60405180910390fd5b8091505092915050565b600061012d54905090565b600061012e54905090565b60008383834630604051602001612e37959493929190614c2b565b6040516020818303038152906040528051906020012090509392505050565b60006002828418612e679190615208565b828416612e7491906151b2565b905092915050565b612e8682826137df565b612e8e613940565b7bffffffffffffffffffffffffffffffffffffffffffffffffffffffff16612eb461096f565b1115612ef5576040517f08c379a0000000000000000000000000000000000000000000000000000000008152600401612eec90614f65565b60405180910390fd5b612f046101966139648361397a565b50505050565b612f148282613c64565b612f23610196613e3d8361397a565b50505050565b8173ffffffffffffffffffffffffffffffffffffffff168373ffffffffffffffffffffffffffffffffffffffff1614158015612f655750600081115b1561311f57600073ffffffffffffffffffffffffffffffffffffffff168373ffffffffffffffffffffffffffffffffffffffff161461304457600080612fed61019560008773ffffffffffffffffffffffffffffffffffffffff1673ffffffffffffffffffffffffffffffffffffffff168152602001908152602001600020613e3d8561397a565b915091508473ffffffffffffffffffffffffffffffffffffffff167fdec2bacdd2f05b59de34da9b523dff8be42e5e38e818c82fdb0bae774387a724838360405161303992919061511b565b60405180910390a250505b600073ffffffffffffffffffffffffffffffffffffffff168273ffffffffffffffffffffffffffffffffffffffff161461311e576000806130c761019560008673ffffffffffffffffffffffffffffffffffffffff1673ffffffffffffffffffffffffffffffffffffffff1681526020019081526020016000206139648561397a565b915091508373ffffffffffffffffffffffffffffffffffffffff167fdec2bacdd2f05b59de34da9b523dff8be42e5e38e818c82fdb0bae774387a724838360405161311392919061511b565b60405180910390a250505b5b505050565b600060019054906101000a900460ff16613173576040517f08c379a000000000000000000000000000000000000000000000000000000000815260040161316a90615045565b60405180910390fd5b8160369080519060200190613189929190613f01565b5080603790805190602001906131a0929190613f01565b505050565b600060019054906101000a900460ff166131f4576040517f08c379a00000000000000000000000000000000000000000000000000000000081526004016131eb90615045565b60405180910390fd5b6000609760006101000a81548160ff021916908315150217905550565b600060019054906101000a900460ff16613260576040517f08c379a000000000000000000000000000000000000000000000000000000000815260040161325790615045565b60405180910390fd5b6000828051906020012090506000828051906020012090508161012d819055508061012e8190555050505050565b600060019054906101000a900460ff166132dd576040517f08c379a00000000000000000000000000000000000000000000000000000000081526004016132d490615045565b60405180910390fd5b7f6e71edae12b1b97f4d1f60370fef10105fa2faae0126114a169c64845d6126c96101628190555050565b6000828260405160200161331d929190614a67565b60405160208183030381529060405280519060200120905092915050565b6000807f7fffffffffffffffffffffffffffffff5d576e7357a4501ddfe92f46681b20a08360001c111561337657600060039150915061343f565b601b8560ff161415801561338e5750601c8560ff1614155b156133a057600060049150915061343f565b6000600187878787604051600081526020016040526040516133c59493929190614c7e565b6020604051602081039080840390855afa1580156133e7573d6000803e3d6000fd5b505050602060405103519050600073ffffffffffffffffffffffffffffffffffffffff168173ffffffffffffffffffffffffffffffffffffffff1614156134365760006001925092505061343f565b80600092509250505b94509492505050565b60006004811115613482577f4e487b7100000000000000000000000000000000000000000000000000000000600052602160045260246000fd5b8160048111156134bb577f4e487b7100000000000000000000000000000000000000000000000000000000600052602160045260246000fd5b14156134c657613796565b60016004811115613500577f4e487b7100000000000000000000000000000000000000000000000000000000600052602160045260246000fd5b816004811115613539577f4e487b7100000000000000000000000000000000000000000000000000000000600052602160045260246000fd5b141561357a576040517f08c379a000000000000000000000000000000000000000000000000000000000815260040161357190614ce5565b60405180910390fd5b600260048111156135b4577f4e487b7100000000000000000000000000000000000000000000000000000000600052602160045260246000fd5b8160048111156135ed577f4e487b7100000000000000000000000000000000000000000000000000000000600052602160045260246000fd5b141561362e576040517f08c379a000000000000000000000000000000000000000000000000000000000815260040161362590614dc5565b60405180910390fd5b60036004811115613668577f4e487b7100000000000000000000000000000000000000000000000000000000600052602160045260246000fd5b8160048111156136a1577f4e487b7100000000000000000000000000000000000000000000000000000000600052602160045260246000fd5b14156136e2576040517f08c379a00000000000000000000000000000000000000000000000000000000081526004016136d990614e85565b60405180910390fd5b60048081111561371b577f4e487b7100000000000000000000000000000000000000000000000000000000600052602160045260246000fd5b816004811115613754577f4e487b7100000000000000000000000000000000000000000000000000000000600052602160045260246000fd5b1415613795576040517f08c379a000000000000000000000000000000000000000000000000000000000815260040161378c90614f25565b60405180910390fd5b5b50565b6001816000016000828254019250508190555050565b505050565b6137bf838383613e53565b6137da6137cb84610c5d565b6137d484610c5d565b83612f29565b505050565b600073ffffffffffffffffffffffffffffffffffffffff168273ffffffffffffffffffffffffffffffffffffffff16141561384f576040517f08c379a0000000000000000000000000000000000000000000000000000000008152600401613846906150c5565b60405180910390fd5b61385b60008383612aa4565b806035600082825461386d91906151b2565b9250508190555080603360008473ffffffffffffffffffffffffffffffffffffffff1673ffffffffffffffffffffffffffffffffffffffff16815260200190815260200160002060008282546138c391906151b2565b925050819055508173ffffffffffffffffffffffffffffffffffffffff16600073ffffffffffffffffffffffffffffffffffffffff167fddf252ad1be2c89b69c2b068fc378daa952ba7f163c4a11628f55a4df523b3ef836040516139289190615100565b60405180910390a361393c60008383612afc565b5050565b60007bffffffffffffffffffffffffffffffffffffffffffffffffffffffff905090565b6000818361397291906151b2565b905092915050565b60008060008580549050905060008114613a0e578560018261399c9190615404565b815481106139d3577f4e487b7100000000000000000000000000000000000000000000000000000000600052603260045260246000fd5b9060005260206000200160000160049054906101000a90047bffffffffffffffffffffffffffffffffffffffffffffffffffffffff16613a11565b60005b7bffffffffffffffffffffffffffffffffffffffffffffffffffffffff169250613a3f83858763ffffffff16565b9150600081118015613ab857504386600183613a5b9190615404565b81548110613a92577f4e487b7100000000000000000000000000000000000000000000000000000000600052603260045260246000fd5b9060005260206000200160000160009054906101000a900463ffffffff1663ffffffff16145b15613b6b57613ac682613e58565b86600183613ad49190615404565b81548110613b0b577f4e487b7100000000000000000000000000000000000000000000000000000000600052603260045260246000fd5b9060005260206000200160000160046101000a8154817bffffffffffffffffffffffffffffffffffffffffffffffffffffffff02191690837bffffffffffffffffffffffffffffffffffffffffffffffffffffffff160217905550613c5b565b856040518060400160405280613b80436126a8565b63ffffffff168152602001613b9485613e58565b7bffffffffffffffffffffffffffffffffffffffffffffffffffffffff168152509080600181540180825580915050600190039060005260206000200160009091909190915060008201518160000160006101000a81548163ffffffff021916908363ffffffff16021790555060208201518160000160046101000a8154817bffffffffffffffffffffffffffffffffffffffffffffffffffffffff02191690837bffffffffffffffffffffffffffffffffffffffffffffffffffffffff16021790555050505b50935093915050565b600073ffffffffffffffffffffffffffffffffffffffff168273ffffffffffffffffffffffffffffffffffffffff161415613cd4576040517f08c379a0000000000000000000000000000000000000000000000000000000008152600401613ccb90614fc5565b60405180910390fd5b613ce082600083612aa4565b6000603360008473ffffffffffffffffffffffffffffffffffffffff1673ffffffffffffffffffffffffffffffffffffffff16815260200190815260200160002054905081811015613d67576040517f08c379a0000000000000000000000000000000000000000000000000000000008152600401613d5e90614da5565b60405180910390fd5b818103603360008573ffffffffffffffffffffffffffffffffffffffff1673ffffffffffffffffffffffffffffffffffffffff168152602001908152602001600020819055508160356000828254613dbf9190615404565b92505081905550600073ffffffffffffffffffffffffffffffffffffffff168373ffffffffffffffffffffffffffffffffffffffff167fddf252ad1be2c89b69c2b068fc378daa952ba7f163c4a11628f55a4df523b3ef84604051613e249190615100565b60405180910390a3613e3883600084612afc565b505050565b60008183613e4b9190615404565b905092915050565b505050565b60007bffffffffffffffffffffffffffffffffffffffffffffffffffffffff8016821115613ebb576040517f08c379a0000000000000000000000000000000000000000000000000000000008152600401613eb290614f85565b60405180910390fd5b819050919050565b6040518060400160405280600063ffffffff16815260200160007bffffffffffffffffffffffffffffffffffffffffffffffffffffffff1681525090565b828054613f0d90615579565b90600052602060002090601f016020900481019282613f2f5760008555613f76565b82601f10613f4857805160ff1916838001178555613f76565b82800160010185558215613f76579182015b82811115613f75578251825591602001919060010190613f5a565b5b509050613f839190613f87565b5090565b5b80821115613fa0576000816000905550600101613f88565b5090565b600081359050613fb381615ecd565b92915050565b600081359050613fc881615ee4565b92915050565b600081519050613fdd81615ee4565b92915050565b600081359050613ff281615efb565b92915050565b60008083601f84011261400a57600080fd5b8235905067ffffffffffffffff81111561402357600080fd5b60208301915083600182028301111561403b57600080fd5b9250929050565b60008135905061405181615f12565b92915050565b60008135905061406681615f29565b92915050565b60008135905061407b81615f40565b92915050565b60008135905061409081615f57565b92915050565b6000602082840312156140a857600080fd5b60006140b684828501613fa4565b91505092915050565b600080604083850312156140d257600080fd5b60006140e085828601613fa4565b92505060206140f185828601613fa4565b9150509250929050565b60008060006060848603121561411057600080fd5b600061411e86828701613fa4565b935050602061412f86828701613fa4565b925050604061414086828701614057565b9150509250925092565b600080600080600080600060e0888a03121561416557600080fd5b60006141738a828b01613fa4565b97505060206141848a828b01613fa4565b96505060406141958a828b01614057565b95505060606141a68a828b01614057565b94505060806141b78a828b01614081565b93505060a06141c88a828b01613fb9565b92505060c06141d98a828b01613fb9565b91505092959891949750929550565b600080604083850312156141fb57600080fd5b600061420985828601613fa4565b925050602061421a85828601614057565b9150509250929050565b60008060008060008060c0878903121561423d57600080fd5b600061424b89828a01613fa4565b965050602061425c89828a01614057565b955050604061426d89828a01614057565b945050606061427e89828a01614081565b935050608061428f89828a01613fb9565b92505060a06142a089828a01613fb9565b9150509295509295509295565b600080604083850312156142c057600080fd5b60006142ce85828601613fa4565b92505060206142df8582860161406c565b9150509250929050565b6000602082840312156142fb57600080fd5b600061430984828501613fb9565b91505092915050565b60006020828403121561432457600080fd5b600061433284828501613fce565b91505092915050565b6000806040838503121561434e57600080fd5b600061435c85828601613fb9565b925050602061436d85828601613fa4565b9150509250929050565b60006020828403121561438957600080fd5b600061439784828501613fe3565b91505092915050565b6000806000806000608086880312156143b857600080fd5b60006143c688828901614042565b95505060206143d788828901613fa4565b94505060406143e888828901614057565b935050606086013567ffffffffffffffff81111561440557600080fd5b61441188828901613ff8565b92509250509295509295909350565b60006020828403121561443257600080fd5b600061444084828501614057565b91505092915050565b61445281615438565b82525050565b6144618161544a565b82525050565b61447081615456565b82525050565b61448761448282615456565b6155ab565b82525050565b60006144998385615185565b93506144a683858461550d565b6144af83615642565b840190509392505050565b60006144c58261517a565b6144cf8185615196565b93506144df81856020860161551c565b6144e881615642565b840191505092915050565b60006144fe8261517a565b61450881856151a7565b935061451881856020860161551c565b80840191505092915050565b6000614531601883615196565b915061453c82615660565b602082019050919050565b6000614554602083615196565b915061455f82615689565b602082019050919050565b6000614577602383615196565b9150614582826156b2565b604082019050919050565b600061459a601f83615196565b91506145a582615701565b602082019050919050565b60006145bd601483615196565b91506145c88261572a565b602082019050919050565b60006145e0601d83615196565b91506145eb82615753565b602082019050919050565b6000614603602283615196565b915061460e8261577c565b604082019050919050565b6000614626601f83615196565b9150614631826157cb565b602082019050919050565b6000614649601983615196565b9150614654826157f4565b602082019050919050565b600061466c602283615196565b91506146778261581d565b604082019050919050565b600061468f6002836151a7565b915061469a8261586c565b600282019050919050565b60006146b2601d83615196565b91506146bd82615895565b602082019050919050565b60006146d5601d83615196565b91506146e0826158be565b602082019050919050565b60006146f8602683615196565b9150614703826158e7565b604082019050919050565b600061471b602283615196565b915061472682615936565b604082019050919050565b600061473e602483615196565b915061474982615985565b604082019050919050565b6000614761601083615196565b915061476c826159d4565b602082019050919050565b6000614784602e83615196565b915061478f826159fd565b604082019050919050565b60006147a7601b83615196565b91506147b282615a4c565b602082019050919050565b60006147ca602283615196565b91506147d582615a75565b604082019050919050565b60006147ed601e83615196565b91506147f882615ac4565b602082019050919050565b6000614810603083615196565b915061481b82615aed565b604082019050919050565b6000614833602783615196565b915061483e82615b3c565b604082019050919050565b6000614856602b83615196565b915061486182615b8b565b604082019050919050565b6000614879602183615196565b915061488482615bda565b604082019050919050565b600061489c602583615196565b91506148a782615c29565b604082019050919050565b60006148bf602683615196565b91506148ca82615c78565b604082019050919050565b60006148e2602483615196565b91506148ed82615cc7565b604082019050919050565b6000614905602b83615196565b915061491082615d16565b604082019050919050565b60006149286017836151a7565b915061493382615d65565b601782019050919050565b600061494b602f83615196565b915061495682615d8e565b604082019050919050565b600061496e602583615196565b915061497982615ddd565b604082019050919050565b60006149916011836151a7565b915061499c82615e2c565b601182019050919050565b60006149b4602f83615196565b91506149bf82615e55565b604082019050919050565b60006149d7601f83615196565b91506149e282615ea4565b602082019050919050565b604082016000820151614a036000850182614a3a565b506020820151614a166020850182614a1c565b50505050565b614a25816154be565b82525050565b614a34816154e6565b82525050565b614a43816154f0565b82525050565b614a52816154f0565b82525050565b614a6181615500565b82525050565b6000614a7282614682565b9150614a7e8285614476565b602082019150614a8e8284614476565b6020820191508190509392505050565b6000614aa98261491b565b9150614ab582856144f3565b9150614ac082614984565b9150614acc82846144f3565b91508190509392505050565b6000602082019050614aed6000830184614449565b92915050565b600060a082019050614b086000830189614449565b614b156020830188614449565b614b226040830187614a2b565b614b2f6060830186614a2b565b8181036080830152614b4281848661448d565b9050979650505050505050565b6000602082019050614b646000830184614458565b92915050565b6000602082019050614b7f6000830184614467565b92915050565b600060c082019050614b9a6000830189614467565b614ba76020830188614449565b614bb46040830187614449565b614bc16060830186614a2b565b614bce6080830185614a2b565b614bdb60a0830184614a2b565b979650505050505050565b6000608082019050614bfb6000830187614467565b614c086020830186614449565b614c156040830185614a2b565b614c226060830184614a2b565b95945050505050565b600060a082019050614c406000830188614467565b614c4d6020830187614467565b614c5a6040830186614467565b614c676060830185614a2b565b614c746080830184614449565b9695505050505050565b6000608082019050614c936000830187614467565b614ca06020830186614a58565b614cad6040830185614467565b614cba6060830184614467565b95945050505050565b60006020820190508181036000830152614cdd81846144ba565b905092915050565b60006020820190508181036000830152614cfe81614524565b9050919050565b60006020820190508181036000830152614d1e81614547565b9050919050565b60006020820190508181036000830152614d3e8161456a565b9050919050565b60006020820190508181036000830152614d5e8161458d565b9050919050565b60006020820190508181036000830152614d7e816145b0565b9050919050565b60006020820190508181036000830152614d9e816145d3565b9050919050565b60006020820190508181036000830152614dbe816145f6565b9050919050565b60006020820190508181036000830152614dde81614619565b9050919050565b60006020820190508181036000830152614dfe8161463c565b9050919050565b60006020820190508181036000830152614e1e8161465f565b9050919050565b60006020820190508181036000830152614e3e816146a5565b9050919050565b60006020820190508181036000830152614e5e816146c8565b9050919050565b60006020820190508181036000830152614e7e816146eb565b9050919050565b60006020820190508181036000830152614e9e8161470e565b9050919050565b60006020820190508181036000830152614ebe81614731565b9050919050565b60006020820190508181036000830152614ede81614754565b9050919050565b60006020820190508181036000830152614efe81614777565b9050919050565b60006020820190508181036000830152614f1e8161479a565b9050919050565b60006020820190508181036000830152614f3e816147bd565b9050919050565b60006020820190508181036000830152614f5e816147e0565b9050919050565b60006020820190508181036000830152614f7e81614803565b9050919050565b60006020820190508181036000830152614f9e81614826565b9050919050565b60006020820190508181036000830152614fbe81614849565b9050919050565b60006020820190508181036000830152614fde8161486c565b9050919050565b60006020820190508181036000830152614ffe8161488f565b9050919050565b6000602082019050818103600083015261501e816148b2565b9050919050565b6000602082019050818103600083015261503e816148d5565b9050919050565b6000602082019050818103600083015261505e816148f8565b9050919050565b6000602082019050818103600083015261507e8161493e565b9050919050565b6000602082019050818103600083015261509e81614961565b9050919050565b600060208201905081810360008301526150be816149a7565b9050919050565b600060208201905081810360008301526150de816149ca565b9050919050565b60006040820190506150fa60008301846149ed565b92915050565b60006020820190506151156000830184614a2b565b92915050565b60006040820190506151306000830185614a2b565b61513d6020830184614a2b565b9392505050565b60006020820190506151596000830184614a49565b92915050565b60006020820190506151746000830184614a58565b92915050565b600081519050919050565b600082825260208201905092915050565b600082825260208201905092915050565b600081905092915050565b60006151bd826154e6565b91506151c8836154e6565b9250827fffffffffffffffffffffffffffffffffffffffffffffffffffffffffffffffff038211156151fd576151fc6155b5565b5b828201905092915050565b6000615213826154e6565b915061521e836154e6565b92508261522e5761522d6155e4565b5b828204905092915050565b6000808291508390505b60018511156152835780860481111561525f5761525e6155b5565b5b600185161561526e5780820291505b808102905061527c85615653565b9450615243565b94509492505050565b6000615297826154e6565b91506152a283615500565b92506152cf7fffffffffffffffffffffffffffffffffffffffffffffffffffffffffffffffff84846152d7565b905092915050565b6000826152e757600190506153a3565b816152f557600090506153a3565b816001811461530b576002811461531557615344565b60019150506153a3565b60ff841115615327576153266155b5565b5b8360020a91508482111561533e5761533d6155b5565b5b506153a3565b5060208310610133831016604e8410600b84101617156153795782820a905083811115615374576153736155b5565b5b6153a3565b6153868484846001615239565b9250905081840481111561539d5761539c6155b5565b5b81810290505b9392505050565b60006153b5826154e6565b91506153c0836154e6565b9250817fffffffffffffffffffffffffffffffffffffffffffffffffffffffffffffffff04831182151516156153f9576153f86155b5565b5b828202905092915050565b600061540f826154e6565b915061541a836154e6565b92508282101561542d5761542c6155b5565b5b828203905092915050565b60006154438261549e565b9050919050565b60008115159050919050565b6000819050919050565b60007fffffffff0000000000000000000000000000000000000000000000000000000082169050919050565b600061549782615438565b9050919050565b600073ffffffffffffffffffffffffffffffffffffffff82169050919050565b60007bffffffffffffffffffffffffffffffffffffffffffffffffffffffff82169050919050565b6000819050919050565b600063ffffffff82169050919050565b600060ff82169050919050565b82818337600083830152505050565b60005b8381101561553a57808201518184015260208101905061551f565b83811115615549576000848401525b50505050565b600061555a826154e6565b9150600082141561556e5761556d6155b5565b5b600182039050919050565b6000600282049050600182168061559157607f821691505b602082108114156155a5576155a4615613565b5b50919050565b6000819050919050565b7f4e487b7100000000000000000000000000000000000000000000000000000000600052601160045260246000fd5b7f4e487b7100000000000000000000000000000000000000000000000000000000600052601260045260246000fd5b7f4e487b7100000000000000000000000000000000000000000000000000000000600052602260045260246000fd5b6000601f19601f8301169050919050565b60008160011c9050919050565b7f45434453413a20696e76616c6964207369676e61747572650000000000000000600082015250565b7f537472696e67733a20686578206c656e67746820696e73756666696369656e74600082015250565b7f45524332303a207472616e7366657220746f20746865207a65726f206164647260008201527f6573730000000000000000000000000000000000000000000000000000000000602082015250565b7f4552433230566f7465733a20626c6f636b206e6f7420796574206d696e656400600082015250565b7f5061757361626c653a206e6f7420706175736564000000000000000000000000600082015250565b7f4552433230566f7465733a207369676e61747572652065787069726564000000600082015250565b7f45524332303a206275726e20616d6f756e7420657863656564732062616c616e60008201527f6365000000000000000000000000000000000000000000000000000000000000602082015250565b7f45434453413a20696e76616c6964207369676e6174757265206c656e67746800600082015250565b7f4552433230566f7465733a20696e76616c6964206e6f6e636500000000000000600082015250565b7f45524332303a20617070726f766520746f20746865207a65726f20616464726560008201527f7373000000000000000000000000000000000000000000000000000000000000602082015250565b7f1901000000000000000000000000000000000000000000000000000000000000600082015250565b7f45524332303a20696e73756666696369656e7420616c6c6f77616e6365000000600082015250565b7f45524332305065726d69743a206578706972656420646561646c696e65000000600082015250565b7f45524332303a207472616e7366657220616d6f756e742065786365656473206260008201527f616c616e63650000000000000000000000000000000000000000000000000000602082015250565b7f45434453413a20696e76616c6964207369676e6174757265202773272076616c60008201527f7565000000000000000000000000000000000000000000000000000000000000602082015250565b7f4552433230466c6173684d696e743a20696e76616c69642072657475726e207660008201527f616c756500000000000000000000000000000000000000000000000000000000602082015250565b7f5061757361626c653a2070617573656400000000000000000000000000000000600082015250565b7f496e697469616c697a61626c653a20636f6e747261637420697320616c72656160008201527f647920696e697469616c697a6564000000000000000000000000000000000000602082015250565b7f4552433230466c6173684d696e743a2077726f6e6720746f6b656e0000000000600082015250565b7f45434453413a20696e76616c6964207369676e6174757265202776272076616c60008201527f7565000000000000000000000000000000000000000000000000000000000000602082015250565b7f45524332305065726d69743a20696e76616c6964207369676e61747572650000600082015250565b7f4552433230566f7465733a20746f74616c20737570706c79207269736b73206f60008201527f766572666c6f77696e6720766f74657300000000000000000000000000000000602082015250565b7f53616665436173743a2076616c756520646f65736e27742066697420696e203260008201527f3234206269747300000000000000000000000000000000000000000000000000602082015250565b7f4552433230466c6173684d696e743a20616d6f756e742065786365656473206d60008201527f6178466c6173684c6f616e000000000000000000000000000000000000000000602082015250565b7f45524332303a206275726e2066726f6d20746865207a65726f2061646472657360008201527f7300000000000000000000000000000000000000000000000000000000000000602082015250565b7f45524332303a207472616e736665722066726f6d20746865207a65726f20616460008201527f6472657373000000000000000000000000000000000000000000000000000000602082015250565b7f53616665436173743a2076616c756520646f65736e27742066697420696e203360008201527f3220626974730000000000000000000000000000000000000000000000000000602082015250565b7f45524332303a20617070726f76652066726f6d20746865207a65726f2061646460008201527f7265737300000000000000000000000000000000000000000000000000000000602082015250565b7f496e697469616c697a61626c653a20636f6e7472616374206973206e6f74206960008201527f6e697469616c697a696e67000000000000000000000000000000000000000000602082015250565b7f416363657373436f6e74726f6c3a206163636f756e7420000000000000000000600082015250565b7f4552433230466c6173684d696e743a20616c6c6f77616e636520646f6573206e60008201527f6f7420616c6c6f7720726566756e640000000000000000000000000000000000602082015250565b7f45524332303a2064656372656173656420616c6c6f77616e63652062656c6f7760008201527f207a65726f000000000000000000000000000000000000000000000000000000602082015250565b7f206973206d697373696e6720726f6c6520000000000000000000000000000000600082015250565b7f416363657373436f6e74726f6c3a2063616e206f6e6c792072656e6f756e636560008201527f20726f6c657320666f722073656c660000000000000000000000000000000000602082015250565b7f45524332303a206d696e7420746f20746865207a65726f206164647265737300600082015250565b615ed681615438565b8114615ee157600080fd5b50565b615eed81615456565b8114615ef857600080fd5b50565b615f0481615460565b8114615f0f57600080fd5b50565b615f1b8161548c565b8114615f2657600080fd5b50565b615f32816154e6565b8114615f3d57600080fd5b50565b615f49816154f0565b8114615f5457600080fd5b50565b615f6081615500565b8114615f6b57600080fd5b5056fea26469706673582212201c4fe2c73a5c1a5fe44b48bf642b9ed7d933b428462a7946787783e7acb3a82f64736f6c63430008040033",
  "linkReferences": {},
  "deployedLinkReferences": {}
}