{
  "_format": "hh-sol-artifact-1",
  "contractName": "ERC20ToCompound",
  "sourceName": "contracts/ERC20ToCompound.sol",
  "abi": [
    {
      "inputs": [],
      "stateMutability": "nonpayable",
      "type": "constructor"
    },
    {
      "anonymous": false,
      "inputs": [
        {
          "indexed": false,
          "internalType": "string",
          "name": "name",
          "type": "string"
        },
        {
          "indexed": false,
          "internalType": "uint32",
          "name": "decimal",
          "type": "uint32"
        },
        {
          "indexed": false,
          "internalType": "string",
          "name": "symbol",
          "type": "string"
        },
        {
          "indexed": false,
          "internalType": "string",
          "name": "icon",
          "type": "string"
        },
        {
          "indexed": false,
          "internalType": "address",
          "name": "token",
          "type": "address"
        },
        {
          "indexed": false,
          "internalType": "address",
          "name": "cToken",
          "type": "address"
        }
      ],
      "name": "CompoundTokenAdded",
      "type": "event"
    },
    {
      "anonymous": false,
      "inputs": [
        {
          "indexed": true,
          "internalType": "address",
          "name": "previousOwner",
          "type": "address"
        },
        {
          "indexed": true,
          "internalType": "address",
          "name": "newOwner",
          "type": "address"
        }
      ],
      "name": "OwnershipTransferred",
      "type": "event"
    },
    {
      "inputs": [
        {
          "internalType": "string",
          "name": "name",
          "type": "string"
        },
        {
          "internalType": "uint32",
          "name": "decimal",
          "type": "uint32"
        },
        {
          "internalType": "string",
          "name": "symbol",
          "type": "string"
        },
        {
          "internalType": "string",
          "name": "icon",
          "type": "string"
        },
        {
          "internalType": "address",
          "name": "token",
          "type": "address"
        },
        {
          "internalType": "address",
          "name": "cToken",
          "type": "address"
        }
      ],
      "name": "addRelaventCtoken",
      "outputs": [],
      "stateMutability": "nonpayable",
      "type": "function"
    },
    {
      "inputs": [
        {
          "internalType": "address",
          "name": "token",
          "type": "address"
        }
      ],
      "name": "getRelaventCToken",
      "outputs": [
        {
          "internalType": "address",
          "name": "",
          "type": "address"
        }
      ],
      "stateMutability": "view",
      "type": "function"
    },
    {
      "inputs": [],
      "name": "owner",
      "outputs": [
        {
          "internalType": "address",
          "name": "",
          "type": "address"
        }
      ],
      "stateMutability": "view",
      "type": "function"
    },
    {
      "inputs": [],
      "name": "renounceOwnership",
      "outputs": [],
      "stateMutability": "nonpayable",
      "type": "function"
    },
    {
      "inputs": [
        {
          "internalType": "address",
          "name": "newOwner",
          "type": "address"
        }
      ],
      "name": "transferOwnership",
      "outputs": [],
      "stateMutability": "nonpayable",
      "type": "function"
    }
  ],
  "bytecode": "0x608060405234801561001057600080fd5b5061002d61002261041660201b60201c565b61041e60201b60201c565b73af50a5a6af87418dac1f28f9797ceb3bfb62750a600160007360b10c134088ebd63f80766874e2cade05fc987b73ffffffffffffffffffffffffffffffffffffffff1673ffffffffffffffffffffffffffffffffffffffff16815260200190815260200160002060006101000a81548173ffffffffffffffffffffffffffffffffffffffff021916908373ffffffffffffffffffffffffffffffffffffffff16021790555073bc689667c13fb2a04f09272753760e38a95b998c6001600073ad6d458402f60fd3bd25163575031acdce07538d73ffffffffffffffffffffffffffffffffffffffff1673ffffffffffffffffffffffffffffffffffffffff16815260200190815260200160002060006101000a81548173ffffffffffffffffffffffffffffffffffffffff021916908373ffffffffffffffffffffffffffffffffffffffff1602179055507365280b21167bbd059221488b7cbe759f9fb18bb56001600073c8f88977e21630cf93c02d02d9e8812ff0dfc37a73ffffffffffffffffffffffffffffffffffffffff1673ffffffffffffffffffffffffffffffffffffffff16815260200190815260200160002060006101000a81548173ffffffffffffffffffffffffffffffffffffffff021916908373ffffffffffffffffffffffffffffffffffffffff16021790555073541c9cb0e97b77f142684cc33e8ac9ac17b1990f600160007365058d7081fcdc3cd8727dbb7f8f9d52cefdd29173ffffffffffffffffffffffffffffffffffffffff1673ffffffffffffffffffffffffffffffffffffffff16815260200190815260200160002060006101000a81548173ffffffffffffffffffffffffffffffffffffffff021916908373ffffffffffffffffffffffffffffffffffffffff160217905550732973e69b20563bcc66dc63bde153072c33ef37fe6001600073fe724a829fdf12f7012365db98730eee33742ea273ffffffffffffffffffffffffffffffffffffffff1673ffffffffffffffffffffffffffffffffffffffff16815260200190815260200160002060006101000a81548173ffffffffffffffffffffffffffffffffffffffff021916908373ffffffffffffffffffffffffffffffffffffffff16021790555073f6958cf3127e62d3eb26c79f4f45d3f3b2ccded460016000736ee856ae55b6e1a249f04cd3b947141bc146273c73ffffffffffffffffffffffffffffffffffffffff1673ffffffffffffffffffffffffffffffffffffffff16815260200190815260200160002060006101000a81548173ffffffffffffffffffffffffffffffffffffffff021916908373ffffffffffffffffffffffffffffffffffffffff1602179055506104e2565b600033905090565b60008060009054906101000a900473ffffffffffffffffffffffffffffffffffffffff169050816000806101000a81548173ffffffffffffffffffffffffffffffffffffffff021916908373ffffffffffffffffffffffffffffffffffffffff1602179055508173ffffffffffffffffffffffffffffffffffffffff168173ffffffffffffffffffffffffffffffffffffffff167f8be0079c531659141344cd1fd0a4f28419497f9722a3daafe3b4186f6b6457e060405160405180910390a35050565b610a4a806104f16000396000f3fe608060405234801561001057600080fd5b50600436106100575760003560e01c8063715018a61461005c5780638da5cb5b146100665780639e46e2c314610084578063b3b7d877146100a0578063f2fde38b146100d0575b600080fd5b6100646100ec565b005b61006e610174565b60405161007b9190610736565b60405180910390f35b61009e600480360381019061009991906105c8565b61019d565b005b6100ba60048036038101906100b5919061059f565b6102e0565b6040516100c79190610736565b60405180910390f35b6100ea60048036038101906100e5919061059f565b610349565b005b6100f4610441565b73ffffffffffffffffffffffffffffffffffffffff16610112610174565b73ffffffffffffffffffffffffffffffffffffffff1614610168576040517f08c379a000000000000000000000000000000000000000000000000000000000815260040161015f906107e7565b60405180910390fd5b6101726000610449565b565b60008060009054906101000a900473ffffffffffffffffffffffffffffffffffffffff16905090565b6101a5610441565b73ffffffffffffffffffffffffffffffffffffffff166101c3610174565b73ffffffffffffffffffffffffffffffffffffffff1614610219576040517f08c379a0000000000000000000000000000000000000000000000000000000008152600401610210906107e7565b60405180910390fd5b80600160008473ffffffffffffffffffffffffffffffffffffffff1673ffffffffffffffffffffffffffffffffffffffff16815260200190815260200160002060006101000a81548173ffffffffffffffffffffffffffffffffffffffff021916908373ffffffffffffffffffffffffffffffffffffffff1602179055507f72bdb52b9e8053e4a61e7068dc603c8fb5baf1ab7adeefa336d5ee2582159a318686868686866040516102d096959493929190610751565b60405180910390a1505050505050565b6000600160008373ffffffffffffffffffffffffffffffffffffffff1673ffffffffffffffffffffffffffffffffffffffff16815260200190815260200160002060009054906101000a900473ffffffffffffffffffffffffffffffffffffffff169050919050565b610351610441565b73ffffffffffffffffffffffffffffffffffffffff1661036f610174565b73ffffffffffffffffffffffffffffffffffffffff16146103c5576040517f08c379a00000000000000000000000000000000000000000000000000000000081526004016103bc906107e7565b60405180910390fd5b600073ffffffffffffffffffffffffffffffffffffffff168173ffffffffffffffffffffffffffffffffffffffff161415610435576040517f08c379a000000000000000000000000000000000000000000000000000000000815260040161042c906107c7565b60405180910390fd5b61043e81610449565b50565b600033905090565b60008060009054906101000a900473ffffffffffffffffffffffffffffffffffffffff169050816000806101000a81548173ffffffffffffffffffffffffffffffffffffffff021916908373ffffffffffffffffffffffffffffffffffffffff1602179055508173ffffffffffffffffffffffffffffffffffffffff168173ffffffffffffffffffffffffffffffffffffffff167f8be0079c531659141344cd1fd0a4f28419497f9722a3daafe3b4186f6b6457e060405160405180910390a35050565b600061052061051b8461082c565b610807565b90508281526020810184848401111561053857600080fd5b6105438482856108bb565b509392505050565b60008135905061055a816109e6565b92915050565b600082601f83011261057157600080fd5b813561058184826020860161050d565b91505092915050565b600081359050610599816109fd565b92915050565b6000602082840312156105b157600080fd5b60006105bf8482850161054b565b91505092915050565b60008060008060008060c087890312156105e157600080fd5b600087013567ffffffffffffffff8111156105fb57600080fd5b61060789828a01610560565b965050602061061889828a0161058a565b955050604087013567ffffffffffffffff81111561063557600080fd5b61064189828a01610560565b945050606087013567ffffffffffffffff81111561065e57600080fd5b61066a89828a01610560565b935050608061067b89828a0161054b565b92505060a061068c89828a0161054b565b9150509295509295509295565b6106a281610879565b82525050565b60006106b38261085d565b6106bd8185610868565b93506106cd8185602086016108ca565b6106d68161095d565b840191505092915050565b60006106ee602683610868565b91506106f98261096e565b604082019050919050565b6000610711602083610868565b915061071c826109bd565b602082019050919050565b610730816108ab565b82525050565b600060208201905061074b6000830184610699565b92915050565b600060c082019050818103600083015261076b81896106a8565b905061077a6020830188610727565b818103604083015261078c81876106a8565b905081810360608301526107a081866106a8565b90506107af6080830185610699565b6107bc60a0830184610699565b979650505050505050565b600060208201905081810360008301526107e0816106e1565b9050919050565b6000602082019050818103600083015261080081610704565b9050919050565b6000610811610822565b905061081d82826108fd565b919050565b6000604051905090565b600067ffffffffffffffff8211156108475761084661092e565b5b6108508261095d565b9050602081019050919050565b600081519050919050565b600082825260208201905092915050565b60006108848261088b565b9050919050565b600073ffffffffffffffffffffffffffffffffffffffff82169050919050565b600063ffffffff82169050919050565b82818337600083830152505050565b60005b838110156108e85780820151818401526020810190506108cd565b838111156108f7576000848401525b50505050565b6109068261095d565b810181811067ffffffffffffffff821117156109255761092461092e565b5b80604052505050565b7f4e487b7100000000000000000000000000000000000000000000000000000000600052604160045260246000fd5b6000601f19601f8301169050919050565b7f4f776e61626c653a206e6577206f776e657220697320746865207a65726f206160008201527f6464726573730000000000000000000000000000000000000000000000000000602082015250565b7f4f776e61626c653a2063616c6c6572206973206e6f7420746865206f776e6572600082015250565b6109ef81610879565b81146109fa57600080fd5b50565b610a06816108ab565b8114610a1157600080fd5b5056fea2646970667358221220292bf8255864aa52380d9541c93b6461ee1d18e3555c12be15bc0c1d24eaa5f264736f6c63430008040033",
  "linkReferences": {},
  "deployedLinkReferences": {}
}