{
  "_format": "hh-sol-artifact-1",
  "contractName": "Payments",
  "sourceName": "contracts/Payments.sol",
  "abi": [
    {
      "inputs": [
        {
          "internalType": "address",
          "name": "_neobank",
          "type": "address"
        }
      ],
      "stateMutability": "nonpayable",
      "type": "constructor"
    },
    {
      "anonymous": false,
      "inputs": [
        {
          "indexed": true,
          "internalType": "address",
          "name": "previousOwner",
          "type": "address"
        },
        {
          "indexed": true,
          "internalType": "address",
          "name": "newOwner",
          "type": "address"
        }
      ],
      "name": "OwnershipTransferred",
      "type": "event"
    },
    {
      "anonymous": false,
      "inputs": [
        {
          "indexed": false,
          "internalType": "address",
          "name": "_owner",
          "type": "address"
        },
        {
          "indexed": false,
          "internalType": "uint256",
          "name": "paymentLinkId",
          "type": "uint256"
        },
        {
          "indexed": false,
          "internalType": "string",
          "name": "_url",
          "type": "string"
        },
        {
          "indexed": false,
          "internalType": "string",
          "name": "_type",
          "type": "string"
        },
        {
          "indexed": false,
          "internalType": "address",
          "name": "receiver",
          "type": "address"
        },
        {
          "indexed": false,
          "internalType": "uint256",
          "name": "account",
          "type": "uint256"
        },
        {
          "indexed": false,
          "internalType": "string",
          "name": "metadata",
          "type": "string"
        }
      ],
      "name": "PaymentLinkCreated",
      "type": "event"
    },
    {
      "anonymous": false,
      "inputs": [
        {
          "indexed": false,
          "internalType": "uint256",
          "name": "paymentId",
          "type": "uint256"
        },
        {
          "indexed": false,
          "internalType": "string",
          "name": "mode",
          "type": "string"
        },
        {
          "indexed": false,
          "internalType": "address",
          "name": "sender",
          "type": "address"
        },
        {
          "indexed": false,
          "internalType": "address",
          "name": "receiver",
          "type": "address"
        },
        {
          "indexed": false,
          "internalType": "uint256",
          "name": "account",
          "type": "uint256"
        },
        {
          "indexed": false,
          "internalType": "uint256",
          "name": "amount",
          "type": "uint256"
        },
        {
          "indexed": false,
          "internalType": "uint256",
          "name": "fee",
          "type": "uint256"
        },
        {
          "indexed": false,
          "internalType": "uint256",
          "name": "timestamp",
          "type": "uint256"
        },
        {
          "indexed": false,
          "internalType": "address",
          "name": "currency",
          "type": "address"
        }
      ],
      "name": "PaymentMade",
      "type": "event"
    },
    {
      "inputs": [
        {
          "internalType": "uint256",
          "name": "amount",
          "type": "uint256"
        }
      ],
      "name": "calculateFee",
      "outputs": [
        {
          "internalType": "uint256",
          "name": "",
          "type": "uint256"
        }
      ],
      "stateMutability": "view",
      "type": "function"
    },
    {
      "inputs": [
        {
          "internalType": "string",
          "name": "url",
          "type": "string"
        },
        {
          "internalType": "string",
          "name": "_type",
          "type": "string"
        },
        {
          "internalType": "address",
          "name": "receiver",
          "type": "address"
        },
        {
          "internalType": "uint256",
          "name": "account",
          "type": "uint256"
        },
        {
          "internalType": "string",
          "name": "metadata",
          "type": "string"
        }
      ],
      "name": "createPaymentLink",
      "outputs": [],
      "stateMutability": "nonpayable",
      "type": "function"
    },
    {
      "inputs": [],
      "name": "fee",
      "outputs": [
        {
          "internalType": "uint256",
          "name": "",
          "type": "uint256"
        }
      ],
      "stateMutability": "view",
      "type": "function"
    },
    {
      "inputs": [
        {
          "internalType": "uint256",
          "name": "paymentLink",
          "type": "uint256"
        }
      ],
      "name": "getPaymentLink",
      "outputs": [
        {
          "components": [
            {
              "internalType": "uint256",
              "name": "paymentLinkId",
              "type": "uint256"
            },
            {
              "internalType": "string",
              "name": "_url",
              "type": "string"
            },
            {
              "internalType": "string",
              "name": "_type",
              "type": "string"
            },
            {
              "internalType": "address payable",
              "name": "receiver",
              "type": "address"
            },
            {
              "internalType": "uint256",
              "name": "account",
              "type": "uint256"
            },
            {
              "internalType": "string",
              "name": "metadata",
              "type": "string"
            }
          ],
          "internalType": "struct Payments.PaymentLink",
          "name": "",
          "type": "tuple"
        }
      ],
      "stateMutability": "view",
      "type": "function"
    },
    {
      "inputs": [
        {
          "internalType": "uint256",
          "name": "paymentLinkId",
          "type": "uint256"
        },
        {
          "internalType": "address",
          "name": "currency",
          "type": "address"
        }
      ],
      "name": "makeERC20Payment",
      "outputs": [],
      "stateMutability": "payable",
      "type": "function"
    },
    {
      "inputs": [
        {
          "internalType": "uint256",
          "name": "paymentLinkId",
          "type": "uint256"
        }
      ],
      "name": "makeEthPayment",
      "outputs": [],
      "stateMutability": "payable",
      "type": "function"
    },
    {
      "inputs": [],
      "name": "owner",
      "outputs": [
        {
          "internalType": "address",
          "name": "",
          "type": "address"
        }
      ],
      "stateMutability": "view",
      "type": "function"
    },
    {
      "inputs": [],
      "name": "renounceOwnership",
      "outputs": [],
      "stateMutability": "nonpayable",
      "type": "function"
    },
    {
      "inputs": [
        {
          "internalType": "address",
          "name": "newOwner",
          "type": "address"
        }
      ],
      "name": "transferOwnership",
      "outputs": [],
      "stateMutability": "nonpayable",
      "type": "function"
    }
  ],
  "bytecode": "0x608060405260056003553480156200001657600080fd5b50604051620024143803806200241483398181016040528101906200003c919062000191565b60016000819055506200006462000058620000ac60201b60201c565b620000b460201b60201c565b80600260006101000a81548173ffffffffffffffffffffffffffffffffffffffff021916908373ffffffffffffffffffffffffffffffffffffffff160217905550506200020b565b600033905090565b6000600160009054906101000a900473ffffffffffffffffffffffffffffffffffffffff16905081600160006101000a81548173ffffffffffffffffffffffffffffffffffffffff021916908373ffffffffffffffffffffffffffffffffffffffff1602179055508173ffffffffffffffffffffffffffffffffffffffff168173ffffffffffffffffffffffffffffffffffffffff167f8be0079c531659141344cd1fd0a4f28419497f9722a3daafe3b4186f6b6457e060405160405180910390a35050565b6000815190506200018b81620001f1565b92915050565b600060208284031215620001a457600080fd5b6000620001b4848285016200017a565b91505092915050565b6000620001ca82620001d1565b9050919050565b600073ffffffffffffffffffffffffffffffffffffffff82169050919050565b620001fc81620001bd565b81146200020857600080fd5b50565b6121f9806200021b6000396000f3fe6080604052600436106100865760003560e01c806399a5d7471161005957806399a5d74714610133578063bcfb6d4114610170578063cb163bd71461018c578063ddca3f43146101a8578063f2fde38b146101d357610086565b8063322a5b751461008b578063715018a6146100c857806372a7ff8f146100df5780638da5cb5b14610108575b600080fd5b34801561009757600080fd5b506100b260048036038101906100ad91906118b8565b6101fc565b6040516100bf9190611ca1565b60405180910390f35b3480156100d457600080fd5b506100dd610449565b005b3480156100eb57600080fd5b50610106600480360381019061010191906117f9565b6104d1565b005b34801561011457600080fd5b5061011d610683565b60405161012a9190611afd565b60405180910390f35b34801561013f57600080fd5b5061015a600480360381019061015591906118b8565b6106ad565b6040516101679190611cc3565b60405180910390f35b61018a600480360381019061018591906118e1565b6106d1565b005b6101a660048036038101906101a191906118b8565b610dc4565b005b3480156101b457600080fd5b506101bd611421565b6040516101ca9190611cc3565b60405180910390f35b3480156101df57600080fd5b506101fa60048036038101906101f591906117a7565b611427565b005b610204611611565b600660008381526020019081526020016000206040518060c00160405290816000820154815260200160018201805461023c90611f84565b80601f016020809104026020016040519081016040528092919081815260200182805461026890611f84565b80156102b55780601f1061028a576101008083540402835291602001916102b5565b820191906000526020600020905b81548152906001019060200180831161029857829003601f168201915b505050505081526020016002820180546102ce90611f84565b80601f01602080910402602001604051908101604052809291908181526020018280546102fa90611f84565b80156103475780601f1061031c57610100808354040283529160200191610347565b820191906000526020600020905b81548152906001019060200180831161032a57829003601f168201915b505050505081526020016003820160009054906101000a900473ffffffffffffffffffffffffffffffffffffffff1673ffffffffffffffffffffffffffffffffffffffff1673ffffffffffffffffffffffffffffffffffffffff168152602001600482015481526020016005820180546103c090611f84565b80601f01602080910402602001604051908101604052809291908181526020018280546103ec90611f84565b80156104395780601f1061040e57610100808354040283529160200191610439565b820191906000526020600020905b81548152906001019060200180831161041c57829003601f168201915b5050505050815250509050919050565b61045161151f565b73ffffffffffffffffffffffffffffffffffffffff1661046f610683565b73ffffffffffffffffffffffffffffffffffffffff16146104c5576040517f08c379a00000000000000000000000000000000000000000000000000000000081526004016104bc90611c61565b60405180910390fd5b6104cf6000611527565b565b6104db60046115ed565b60006104e76004611603565b90506040518060c001604052808281526020018781526020018681526020018573ffffffffffffffffffffffffffffffffffffffff168152602001848152602001838152506006600083815260200190815260200160002060008201518160000155602082015181600101908051906020019061056592919061165d565b50604082015181600201908051906020019061058292919061165d565b5060608201518160030160006101000a81548173ffffffffffffffffffffffffffffffffffffffff021916908373ffffffffffffffffffffffffffffffffffffffff1602179055506080820151816004015560a08201518160050190805190602001906105f092919061165d565b5090505080600860003373ffffffffffffffffffffffffffffffffffffffff1673ffffffffffffffffffffffffffffffffffffffff168152602001908152602001600020819055507f5da95f3b35c1dc58bad6efd8ef38329cbb6d6628f3c2c8ae0713475560fb4516338288888888886040516106739796959493929190611bbd565b60405180910390a1505050505050565b6000600160009054906101000a900473ffffffffffffffffffffffffffffffffffffffff16905090565b6000612710600354836106c09190611e24565b6106ca9190611df3565b9050919050565b60026000541415610717576040517f08c379a000000000000000000000000000000000000000000000000000000000815260040161070e90611c81565b60405180910390fd5b600260008190555061072960056115ed565b60006107356005611603565b905060008290506000600660008681526020019081526020016000206040518060c00160405290816000820154815260200160018201805461077690611f84565b80601f01602080910402602001604051908101604052809291908181526020018280546107a290611f84565b80156107ef5780601f106107c4576101008083540402835291602001916107ef565b820191906000526020600020905b8154815290600101906020018083116107d257829003601f168201915b5050505050815260200160028201805461080890611f84565b80601f016020809104026020016040519081016040528092919081815260200182805461083490611f84565b80156108815780601f1061085657610100808354040283529160200191610881565b820191906000526020600020905b81548152906001019060200180831161086457829003601f168201915b505050505081526020016003820160009054906101000a900473ffffffffffffffffffffffffffffffffffffffff1673ffffffffffffffffffffffffffffffffffffffff1673ffffffffffffffffffffffffffffffffffffffff168152602001600482015481526020016005820180546108fa90611f84565b80601f016020809104026020016040519081016040528092919081815260200182805461092690611f84565b80156109735780601f1061094857610100808354040283529160200191610973565b820191906000526020600020905b81548152906001019060200180831161095657829003601f168201915b50505050508152505090506000816060015190506000610992346106ad565b9050600081346109a29190611e7e565b90506040518060400160405280600681526020017f57414c4c45540000000000000000000000000000000000000000000000000000815250805190602001208460400151805190602001201415610a86578473ffffffffffffffffffffffffffffffffffffffff1663a9059cbb84836040518363ffffffff1660e01b8152600401610a2e929190611b18565b602060405180830381600087803b158015610a4857600080fd5b505af1158015610a5c573d6000803e3d6000fd5b505050506040513d601f19601f82011682018060405250810190610a8091906117d0565b50610b22565b600260009054906101000a900473ffffffffffffffffffffffffffffffffffffffff1673ffffffffffffffffffffffffffffffffffffffff1663c9a21ae685606001518660800151848b6040518563ffffffff1660e01b8152600401610aef9493929190611b78565b600060405180830381600087803b158015610b0957600080fd5b505af1158015610b1d573d6000803e3d6000fd5b505050505b8273ffffffffffffffffffffffffffffffffffffffff166108fc829081150290604051600060405180830381858888f19350505050158015610b68573d6000803e3d6000fd5b506040518061012001604052808781526020016040518060400160405280600481526020017f4c494e4b0000000000000000000000000000000000000000000000000000000081525081526020013373ffffffffffffffffffffffffffffffffffffffff168152602001856060015173ffffffffffffffffffffffffffffffffffffffff16815260200185608001518152602001348152602001838152602001428152602001600073ffffffffffffffffffffffffffffffffffffffff1681525060076000888152602001908152602001600020600082015181600001556020820151816001019080519060200190610c6292919061165d565b5060408201518160020160006101000a81548173ffffffffffffffffffffffffffffffffffffffff021916908373ffffffffffffffffffffffffffffffffffffffff16021790555060608201518160030160006101000a81548173ffffffffffffffffffffffffffffffffffffffff021916908373ffffffffffffffffffffffffffffffffffffffff1602179055506080820151816004015560a0820151816005015560c0820151816006015560e082015181600701556101008201518160080160006101000a81548173ffffffffffffffffffffffffffffffffffffffff021916908373ffffffffffffffffffffffffffffffffffffffff1602179055509050507fc66f4d99cfcefcbabd56b6b97963f9682849763bb1760d83b733d65523ee3a098633866060015187608001513487426000604051610daa989796959493929190611cde565b60405180910390a150505050505060016000819055505050565b60026000541415610e0a576040517f08c379a0000000000000000000000000000000000000000000000000000000008152600401610e0190611c81565b60405180910390fd5b6002600081905550610e1c60056115ed565b6000610e286005611603565b90506000600660008481526020019081526020016000206040518060c001604052908160008201548152602001600182018054610e6490611f84565b80601f0160208091040260200160405190810160405280929190818152602001828054610e9090611f84565b8015610edd5780601f10610eb257610100808354040283529160200191610edd565b820191906000526020600020905b815481529060010190602001808311610ec057829003601f168201915b50505050508152602001600282018054610ef690611f84565b80601f0160208091040260200160405190810160405280929190818152602001828054610f2290611f84565b8015610f6f5780601f10610f4457610100808354040283529160200191610f6f565b820191906000526020600020905b815481529060010190602001808311610f5257829003601f168201915b505050505081526020016003820160009054906101000a900473ffffffffffffffffffffffffffffffffffffffff1673ffffffffffffffffffffffffffffffffffffffff1673ffffffffffffffffffffffffffffffffffffffff16815260200160048201548152602001600582018054610fe890611f84565b80601f016020809104026020016040519081016040528092919081815260200182805461101490611f84565b80156110615780601f1061103657610100808354040283529160200191611061565b820191906000526020600020905b81548152906001019060200180831161104457829003601f168201915b50505050508152505090506000816060015190506000611080346106ad565b9050600081346110909190611e7e565b90506040518060400160405280600681526020017f57414c4c4554000000000000000000000000000000000000000000000000000081525080519060200120846040015180519060200120141561112d578273ffffffffffffffffffffffffffffffffffffffff166108fc829081150290604051600060405180830381858888f19350505050158015611127573d6000803e3d6000fd5b506111c8565b600260009054906101000a900473ffffffffffffffffffffffffffffffffffffffff1673ffffffffffffffffffffffffffffffffffffffff1663443562af8286606001518760800151856040518563ffffffff1660e01b815260040161119593929190611b41565b6000604051808303818588803b1580156111ae57600080fd5b505af11580156111c2573d6000803e3d6000fd5b50505050505b6040518061012001604052808681526020016040518060400160405280600481526020017f4c494e4b0000000000000000000000000000000000000000000000000000000081525081526020013373ffffffffffffffffffffffffffffffffffffffff168152602001856060015173ffffffffffffffffffffffffffffffffffffffff16815260200185608001518152602001348152602001838152602001428152602001600073ffffffffffffffffffffffffffffffffffffffff16815250600760008781526020019081526020016000206000820151816000015560208201518160010190805190602001906112c192919061165d565b5060408201518160020160006101000a81548173ffffffffffffffffffffffffffffffffffffffff021916908373ffffffffffffffffffffffffffffffffffffffff16021790555060608201518160030160006101000a81548173ffffffffffffffffffffffffffffffffffffffff021916908373ffffffffffffffffffffffffffffffffffffffff1602179055506080820151816004015560a0820151816005015560c0820151816006015560e082015181600701556101008201518160080160006101000a81548173ffffffffffffffffffffffffffffffffffffffff021916908373ffffffffffffffffffffffffffffffffffffffff1602179055509050507fc66f4d99cfcefcbabd56b6b97963f9682849763bb1760d83b733d65523ee3a098533866060015187608001513487426000604051611409989796959493929190611cde565b60405180910390a15050505050600160008190555050565b60035481565b61142f61151f565b73ffffffffffffffffffffffffffffffffffffffff1661144d610683565b73ffffffffffffffffffffffffffffffffffffffff16146114a3576040517f08c379a000000000000000000000000000000000000000000000000000000000815260040161149a90611c61565b60405180910390fd5b600073ffffffffffffffffffffffffffffffffffffffff168173ffffffffffffffffffffffffffffffffffffffff161415611513576040517f08c379a000000000000000000000000000000000000000000000000000000000815260040161150a90611c41565b60405180910390fd5b61151c81611527565b50565b600033905090565b6000600160009054906101000a900473ffffffffffffffffffffffffffffffffffffffff16905081600160006101000a81548173ffffffffffffffffffffffffffffffffffffffff021916908373ffffffffffffffffffffffffffffffffffffffff1602179055508173ffffffffffffffffffffffffffffffffffffffff168173ffffffffffffffffffffffffffffffffffffffff167f8be0079c531659141344cd1fd0a4f28419497f9722a3daafe3b4186f6b6457e060405160405180910390a35050565b6001816000016000828254019250508190555050565b600081600001549050919050565b6040518060c00160405280600081526020016060815260200160608152602001600073ffffffffffffffffffffffffffffffffffffffff16815260200160008152602001606081525090565b82805461166990611f84565b90600052602060002090601f01602090048101928261168b57600085556116d2565b82601f106116a457805160ff19168380011785556116d2565b828001600101855582156116d2579182015b828111156116d15782518255916020019190600101906116b6565b5b5090506116df91906116e3565b5090565b5b808211156116fc5760008160009055506001016116e4565b5090565b600061171361170e84611d95565b611d70565b90508281526020810184848401111561172b57600080fd5b611736848285611f42565b509392505050565b60008135905061174d8161217e565b92915050565b60008151905061176281612195565b92915050565b600082601f83011261177957600080fd5b8135611789848260208601611700565b91505092915050565b6000813590506117a1816121ac565b92915050565b6000602082840312156117b957600080fd5b60006117c78482850161173e565b91505092915050565b6000602082840312156117e257600080fd5b60006117f084828501611753565b91505092915050565b600080600080600060a0868803121561181157600080fd5b600086013567ffffffffffffffff81111561182b57600080fd5b61183788828901611768565b955050602086013567ffffffffffffffff81111561185457600080fd5b61186088828901611768565b94505060406118718882890161173e565b935050606061188288828901611792565b925050608086013567ffffffffffffffff81111561189f57600080fd5b6118ab88828901611768565b9150509295509295909350565b6000602082840312156118ca57600080fd5b60006118d884828501611792565b91505092915050565b600080604083850312156118f457600080fd5b600061190285828601611792565b92505060206119138582860161173e565b9150509250929050565b61192681611f0c565b82525050565b61193581611ec4565b82525050565b61194481611eb2565b82525050565b600061195582611dc6565b61195f8185611dd1565b935061196f818560208601611f51565b611978816120a3565b840191505092915050565b600061198e82611dc6565b6119988185611de2565b93506119a8818560208601611f51565b6119b1816120a3565b840191505092915050565b60006119c9602683611de2565b91506119d4826120b4565b604082019050919050565b60006119ec600483611de2565b91506119f782612103565b602082019050919050565b6000611a0f602083611de2565b9150611a1a8261212c565b602082019050919050565b6000611a32601f83611de2565b9150611a3d82612155565b602082019050919050565b600060c083016000830151611a606000860182611adf565b5060208301518482036020860152611a78828261194a565b91505060408301518482036040860152611a92828261194a565b9150506060830151611aa7606086018261192c565b506080830151611aba6080860182611adf565b5060a083015184820360a0860152611ad2828261194a565b9150508091505092915050565b611ae881611f02565b82525050565b611af781611f02565b82525050565b6000602082019050611b12600083018461193b565b92915050565b6000604082019050611b2d600083018561191d565b611b3a6020830184611aee565b9392505050565b6000606082019050611b56600083018661191d565b611b636020830185611aee565b611b706040830184611aee565b949350505050565b6000608082019050611b8d600083018761191d565b611b9a6020830186611aee565b611ba76040830185611aee565b611bb4606083018461193b565b95945050505050565b600060e082019050611bd2600083018a61193b565b611bdf6020830189611aee565b8181036040830152611bf18188611983565b90508181036060830152611c058187611983565b9050611c14608083018661193b565b611c2160a0830185611aee565b81810360c0830152611c338184611983565b905098975050505050505050565b60006020820190508181036000830152611c5a816119bc565b9050919050565b60006020820190508181036000830152611c7a81611a02565b9050919050565b60006020820190508181036000830152611c9a81611a25565b9050919050565b60006020820190508181036000830152611cbb8184611a48565b905092915050565b6000602082019050611cd86000830184611aee565b92915050565b600061012082019050611cf4600083018b611aee565b8181036020830152611d05816119df565b9050611d14604083018a61193b565b611d21606083018961191d565b611d2e6080830188611aee565b611d3b60a0830187611aee565b611d4860c0830186611aee565b611d5560e0830185611aee565b611d6361010083018461193b565b9998505050505050505050565b6000611d7a611d8b565b9050611d868282611fb6565b919050565b6000604051905090565b600067ffffffffffffffff821115611db057611daf612074565b5b611db9826120a3565b9050602081019050919050565b600081519050919050565b600082825260208201905092915050565b600082825260208201905092915050565b6000611dfe82611f02565b9150611e0983611f02565b925082611e1957611e18612016565b5b828204905092915050565b6000611e2f82611f02565b9150611e3a83611f02565b9250817fffffffffffffffffffffffffffffffffffffffffffffffffffffffffffffffff0483118215151615611e7357611e72611fe7565b5b828202905092915050565b6000611e8982611f02565b9150611e9483611f02565b925082821015611ea757611ea6611fe7565b5b828203905092915050565b6000611ebd82611ee2565b9050919050565b6000611ecf82611ee2565b9050919050565b60008115159050919050565b600073ffffffffffffffffffffffffffffffffffffffff82169050919050565b6000819050919050565b6000611f1782611f1e565b9050919050565b6000611f2982611f30565b9050919050565b6000611f3b82611ee2565b9050919050565b82818337600083830152505050565b60005b83811015611f6f578082015181840152602081019050611f54565b83811115611f7e576000848401525b50505050565b60006002820490506001821680611f9c57607f821691505b60208210811415611fb057611faf612045565b5b50919050565b611fbf826120a3565b810181811067ffffffffffffffff82111715611fde57611fdd612074565b5b80604052505050565b7f4e487b7100000000000000000000000000000000000000000000000000000000600052601160045260246000fd5b7f4e487b7100000000000000000000000000000000000000000000000000000000600052601260045260246000fd5b7f4e487b7100000000000000000000000000000000000000000000000000000000600052602260045260246000fd5b7f4e487b7100000000000000000000000000000000000000000000000000000000600052604160045260246000fd5b6000601f19601f8301169050919050565b7f4f776e61626c653a206e6577206f776e657220697320746865207a65726f206160008201527f6464726573730000000000000000000000000000000000000000000000000000602082015250565b7f4c494e4b00000000000000000000000000000000000000000000000000000000600082015250565b7f4f776e61626c653a2063616c6c6572206973206e6f7420746865206f776e6572600082015250565b7f5265656e7472616e637947756172643a207265656e7472616e742063616c6c00600082015250565b61218781611eb2565b811461219257600080fd5b50565b61219e81611ed6565b81146121a957600080fd5b50565b6121b581611f02565b81146121c057600080fd5b5056fea2646970667358221220314e364e1f29adccc4e9f09d3782da1a8629618e9d38b17563a674c9c372d5b364736f6c63430008040033",
  "linkReferences": {},
  "deployedLinkReferences": {}
}