{
  "_format": "hh-sol-artifact-1",
  "contractName": "Payments",
  "sourceName": "contracts/Payments.sol",
  "abi": [
    {
      "inputs": [
        {
          "internalType": "address",
          "name": "_neobank",
          "type": "address"
        }
      ],
      "stateMutability": "nonpayable",
      "type": "constructor"
    },
    {
      "anonymous": false,
      "inputs": [
        {
          "indexed": false,
          "internalType": "address",
          "name": "_owner",
          "type": "address"
        },
        {
          "indexed": false,
          "internalType": "uint256",
          "name": "paymentLinkId",
          "type": "uint256"
        },
        {
          "indexed": false,
          "internalType": "string",
          "name": "_url",
          "type": "string"
        },
        {
          "indexed": false,
          "internalType": "string",
          "name": "_type",
          "type": "string"
        },
        {
          "indexed": false,
          "internalType": "address",
          "name": "receiver",
          "type": "address"
        },
        {
          "indexed": false,
          "internalType": "string",
          "name": "metadata",
          "type": "string"
        }
      ],
      "name": "PaymentLinkCreated",
      "type": "event"
    },
    {
      "anonymous": false,
      "inputs": [
        {
          "indexed": false,
          "internalType": "uint256",
          "name": "paymentId",
          "type": "uint256"
        },
        {
          "indexed": false,
          "internalType": "string",
          "name": "mode",
          "type": "string"
        },
        {
          "indexed": false,
          "internalType": "address",
          "name": "sender",
          "type": "address"
        },
        {
          "indexed": false,
          "internalType": "address",
          "name": "receiver",
          "type": "address"
        },
        {
          "indexed": false,
          "internalType": "uint256",
          "name": "account",
          "type": "uint256"
        },
        {
          "indexed": false,
          "internalType": "uint256",
          "name": "amount",
          "type": "uint256"
        },
        {
          "indexed": false,
          "internalType": "uint256",
          "name": "fee",
          "type": "uint256"
        },
        {
          "indexed": false,
          "internalType": "uint256",
          "name": "timestamp",
          "type": "uint256"
        },
        {
          "indexed": false,
          "internalType": "address",
          "name": "currency",
          "type": "address"
        }
      ],
      "name": "PaymentMade",
      "type": "event"
    },
    {
      "inputs": [
        {
          "internalType": "uint256",
          "name": "amount",
          "type": "uint256"
        }
      ],
      "name": "calculateFee",
      "outputs": [
        {
          "internalType": "uint256",
          "name": "",
          "type": "uint256"
        }
      ],
      "stateMutability": "view",
      "type": "function"
    },
    {
      "inputs": [
        {
          "internalType": "string",
          "name": "url",
          "type": "string"
        },
        {
          "internalType": "string",
          "name": "_type",
          "type": "string"
        },
        {
          "internalType": "address",
          "name": "receiver",
          "type": "address"
        },
        {
          "internalType": "uint256",
          "name": "account",
          "type": "uint256"
        },
        {
          "internalType": "string",
          "name": "metadata",
          "type": "string"
        }
      ],
      "name": "createPaymentLink",
      "outputs": [],
      "stateMutability": "nonpayable",
      "type": "function"
    },
    {
      "inputs": [],
      "name": "fee",
      "outputs": [
        {
          "internalType": "uint256",
          "name": "",
          "type": "uint256"
        }
      ],
      "stateMutability": "view",
      "type": "function"
    },
    {
      "inputs": [
        {
          "internalType": "uint256",
          "name": "paymentLink",
          "type": "uint256"
        }
      ],
      "name": "getPaymentLink",
      "outputs": [
        {
          "components": [
            {
              "internalType": "uint256",
              "name": "paymentLinkId",
              "type": "uint256"
            },
            {
              "internalType": "string",
              "name": "_url",
              "type": "string"
            },
            {
              "internalType": "string",
              "name": "_type",
              "type": "string"
            },
            {
              "internalType": "address payable",
              "name": "receiver",
              "type": "address"
            },
            {
              "internalType": "uint256",
              "name": "account",
              "type": "uint256"
            },
            {
              "internalType": "string",
              "name": "metadata",
              "type": "string"
            }
          ],
          "internalType": "struct Payments.PaymentLink",
          "name": "",
          "type": "tuple"
        }
      ],
      "stateMutability": "view",
      "type": "function"
    },
    {
      "inputs": [
        {
          "internalType": "uint256",
          "name": "paymentLinkId",
          "type": "uint256"
        },
        {
          "internalType": "address",
          "name": "currency",
          "type": "address"
        }
      ],
      "name": "makeERC20Payment",
      "outputs": [],
      "stateMutability": "payable",
      "type": "function"
    },
    {
      "inputs": [
        {
          "internalType": "uint256",
          "name": "paymentLinkId",
          "type": "uint256"
        }
      ],
      "name": "makeEthPayment",
      "outputs": [],
      "stateMutability": "payable",
      "type": "function"
    }
  ],
  "bytecode": "0x608060405260056002553480156200001657600080fd5b5060405162001ec038038062001ec083398181016040528101906200003c9190620000a3565b600160008190555080600160006101000a81548173ffffffffffffffffffffffffffffffffffffffff021916908373ffffffffffffffffffffffffffffffffffffffff160217905550506200011d565b6000815190506200009d8162000103565b92915050565b600060208284031215620000b657600080fd5b6000620000c6848285016200008c565b91505092915050565b6000620000dc82620000e3565b9050919050565b600073ffffffffffffffffffffffffffffffffffffffff82169050919050565b6200010e81620000cf565b81146200011a57600080fd5b50565b611d93806200012d6000396000f3fe6080604052600436106100555760003560e01c8063322a5b751461005a57806372a7ff8f1461009757806399a5d747146100c0578063bcfb6d41146100fd578063cb163bd714610119578063ddca3f4314610135575b600080fd5b34801561006657600080fd5b50610081600480360381019061007c9190611579565b610160565b60405161008e91906118b3565b60405180910390f35b3480156100a357600080fd5b506100be60048036038101906100b991906114ba565b6103ad565b005b3480156100cc57600080fd5b506100e760048036038101906100e29190611579565b61055d565b6040516100f491906118d5565b60405180910390f35b610117600480360381019061011291906115a2565b610581565b005b610133600480360381019061012e9190611579565b610c74565b005b34801561014157600080fd5b5061014a6112d1565b60405161015791906118d5565b60405180910390f35b6101686112fb565b600560008381526020019081526020016000206040518060c0016040529081600082015481526020016001820180546101a090611b96565b80601f01602080910402602001604051908101604052809291908181526020018280546101cc90611b96565b80156102195780601f106101ee57610100808354040283529160200191610219565b820191906000526020600020905b8154815290600101906020018083116101fc57829003601f168201915b5050505050815260200160028201805461023290611b96565b80601f016020809104026020016040519081016040528092919081815260200182805461025e90611b96565b80156102ab5780601f10610280576101008083540402835291602001916102ab565b820191906000526020600020905b81548152906001019060200180831161028e57829003601f168201915b505050505081526020016003820160009054906101000a900473ffffffffffffffffffffffffffffffffffffffff1673ffffffffffffffffffffffffffffffffffffffff1673ffffffffffffffffffffffffffffffffffffffff1681526020016004820154815260200160058201805461032490611b96565b80601f016020809104026020016040519081016040528092919081815260200182805461035090611b96565b801561039d5780601f106103725761010080835404028352916020019161039d565b820191906000526020600020905b81548152906001019060200180831161038057829003601f168201915b5050505050815250509050919050565b6103b760036112d7565b60006103c360036112ed565b90506040518060c001604052808281526020018781526020018681526020018573ffffffffffffffffffffffffffffffffffffffff1681526020018481526020018381525060056000838152602001908152602001600020600082015181600001556020820151816001019080519060200190610441929190611347565b50604082015181600201908051906020019061045e929190611347565b5060608201518160030160006101000a81548173ffffffffffffffffffffffffffffffffffffffff021916908373ffffffffffffffffffffffffffffffffffffffff1602179055506080820151816004015560a08201518160050190805190602001906104cc929190611347565b5090505080600760003373ffffffffffffffffffffffffffffffffffffffff1673ffffffffffffffffffffffffffffffffffffffff168152602001908152602001600020819055507ff12fce636836484ea2a88f8dd7da2b42e553418d5c55bd84477539c2865f5ea033828888888760405161054d9695949392919061181d565b60405180910390a1505050505050565b6000612710600254836105709190611a36565b61057a9190611a05565b9050919050565b600260005414156105c7576040517f08c379a00000000000000000000000000000000000000000000000000000000081526004016105be90611893565b60405180910390fd5b60026000819055506105d960046112d7565b60006105e560046112ed565b905060008290506000600560008681526020019081526020016000206040518060c00160405290816000820154815260200160018201805461062690611b96565b80601f016020809104026020016040519081016040528092919081815260200182805461065290611b96565b801561069f5780601f106106745761010080835404028352916020019161069f565b820191906000526020600020905b81548152906001019060200180831161068257829003601f168201915b505050505081526020016002820180546106b890611b96565b80601f01602080910402602001604051908101604052809291908181526020018280546106e490611b96565b80156107315780601f1061070657610100808354040283529160200191610731565b820191906000526020600020905b81548152906001019060200180831161071457829003601f168201915b505050505081526020016003820160009054906101000a900473ffffffffffffffffffffffffffffffffffffffff1673ffffffffffffffffffffffffffffffffffffffff1673ffffffffffffffffffffffffffffffffffffffff168152602001600482015481526020016005820180546107aa90611b96565b80601f01602080910402602001604051908101604052809291908181526020018280546107d690611b96565b80156108235780601f106107f857610100808354040283529160200191610823565b820191906000526020600020905b81548152906001019060200180831161080657829003601f168201915b505050505081525050905060008160600151905060006108423461055d565b9050600081346108529190611a90565b90506040518060400160405280600681526020017f57414c4c45540000000000000000000000000000000000000000000000000000815250805190602001208460400151805190602001201415610936578473ffffffffffffffffffffffffffffffffffffffff1663a9059cbb84836040518363ffffffff1660e01b81526004016108de929190611778565b602060405180830381600087803b1580156108f857600080fd5b505af115801561090c573d6000803e3d6000fd5b505050506040513d601f19601f820116820180604052508101906109309190611491565b506109d2565b600160009054906101000a900473ffffffffffffffffffffffffffffffffffffffff1673ffffffffffffffffffffffffffffffffffffffff1663c9a21ae685606001518660800151848b6040518563ffffffff1660e01b815260040161099f94939291906117d8565b600060405180830381600087803b1580156109b957600080fd5b505af11580156109cd573d6000803e3d6000fd5b505050505b8273ffffffffffffffffffffffffffffffffffffffff166108fc829081150290604051600060405180830381858888f19350505050158015610a18573d6000803e3d6000fd5b506040518061012001604052808781526020016040518060400160405280600481526020017f4c494e4b0000000000000000000000000000000000000000000000000000000081525081526020013373ffffffffffffffffffffffffffffffffffffffff168152602001856060015173ffffffffffffffffffffffffffffffffffffffff16815260200185608001518152602001348152602001838152602001428152602001600073ffffffffffffffffffffffffffffffffffffffff1681525060066000888152602001908152602001600020600082015181600001556020820151816001019080519060200190610b12929190611347565b5060408201518160020160006101000a81548173ffffffffffffffffffffffffffffffffffffffff021916908373ffffffffffffffffffffffffffffffffffffffff16021790555060608201518160030160006101000a81548173ffffffffffffffffffffffffffffffffffffffff021916908373ffffffffffffffffffffffffffffffffffffffff1602179055506080820151816004015560a0820151816005015560c0820151816006015560e082015181600701556101008201518160080160006101000a81548173ffffffffffffffffffffffffffffffffffffffff021916908373ffffffffffffffffffffffffffffffffffffffff1602179055509050507fc66f4d99cfcefcbabd56b6b97963f9682849763bb1760d83b733d65523ee3a098633866060015187608001513487426000604051610c5a9897969594939291906118f0565b60405180910390a150505050505060016000819055505050565b60026000541415610cba576040517f08c379a0000000000000000000000000000000000000000000000000000000008152600401610cb190611893565b60405180910390fd5b6002600081905550610ccc60046112d7565b6000610cd860046112ed565b90506000600560008481526020019081526020016000206040518060c001604052908160008201548152602001600182018054610d1490611b96565b80601f0160208091040260200160405190810160405280929190818152602001828054610d4090611b96565b8015610d8d5780601f10610d6257610100808354040283529160200191610d8d565b820191906000526020600020905b815481529060010190602001808311610d7057829003601f168201915b50505050508152602001600282018054610da690611b96565b80601f0160208091040260200160405190810160405280929190818152602001828054610dd290611b96565b8015610e1f5780601f10610df457610100808354040283529160200191610e1f565b820191906000526020600020905b815481529060010190602001808311610e0257829003601f168201915b505050505081526020016003820160009054906101000a900473ffffffffffffffffffffffffffffffffffffffff1673ffffffffffffffffffffffffffffffffffffffff1673ffffffffffffffffffffffffffffffffffffffff16815260200160048201548152602001600582018054610e9890611b96565b80601f0160208091040260200160405190810160405280929190818152602001828054610ec490611b96565b8015610f115780601f10610ee657610100808354040283529160200191610f11565b820191906000526020600020905b815481529060010190602001808311610ef457829003601f168201915b50505050508152505090506000816060015190506000610f303461055d565b905060008134610f409190611a90565b90506040518060400160405280600681526020017f57414c4c45540000000000000000000000000000000000000000000000000000815250805190602001208460400151805190602001201415610fdd578273ffffffffffffffffffffffffffffffffffffffff166108fc829081150290604051600060405180830381858888f19350505050158015610fd7573d6000803e3d6000fd5b50611078565b600160009054906101000a900473ffffffffffffffffffffffffffffffffffffffff1673ffffffffffffffffffffffffffffffffffffffff1663443562af8286606001518760800151856040518563ffffffff1660e01b8152600401611045939291906117a1565b6000604051808303818588803b15801561105e57600080fd5b505af1158015611072573d6000803e3d6000fd5b50505050505b6040518061012001604052808681526020016040518060400160405280600481526020017f4c494e4b0000000000000000000000000000000000000000000000000000000081525081526020013373ffffffffffffffffffffffffffffffffffffffff168152602001856060015173ffffffffffffffffffffffffffffffffffffffff16815260200185608001518152602001348152602001838152602001428152602001600073ffffffffffffffffffffffffffffffffffffffff1681525060066000878152602001908152602001600020600082015181600001556020820151816001019080519060200190611171929190611347565b5060408201518160020160006101000a81548173ffffffffffffffffffffffffffffffffffffffff021916908373ffffffffffffffffffffffffffffffffffffffff16021790555060608201518160030160006101000a81548173ffffffffffffffffffffffffffffffffffffffff021916908373ffffffffffffffffffffffffffffffffffffffff1602179055506080820151816004015560a0820151816005015560c0820151816006015560e082015181600701556101008201518160080160006101000a81548173ffffffffffffffffffffffffffffffffffffffff021916908373ffffffffffffffffffffffffffffffffffffffff1602179055509050507fc66f4d99cfcefcbabd56b6b97963f9682849763bb1760d83b733d65523ee3a0985338660600151876080015134874260006040516112b99897969594939291906118f0565b60405180910390a15050505050600160008190555050565b60025481565b6001816000016000828254019250508190555050565b600081600001549050919050565b6040518060c00160405280600081526020016060815260200160608152602001600073ffffffffffffffffffffffffffffffffffffffff16815260200160008152602001606081525090565b82805461135390611b96565b90600052602060002090601f01602090048101928261137557600085556113bc565b82601f1061138e57805160ff19168380011785556113bc565b828001600101855582156113bc579182015b828111156113bb5782518255916020019190600101906113a0565b5b5090506113c991906113cd565b5090565b5b808211156113e65760008160009055506001016113ce565b5090565b60006113fd6113f8846119a7565b611982565b90508281526020810184848401111561141557600080fd5b611420848285611b54565b509392505050565b60008135905061143781611d18565b92915050565b60008151905061144c81611d2f565b92915050565b600082601f83011261146357600080fd5b81356114738482602086016113ea565b91505092915050565b60008135905061148b81611d46565b92915050565b6000602082840312156114a357600080fd5b60006114b18482850161143d565b91505092915050565b600080600080600060a086880312156114d257600080fd5b600086013567ffffffffffffffff8111156114ec57600080fd5b6114f888828901611452565b955050602086013567ffffffffffffffff81111561151557600080fd5b61152188828901611452565b945050604061153288828901611428565b93505060606115438882890161147c565b925050608086013567ffffffffffffffff81111561156057600080fd5b61156c88828901611452565b9150509295509295909350565b60006020828403121561158b57600080fd5b60006115998482850161147c565b91505092915050565b600080604083850312156115b557600080fd5b60006115c38582860161147c565b92505060206115d485828601611428565b9150509250929050565b6115e781611b1e565b82525050565b6115f681611ad6565b82525050565b61160581611ac4565b82525050565b6000611616826119d8565b61162081856119e3565b9350611630818560208601611b63565b61163981611cb5565b840191505092915050565b600061164f826119d8565b61165981856119f4565b9350611669818560208601611b63565b61167281611cb5565b840191505092915050565b600061168a6004836119f4565b915061169582611cc6565b602082019050919050565b60006116ad601f836119f4565b91506116b882611cef565b602082019050919050565b600060c0830160008301516116db600086018261175a565b50602083015184820360208601526116f3828261160b565b9150506040830151848203604086015261170d828261160b565b915050606083015161172260608601826115ed565b506080830151611735608086018261175a565b5060a083015184820360a086015261174d828261160b565b9150508091505092915050565b61176381611b14565b82525050565b61177281611b14565b82525050565b600060408201905061178d60008301856115de565b61179a6020830184611769565b9392505050565b60006060820190506117b660008301866115de565b6117c36020830185611769565b6117d06040830184611769565b949350505050565b60006080820190506117ed60008301876115de565b6117fa6020830186611769565b6118076040830185611769565b61181460608301846115fc565b95945050505050565b600060c08201905061183260008301896115fc565b61183f6020830188611769565b81810360408301526118518187611644565b905081810360608301526118658186611644565b905061187460808301856115fc565b81810360a08301526118868184611644565b9050979650505050505050565b600060208201905081810360008301526118ac816116a0565b9050919050565b600060208201905081810360008301526118cd81846116c3565b905092915050565b60006020820190506118ea6000830184611769565b92915050565b600061012082019050611906600083018b611769565b81810360208301526119178161167d565b9050611926604083018a6115fc565b61193360608301896115de565b6119406080830188611769565b61194d60a0830187611769565b61195a60c0830186611769565b61196760e0830185611769565b6119756101008301846115fc565b9998505050505050505050565b600061198c61199d565b90506119988282611bc8565b919050565b6000604051905090565b600067ffffffffffffffff8211156119c2576119c1611c86565b5b6119cb82611cb5565b9050602081019050919050565b600081519050919050565b600082825260208201905092915050565b600082825260208201905092915050565b6000611a1082611b14565b9150611a1b83611b14565b925082611a2b57611a2a611c28565b5b828204905092915050565b6000611a4182611b14565b9150611a4c83611b14565b9250817fffffffffffffffffffffffffffffffffffffffffffffffffffffffffffffffff0483118215151615611a8557611a84611bf9565b5b828202905092915050565b6000611a9b82611b14565b9150611aa683611b14565b925082821015611ab957611ab8611bf9565b5b828203905092915050565b6000611acf82611af4565b9050919050565b6000611ae182611af4565b9050919050565b60008115159050919050565b600073ffffffffffffffffffffffffffffffffffffffff82169050919050565b6000819050919050565b6000611b2982611b30565b9050919050565b6000611b3b82611b42565b9050919050565b6000611b4d82611af4565b9050919050565b82818337600083830152505050565b60005b83811015611b81578082015181840152602081019050611b66565b83811115611b90576000848401525b50505050565b60006002820490506001821680611bae57607f821691505b60208210811415611bc257611bc1611c57565b5b50919050565b611bd182611cb5565b810181811067ffffffffffffffff82111715611bf057611bef611c86565b5b80604052505050565b7f4e487b7100000000000000000000000000000000000000000000000000000000600052601160045260246000fd5b7f4e487b7100000000000000000000000000000000000000000000000000000000600052601260045260246000fd5b7f4e487b7100000000000000000000000000000000000000000000000000000000600052602260045260246000fd5b7f4e487b7100000000000000000000000000000000000000000000000000000000600052604160045260246000fd5b6000601f19601f8301169050919050565b7f4c494e4b00000000000000000000000000000000000000000000000000000000600082015250565b7f5265656e7472616e637947756172643a207265656e7472616e742063616c6c00600082015250565b611d2181611ac4565b8114611d2c57600080fd5b50565b611d3881611ae8565b8114611d4357600080fd5b50565b611d4f81611b14565b8114611d5a57600080fd5b5056fea26469706673582212209f7dcbc3240c57d029c6a7207ea59054b444e4dda21fe2bb391ff29720b8a26964736f6c63430008040033",
  "linkReferences": {},
  "deployedLinkReferences": {}
}