{
  "_format": "hh-sol-artifact-1",
  "contractName": "Neobank",
  "sourceName": "contracts/Newbank.sol",
  "abi": [
    {
      "anonymous": false,
      "inputs": [
        {
          "indexed": false,
          "internalType": "address",
          "name": "_owner",
          "type": "address"
        },
        {
          "indexed": false,
          "internalType": "uint256",
          "name": "_accountNumber",
          "type": "uint256"
        },
        {
          "indexed": false,
          "internalType": "string",
          "name": "_metadata",
          "type": "string"
        }
      ],
      "name": "AccountCreated",
      "type": "event"
    },
    {
      "anonymous": false,
      "inputs": [
        {
          "indexed": false,
          "internalType": "string",
          "name": "name",
          "type": "string"
        },
        {
          "indexed": false,
          "internalType": "uint32",
          "name": "decimal",
          "type": "uint32"
        },
        {
          "indexed": false,
          "internalType": "string",
          "name": "symbol",
          "type": "string"
        },
        {
          "indexed": false,
          "internalType": "string",
          "name": "icon",
          "type": "string"
        },
        {
          "indexed": false,
          "internalType": "address",
          "name": "token",
          "type": "address"
        },
        {
          "indexed": false,
          "internalType": "address",
          "name": "cToken",
          "type": "address"
        }
      ],
      "name": "CompoundTokenAdded",
      "type": "event"
    },
    {
      "anonymous": false,
      "inputs": [
        {
          "indexed": false,
          "internalType": "address",
          "name": "_depositor",
          "type": "address"
        },
        {
          "indexed": false,
          "internalType": "address",
          "name": "_owner",
          "type": "address"
        },
        {
          "indexed": false,
          "internalType": "uint256",
          "name": "_accountNumber",
          "type": "uint256"
        },
        {
          "indexed": false,
          "internalType": "address",
          "name": "currency",
          "type": "address"
        },
        {
          "indexed": false,
          "internalType": "uint256",
          "name": "_amount",
          "type": "uint256"
        },
        {
          "indexed": false,
          "internalType": "uint256",
          "name": "_timestamp",
          "type": "uint256"
        }
      ],
      "name": "Erc20DepositMade",
      "type": "event"
    },
    {
      "anonymous": false,
      "inputs": [
        {
          "indexed": false,
          "internalType": "address",
          "name": "_withdrawer",
          "type": "address"
        },
        {
          "indexed": false,
          "internalType": "address",
          "name": "_owner",
          "type": "address"
        },
        {
          "indexed": false,
          "internalType": "uint256",
          "name": "_accountNumber",
          "type": "uint256"
        },
        {
          "indexed": false,
          "internalType": "address",
          "name": "currency",
          "type": "address"
        },
        {
          "indexed": false,
          "internalType": "uint256",
          "name": "_amount",
          "type": "uint256"
        },
        {
          "indexed": false,
          "internalType": "uint256",
          "name": "_timestamp",
          "type": "uint256"
        }
      ],
      "name": "Erc20WithdrawMade",
      "type": "event"
    },
    {
      "anonymous": false,
      "inputs": [
        {
          "indexed": false,
          "internalType": "address",
          "name": "_depositor",
          "type": "address"
        },
        {
          "indexed": false,
          "internalType": "address",
          "name": "_owner",
          "type": "address"
        },
        {
          "indexed": false,
          "internalType": "uint256",
          "name": "_accountNumber",
          "type": "uint256"
        },
        {
          "indexed": false,
          "internalType": "uint256",
          "name": "_amount",
          "type": "uint256"
        },
        {
          "indexed": false,
          "internalType": "uint256",
          "name": "_timestamp",
          "type": "uint256"
        }
      ],
      "name": "EthDepositMade",
      "type": "event"
    },
    {
      "anonymous": false,
      "inputs": [
        {
          "indexed": false,
          "internalType": "address",
          "name": "_depositor",
          "type": "address"
        },
        {
          "indexed": false,
          "internalType": "uint256",
          "name": "_depositorAccount",
          "type": "uint256"
        },
        {
          "indexed": false,
          "internalType": "address",
          "name": "_receiver",
          "type": "address"
        },
        {
          "indexed": false,
          "internalType": "uint256",
          "name": "_receiverAccount",
          "type": "uint256"
        },
        {
          "indexed": false,
          "internalType": "uint256",
          "name": "_amount",
          "type": "uint256"
        },
        {
          "indexed": false,
          "internalType": "uint256",
          "name": "_timestamp",
          "type": "uint256"
        }
      ],
      "name": "EthTransferMade",
      "type": "event"
    },
    {
      "anonymous": false,
      "inputs": [
        {
          "indexed": false,
          "internalType": "address",
          "name": "_withdrawer",
          "type": "address"
        },
        {
          "indexed": false,
          "internalType": "address",
          "name": "_owner",
          "type": "address"
        },
        {
          "indexed": false,
          "internalType": "uint256",
          "name": "_accountNumber",
          "type": "uint256"
        },
        {
          "indexed": false,
          "internalType": "uint256",
          "name": "_amount",
          "type": "uint256"
        },
        {
          "indexed": false,
          "internalType": "uint256",
          "name": "_timestamp",
          "type": "uint256"
        }
      ],
      "name": "EthWithdrawMade",
      "type": "event"
    },
    {
      "anonymous": false,
      "inputs": [
        {
          "indexed": true,
          "internalType": "address",
          "name": "previousOwner",
          "type": "address"
        },
        {
          "indexed": true,
          "internalType": "address",
          "name": "newOwner",
          "type": "address"
        }
      ],
      "name": "OwnershipTransferred",
      "type": "event"
    },
    {
      "inputs": [
        {
          "internalType": "string",
          "name": "name",
          "type": "string"
        },
        {
          "internalType": "uint32",
          "name": "decimal",
          "type": "uint32"
        },
        {
          "internalType": "string",
          "name": "symbol",
          "type": "string"
        },
        {
          "internalType": "string",
          "name": "icon",
          "type": "string"
        },
        {
          "internalType": "address",
          "name": "token",
          "type": "address"
        },
        {
          "internalType": "address",
          "name": "cToken",
          "type": "address"
        }
      ],
      "name": "addRelaventCtoken",
      "outputs": [],
      "stateMutability": "nonpayable",
      "type": "function"
    },
    {
      "inputs": [
        {
          "internalType": "string",
          "name": "_name",
          "type": "string"
        },
        {
          "internalType": "string",
          "name": "_metadata",
          "type": "string"
        }
      ],
      "name": "createAccount",
      "outputs": [],
      "stateMutability": "nonpayable",
      "type": "function"
    },
    {
      "inputs": [
        {
          "internalType": "address",
          "name": "_owner",
          "type": "address"
        },
        {
          "internalType": "uint256",
          "name": "_accountNumber",
          "type": "uint256"
        },
        {
          "internalType": "uint256",
          "name": "amount",
          "type": "uint256"
        },
        {
          "internalType": "address",
          "name": "currency",
          "type": "address"
        }
      ],
      "name": "depositERC20IntoAccount",
      "outputs": [],
      "stateMutability": "payable",
      "type": "function"
    },
    {
      "inputs": [
        {
          "internalType": "address",
          "name": "_owner",
          "type": "address"
        },
        {
          "internalType": "uint256",
          "name": "_accountNumber",
          "type": "uint256"
        },
        {
          "internalType": "uint256",
          "name": "_amount",
          "type": "uint256"
        }
      ],
      "name": "depositIntoAccount",
      "outputs": [],
      "stateMutability": "payable",
      "type": "function"
    },
    {
      "inputs": [
        {
          "internalType": "address",
          "name": "_owner",
          "type": "address"
        },
        {
          "internalType": "uint256",
          "name": "_accountNumber",
          "type": "uint256"
        }
      ],
      "name": "getAccountDetails",
      "outputs": [
        {
          "components": [
            {
              "internalType": "uint256",
              "name": "accountNumber",
              "type": "uint256"
            },
            {
              "internalType": "string",
              "name": "metadata",
              "type": "string"
            }
          ],
          "internalType": "struct Neobank.Account",
          "name": "",
          "type": "tuple"
        }
      ],
      "stateMutability": "view",
      "type": "function"
    },
    {
      "inputs": [],
      "name": "getContractBalance",
      "outputs": [
        {
          "internalType": "uint256",
          "name": "",
          "type": "uint256"
        }
      ],
      "stateMutability": "view",
      "type": "function"
    },
    {
      "inputs": [
        {
          "internalType": "uint256",
          "name": "_accountNumber",
          "type": "uint256"
        },
        {
          "internalType": "address",
          "name": "currency",
          "type": "address"
        }
      ],
      "name": "getERC20Balance",
      "outputs": [
        {
          "internalType": "uint256",
          "name": "",
          "type": "uint256"
        }
      ],
      "stateMutability": "view",
      "type": "function"
    },
    {
      "inputs": [
        {
          "internalType": "uint256",
          "name": "_accountNumber",
          "type": "uint256"
        },
        {
          "internalType": "address",
          "name": "erc20Token",
          "type": "address"
        }
      ],
      "name": "getERC20BalanceWithInterest",
      "outputs": [
        {
          "internalType": "uint256",
          "name": "",
          "type": "uint256"
        }
      ],
      "stateMutability": "view",
      "type": "function"
    },
    {
      "inputs": [
        {
          "internalType": "uint256",
          "name": "_accountNumber",
          "type": "uint256"
        }
      ],
      "name": "getEthBalance",
      "outputs": [
        {
          "internalType": "uint256",
          "name": "",
          "type": "uint256"
        }
      ],
      "stateMutability": "view",
      "type": "function"
    },
    {
      "inputs": [
        {
          "internalType": "uint256",
          "name": "_accountNumber",
          "type": "uint256"
        }
      ],
      "name": "getEthBalanceWithInterest",
      "outputs": [
        {
          "internalType": "uint256",
          "name": "",
          "type": "uint256"
        }
      ],
      "stateMutability": "view",
      "type": "function"
    },
    {
      "inputs": [
        {
          "internalType": "address",
          "name": "token",
          "type": "address"
        }
      ],
      "name": "getRelaventCToken",
      "outputs": [
        {
          "internalType": "address",
          "name": "",
          "type": "address"
        }
      ],
      "stateMutability": "view",
      "type": "function"
    },
    {
      "inputs": [
        {
          "internalType": "address",
          "name": "_erc20Token",
          "type": "address"
        }
      ],
      "name": "getTotalErc20Balance",
      "outputs": [
        {
          "internalType": "uint256",
          "name": "",
          "type": "uint256"
        }
      ],
      "stateMutability": "view",
      "type": "function"
    },
    {
      "inputs": [],
      "name": "getTotalEthBalance",
      "outputs": [
        {
          "internalType": "uint256",
          "name": "",
          "type": "uint256"
        }
      ],
      "stateMutability": "view",
      "type": "function"
    },
    {
      "inputs": [],
      "name": "myAccounts",
      "outputs": [
        {
          "components": [
            {
              "internalType": "uint256",
              "name": "accountNumber",
              "type": "uint256"
            },
            {
              "internalType": "string",
              "name": "metadata",
              "type": "string"
            }
          ],
          "internalType": "struct Neobank.Account[]",
          "name": "",
          "type": "tuple[]"
        }
      ],
      "stateMutability": "view",
      "type": "function"
    },
    {
      "inputs": [],
      "name": "owner",
      "outputs": [
        {
          "internalType": "address",
          "name": "",
          "type": "address"
        }
      ],
      "stateMutability": "view",
      "type": "function"
    },
    {
      "inputs": [],
      "name": "renounceOwnership",
      "outputs": [],
      "stateMutability": "nonpayable",
      "type": "function"
    },
    {
      "inputs": [
        {
          "internalType": "uint256",
          "name": "_fromAccount",
          "type": "uint256"
        },
        {
          "internalType": "uint256",
          "name": "_toAccount",
          "type": "uint256"
        },
        {
          "internalType": "address",
          "name": "receiver",
          "type": "address"
        },
        {
          "internalType": "uint256",
          "name": "amount",
          "type": "uint256"
        }
      ],
      "name": "transferETH",
      "outputs": [],
      "stateMutability": "nonpayable",
      "type": "function"
    },
    {
      "inputs": [
        {
          "internalType": "address",
          "name": "newOwner",
          "type": "address"
        }
      ],
      "name": "transferOwnership",
      "outputs": [],
      "stateMutability": "nonpayable",
      "type": "function"
    },
    {
      "inputs": [
        {
          "internalType": "uint256",
          "name": "amountRequested",
          "type": "uint256"
        },
        {
          "internalType": "uint256",
          "name": "_accountNumber",
          "type": "uint256"
        },
        {
          "internalType": "address",
          "name": "_erc20Token",
          "type": "address"
        }
      ],
      "name": "withdrawAmountErc20",
      "outputs": [],
      "stateMutability": "nonpayable",
      "type": "function"
    },
    {
      "inputs": [
        {
          "internalType": "uint256",
          "name": "amountRequested",
          "type": "uint256"
        },
        {
          "internalType": "uint256",
          "name": "_accountNumber",
          "type": "uint256"
        }
      ],
      "name": "withdrawAmountEth",
      "outputs": [],
      "stateMutability": "nonpayable",
      "type": "function"
    },
    {
      "inputs": [
        {
          "internalType": "uint256",
          "name": "_accountNumber",
          "type": "uint256"
        }
      ],
      "name": "withdrawMaxEth",
      "outputs": [],
      "stateMutability": "nonpayable",
      "type": "function"
    },
    {
      "stateMutability": "payable",
      "type": "receive"
    }
  ],
  "bytecode": "0x6080604052600060035573859e9d8a4edadfedb5a2ff311243af80f85a91b8600460006101000a81548173ffffffffffffffffffffffffffffffffffffffff021916908373ffffffffffffffffffffffffffffffffffffffff160217905550600460009054906101000a900473ffffffffffffffffffffffffffffffffffffffff16600560006101000a81548173ffffffffffffffffffffffffffffffffffffffff021916908373ffffffffffffffffffffffffffffffffffffffff160217905550600a600655600654600a620000d7919062000620565b600755348015620000e757600080fd5b5062000108620000fc620004f960201b60201c565b6200050160201b60201c565b6001808190555073af50a5a6af87418dac1f28f9797ceb3bfb62750a600260007360b10c134088ebd63f80766874e2cade05fc987b73ffffffffffffffffffffffffffffffffffffffff1673ffffffffffffffffffffffffffffffffffffffff16815260200190815260200160002060006101000a81548173ffffffffffffffffffffffffffffffffffffffff021916908373ffffffffffffffffffffffffffffffffffffffff16021790555073bc689667c13fb2a04f09272753760e38a95b998c6002600073ad6d458402f60fd3bd25163575031acdce07538d73ffffffffffffffffffffffffffffffffffffffff1673ffffffffffffffffffffffffffffffffffffffff16815260200190815260200160002060006101000a81548173ffffffffffffffffffffffffffffffffffffffff021916908373ffffffffffffffffffffffffffffffffffffffff1602179055507365280b21167bbd059221488b7cbe759f9fb18bb56002600073c8f88977e21630cf93c02d02d9e8812ff0dfc37a73ffffffffffffffffffffffffffffffffffffffff1673ffffffffffffffffffffffffffffffffffffffff16815260200190815260200160002060006101000a81548173ffffffffffffffffffffffffffffffffffffffff021916908373ffffffffffffffffffffffffffffffffffffffff16021790555073541c9cb0e97b77f142684cc33e8ac9ac17b1990f600260007365058d7081fcdc3cd8727dbb7f8f9d52cefdd29173ffffffffffffffffffffffffffffffffffffffff1673ffffffffffffffffffffffffffffffffffffffff16815260200190815260200160002060006101000a81548173ffffffffffffffffffffffffffffffffffffffff021916908373ffffffffffffffffffffffffffffffffffffffff160217905550732973e69b20563bcc66dc63bde153072c33ef37fe6002600073fe724a829fdf12f7012365db98730eee33742ea273ffffffffffffffffffffffffffffffffffffffff1673ffffffffffffffffffffffffffffffffffffffff16815260200190815260200160002060006101000a81548173ffffffffffffffffffffffffffffffffffffffff021916908373ffffffffffffffffffffffffffffffffffffffff16021790555073f6958cf3127e62d3eb26c79f4f45d3f3b2ccded460026000736ee856ae55b6e1a249f04cd3b947141bc146273c73ffffffffffffffffffffffffffffffffffffffff1673ffffffffffffffffffffffffffffffffffffffff16815260200190815260200160002060006101000a81548173ffffffffffffffffffffffffffffffffffffffff021916908373ffffffffffffffffffffffffffffffffffffffff160217905550620007a3565b600033905090565b60008060009054906101000a900473ffffffffffffffffffffffffffffffffffffffff169050816000806101000a81548173ffffffffffffffffffffffffffffffffffffffff021916908373ffffffffffffffffffffffffffffffffffffffff1602179055508173ffffffffffffffffffffffffffffffffffffffff168173ffffffffffffffffffffffffffffffffffffffff167f8be0079c531659141344cd1fd0a4f28419497f9722a3daafe3b4186f6b6457e060405160405180910390a35050565b6000808291508390505b60018511156200061757808604811115620005ef57620005ee62000767565b5b6001851615620005ff5780820291505b80810290506200060f8562000796565b9450620005cf565b94509492505050565b60006200062d826200075d565b91506200063a836200075d565b9250620006697fffffffffffffffffffffffffffffffffffffffffffffffffffffffffffffffff848462000671565b905092915050565b60008262000683576001905062000756565b8162000693576000905062000756565b8160018114620006ac5760028114620006b757620006ed565b600191505062000756565b60ff841115620006cc57620006cb62000767565b5b8360020a915084821115620006e657620006e562000767565b5b5062000756565b5060208310610133831016604e8410600b8410161715620007275782820a90508381111562000721576200072062000767565b5b62000756565b620007368484846001620005c5565b9250905081840481111562000750576200074f62000767565b5b81810290505b9392505050565b6000819050919050565b7f4e487b7100000000000000000000000000000000000000000000000000000000600052601160045260246000fd5b60008160011c9050919050565b613cc580620007b36000396000f3fe60806040526004361061012e5760003560e01c8063715018a6116100ab578063b3b7d8771161006f578063b3b7d877146103ee578063c9a21ae61461042b578063cc308d7414610447578063ef26bd5514610470578063f1e29e0814610499578063f2fde38b146104d657610135565b8063715018a61461030957806375e738b3146103205780638da5cb5b1461035d5780639cd488e0146103885780639e46e2c3146103c557610135565b80633e89c723116100f25780633e89c72314610231578063443562af1461025c578063534df4ba146102785780635475d2fb146102a15780636f9fb98a146102de57610135565b8063192892871461013a5780631ab7406214610163578063287cc96b146101a057806338cfb249146101cb57806339dc54451461020857610135565b3661013557005b600080fd5b34801561014657600080fd5b50610161600480360381019061015c9190612bd6565b6104ff565b005b34801561016f57600080fd5b5061018a60048036038101906101859190612abf565b6105d0565b604051610197919061355c565b60405180910390f35b3480156101ac57600080fd5b506101b56107d0565b6040516101c2919061357e565b60405180910390f35b3480156101d757600080fd5b506101f260048036038101906101ed9190612a96565b61093f565b6040516101ff919061357e565b60405180910390f35b34801561021457600080fd5b5061022f600480360381019061022a9190612ddd565b610a79565b005b34801561023d57600080fd5b50610246610e47565b60405161025391906133a4565b60405180910390f35b61027660048036038101906102719190612afb565b610f7f565b005b34801561028457600080fd5b5061029f600480360381019061029a9190612e2c565b6112b1565b005b3480156102ad57600080fd5b506102c860048036038101906102c39190612d13565b6114b9565b6040516102d5919061357e565b60405180910390f35b3480156102ea57600080fd5b506102f3611593565b604051610300919061357e565b60405180910390f35b34801561031557600080fd5b5061031e61159d565b005b34801561032c57600080fd5b5061034760048036038101906103429190612d65565b611625565b604051610354919061357e565b60405180910390f35b34801561036957600080fd5b50610372611680565b60405161037f9190613222565b60405180910390f35b34801561039457600080fd5b506103af60048036038101906103aa9190612d13565b6116a9565b6040516103bc919061357e565b60405180910390f35b3480156103d157600080fd5b506103ec60048036038101906103e79190612c42565b6116c6565b005b3480156103fa57600080fd5b5061041560048036038101906104109190612a96565b611809565b6040516104229190613222565b60405180910390f35b61044560048036038101906104409190612b4a565b611872565b005b34801561045357600080fd5b5061046e60048036038101906104699190612da1565b611bf2565b005b34801561047c57600080fd5b5061049760048036038101906104929190612d13565b611edc565b005b3480156104a557600080fd5b506104c060048036038101906104bb9190612d65565b6121ff565b6040516104cd919061357e565b60405180910390f35b3480156104e257600080fd5b506104fd60048036038101906104f89190612a96565b61230a565b005b600061050a83612402565b9050600860003373ffffffffffffffffffffffffffffffffffffffff1673ffffffffffffffffffffffffffffffffffffffff16815260200190815260200160002060405180604001604052808381526020018481525090806001815401808255809150506001900390600052602060002090600202016000909190919091506000820151816000015560208201518160010190805190602001906105af929190612908565b50505060006009600083815260200190815260200160002081905550505050565b6105d861298e565b6000600860008573ffffffffffffffffffffffffffffffffffffffff1673ffffffffffffffffffffffffffffffffffffffff168152602001908152602001600020805480602002602001604051908101604052809291908181526020016000905b8282101561070757838290600052602060002090600202016040518060400160405290816000820154815260200160018201805461067690613845565b80601f01602080910402602001604051908101604052809291908181526020018280546106a290613845565b80156106ef5780601f106106c4576101008083540402835291602001916106ef565b820191906000526020600020905b8154815290600101906020018083116106d257829003601f168201915b50505050508152505081526020019060010190610639565b50505050905061071561298e565b60005b82518110156107c4578483828151811061075b577f4e487b7100000000000000000000000000000000000000000000000000000000600052603260045260246000fd5b60200260200101516000015114156107b1578281815181106107a6577f4e487b7100000000000000000000000000000000000000000000000000000000600052603260045260246000fd5b602002602001015191505b80806107bc906138a8565b915050610718565b50809250505092915050565b6000670de0b6b3a7640000600560009054906101000a900473ffffffffffffffffffffffffffffffffffffffff1673ffffffffffffffffffffffffffffffffffffffff1663182df0f56040518163ffffffff1660e01b815260040160206040518083038186803b15801561084357600080fd5b505afa158015610857573d6000803e3d6000fd5b505050506040513d601f19601f8201168201806040525081019061087b9190612d3c565b600560009054906101000a900473ffffffffffffffffffffffffffffffffffffffff1673ffffffffffffffffffffffffffffffffffffffff166370a08231306040518263ffffffff1660e01b81526004016108d69190613222565b60206040518083038186803b1580156108ee57600080fd5b505afa158015610902573d6000803e3d6000fd5b505050506040513d601f19601f820116820180604052508101906109269190612d3c565b61093091906136e7565b61093a91906136b6565b905090565b60008061094b83611809565b9050670de0b6b3a76400008173ffffffffffffffffffffffffffffffffffffffff1663182df0f56040518163ffffffff1660e01b815260040160206040518083038186803b15801561099c57600080fd5b505afa1580156109b0573d6000803e3d6000fd5b505050506040513d601f19601f820116820180604052508101906109d49190612d3c565b8273ffffffffffffffffffffffffffffffffffffffff166370a08231306040518263ffffffff1660e01b8152600401610a0d9190613222565b60206040518083038186803b158015610a2557600080fd5b505afa158015610a39573d6000803e3d6000fd5b505050506040513d601f19601f82011682018060405250810190610a5d9190612d3c565b610a6791906136e7565b610a7191906136b6565b915050919050565b60026001541415610abf576040517f08c379a0000000000000000000000000000000000000000000000000000000008152600401610ab6906134fc565b60405180910390fd5b6002600181905550600080600083905060005b600860003373ffffffffffffffffffffffffffffffffffffffff1673ffffffffffffffffffffffffffffffffffffffff16815260200190815260200160002080549050811015610bc75785600860003373ffffffffffffffffffffffffffffffffffffffff1673ffffffffffffffffffffffffffffffffffffffff1681526020019081526020016000208281548110610b94577f4e487b7100000000000000000000000000000000000000000000000000000000600052603260045260246000fd5b9060005260206000209060020201600001541415610bb457809350600192505b8080610bbf906138a8565b915050610ad2565b508115610c09576040517f08c379a0000000000000000000000000000000000000000000000000000000008152600401610c009061353c565b60405180910390fd5b610c1b85610c1686611809565b6121ff565b861115610c5d576040517f08c379a0000000000000000000000000000000000000000000000000000000008152600401610c549061349c565b60405180910390fd5b60003390506000610c7688610c7188611809565b61244b565b90508060036000828254610c8a9190613741565b9250508190555080600c60008981526020019081526020016000206000610cb089611809565b73ffffffffffffffffffffffffffffffffffffffff1673ffffffffffffffffffffffffffffffffffffffff1681526020019081526020016000206000828254610cf99190613741565b9250508190555087600b600089815260200190815260200160002060008873ffffffffffffffffffffffffffffffffffffffff1673ffffffffffffffffffffffffffffffffffffffff1681526020019081526020016000206000828254610d609190613741565b925050819055508273ffffffffffffffffffffffffffffffffffffffff1663a9059cbb838a6040518363ffffffff1660e01b8152600401610da292919061323d565b602060405180830381600087803b158015610dbc57600080fd5b505af1158015610dd0573d6000803e3d6000fd5b505050506040513d601f19601f82011682018060405250810190610df49190612bad565b507f8fb4891d307727b93beb160470a693b397cf751c1fdd9717dddbe9717c98ecf8333389898c42604051610e2e96959493929190613266565b60405180910390a1505050505060018081905550505050565b6060600860003373ffffffffffffffffffffffffffffffffffffffff1673ffffffffffffffffffffffffffffffffffffffff168152602001908152602001600020805480602002602001604051908101604052809291908181526020016000905b82821015610f76578382906000526020600020906002020160405180604001604052908160008201548152602001600182018054610ee590613845565b80601f0160208091040260200160405190810160405280929190818152602001828054610f1190613845565b8015610f5e5780601f10610f3357610100808354040283529160200191610f5e565b820191906000526020600020905b815481529060010190602001808311610f4157829003601f168201915b50505050508152505081526020019060010190610ea8565b50505050905090565b80341015610fc2576040517f08c379a0000000000000000000000000000000000000000000000000000000008152600401610fb99061351c565b60405180910390fd5b662386f26fc1000034101561100c576040517f08c379a0000000000000000000000000000000000000000000000000000000008152600401611003906134bc565b60405180910390fd5b6000600560009054906101000a900473ffffffffffffffffffffffffffffffffffffffff1673ffffffffffffffffffffffffffffffffffffffff166370a08231306040518263ffffffff1660e01b81526004016110699190613222565b60206040518083038186803b15801561108157600080fd5b505afa158015611095573d6000803e3d6000fd5b505050506040513d601f19601f820116820180604052508101906110b99190612d3c565b9050600560009054906101000a900473ffffffffffffffffffffffffffffffffffffffff1673ffffffffffffffffffffffffffffffffffffffff16631249c58b346040518263ffffffff1660e01b81526004016000604051808303818588803b15801561112557600080fd5b505af1158015611139573d6000803e3d6000fd5b50505050506000600560009054906101000a900473ffffffffffffffffffffffffffffffffffffffff1673ffffffffffffffffffffffffffffffffffffffff166370a08231306040518263ffffffff1660e01b815260040161119b9190613222565b60206040518083038186803b1580156111b357600080fd5b505afa1580156111c7573d6000803e3d6000fd5b505050506040513d601f19601f820116820180604052508101906111eb9190612d3c565b9050600082826111fb9190613741565b9050346009600087815260200190815260200160002060008282546112209190613660565b9250508190555080600a6000878152602001908152602001600020600082825461124a9190613660565b9250508190555080600360008282546112639190613660565b925050819055507f3a8bced2b6a24c6a3e626f96aed9eb7f6236aa50d35c9bb99738d6b3c024f3fe33878734426040516112a19594939291906132c7565b60405180910390a1505050505050565b8060096000868152602001908152602001600020541015611307576040517f08c379a00000000000000000000000000000000000000000000000000000000081526004016112fe9061343c565b60405180910390fd5b6000670de0b6b3a7640000600560009054906101000a900473ffffffffffffffffffffffffffffffffffffffff1673ffffffffffffffffffffffffffffffffffffffff1663182df0f56040518163ffffffff1660e01b815260040160206040518083038186803b15801561137a57600080fd5b505afa15801561138e573d6000803e3d6000fd5b505050506040513d601f19601f820116820180604052508101906113b29190612d3c565b836113bd91906136b6565b6113c791906136e7565b9050816009600087815260200190815260200160002060008282546113ec9190613741565b9250508190555080600a600087815260200190815260200160002060008282546114169190613741565b92505081905550816009600086815260200190815260200160002060008282546114409190613660565b9250508190555080600a6000868152602001908152602001600020600082825461146a9190613660565b925050819055507fb1947aa3e6d319e5d48a8898d6522f2bda549ec0c262634c15fdcaa54f2ee81c3386858786426040516114aa96959493929190613343565b60405180910390a15050505050565b6000670de0b6b3a7640000600560009054906101000a900473ffffffffffffffffffffffffffffffffffffffff1673ffffffffffffffffffffffffffffffffffffffff1663182df0f56040518163ffffffff1660e01b815260040160206040518083038186803b15801561152c57600080fd5b505afa158015611540573d6000803e3d6000fd5b505050506040513d601f19601f820116820180604052508101906115649190612d3c565b600a60008581526020019081526020016000205461158291906136e7565b61158c91906136b6565b9050919050565b6000600354905090565b6115a5612614565b73ffffffffffffffffffffffffffffffffffffffff166115c3611680565b73ffffffffffffffffffffffffffffffffffffffff1614611619576040517f08c379a00000000000000000000000000000000000000000000000000000000081526004016116109061347c565b60405180910390fd5b611623600061261c565b565b6000600b600084815260200190815260200160002060008373ffffffffffffffffffffffffffffffffffffffff1673ffffffffffffffffffffffffffffffffffffffff16815260200190815260200160002054905092915050565b60008060009054906101000a900473ffffffffffffffffffffffffffffffffffffffff16905090565b600060096000838152602001908152602001600020549050919050565b6116ce612614565b73ffffffffffffffffffffffffffffffffffffffff166116ec611680565b73ffffffffffffffffffffffffffffffffffffffff1614611742576040517f08c379a00000000000000000000000000000000000000000000000000000000081526004016117399061347c565b60405180910390fd5b80600260008473ffffffffffffffffffffffffffffffffffffffff1673ffffffffffffffffffffffffffffffffffffffff16815260200190815260200160002060006101000a81548173ffffffffffffffffffffffffffffffffffffffff021916908373ffffffffffffffffffffffffffffffffffffffff1602179055507f72bdb52b9e8053e4a61e7068dc603c8fb5baf1ab7adeefa336d5ee2582159a318686868686866040516117f9969594939291906133c6565b60405180910390a1505050505050565b6000600260008373ffffffffffffffffffffffffffffffffffffffff1673ffffffffffffffffffffffffffffffffffffffff16815260200190815260200160002060009054906101000a900473ffffffffffffffffffffffffffffffffffffffff169050919050565b600061187d82611809565b9050600082905060008273ffffffffffffffffffffffffffffffffffffffff166370a08231306040518263ffffffff1660e01b81526004016118bf9190613222565b60206040518083038186803b1580156118d757600080fd5b505afa1580156118eb573d6000803e3d6000fd5b505050506040513d601f19601f8201168201806040525081019061190f9190612d3c565b90508173ffffffffffffffffffffffffffffffffffffffff1663095ea7b361193686611809565b876040518363ffffffff1660e01b815260040161195492919061331a565b602060405180830381600087803b15801561196e57600080fd5b505af1158015611982573d6000803e3d6000fd5b505050506040513d601f19601f820116820180604052508101906119a69190612bad565b508273ffffffffffffffffffffffffffffffffffffffff1663a0712d68866040518263ffffffff1660e01b81526004016119e0919061357e565b602060405180830381600087803b1580156119fa57600080fd5b505af1158015611a0e573d6000803e3d6000fd5b505050506040513d601f19601f82011682018060405250810190611a329190612d3c565b5060008373ffffffffffffffffffffffffffffffffffffffff166370a08231306040518263ffffffff1660e01b8152600401611a6e9190613222565b60206040518083038186803b158015611a8657600080fd5b505afa158015611a9a573d6000803e3d6000fd5b505050506040513d601f19601f82011682018060405250810190611abe9190612d3c565b905060008282611ace9190613741565b905086600b60008a815260200190815260200160002060008873ffffffffffffffffffffffffffffffffffffffff1673ffffffffffffffffffffffffffffffffffffffff1681526020019081526020016000206000828254611b309190613660565b9250508190555080600c60008a81526020019081526020016000206000611b5689611809565b73ffffffffffffffffffffffffffffffffffffffff1673ffffffffffffffffffffffffffffffffffffffff1681526020019081526020016000206000828254611b9f9190613660565b925050819055507f8fb4891d307727b93beb160470a693b397cf751c1fdd9717dddbe9717c98ecf8338a8a898b42604051611bdf96959493929190613266565b60405180910390a1505050505050505050565b60026001541415611c38576040517f08c379a0000000000000000000000000000000000000000000000000000000008152600401611c2f906134fc565b60405180910390fd5b600260018190555060008060005b600860003373ffffffffffffffffffffffffffffffffffffffff1673ffffffffffffffffffffffffffffffffffffffff16815260200190815260200160002080549050811015611d3b5783600860003373ffffffffffffffffffffffffffffffffffffffff1673ffffffffffffffffffffffffffffffffffffffff1681526020019081526020016000208281548110611d08577f4e487b7100000000000000000000000000000000000000000000000000000000600052603260045260246000fd5b9060005260206000209060020201600001541415611d2857809250600191505b8080611d33906138a8565b915050611c46565b508015611d7d576040517f08c379a0000000000000000000000000000000000000000000000000000000008152600401611d749061353c565b60405180910390fd5b611d86836114b9565b841115611dc8576040517f08c379a0000000000000000000000000000000000000000000000000000000008152600401611dbf906134dc565b60405180910390fd5b60003390506000611dd8866126e0565b90508060036000828254611dec9190613741565b9250508190555080600a60008781526020019081526020016000206000828254611e169190613741565b9250508190555085600960008781526020019081526020016000206000828254611e409190613741565b925050819055508173ffffffffffffffffffffffffffffffffffffffff166108fc879081150290604051600060405180830381858888f19350505050158015611e8d573d6000803e3d6000fd5b507fd457fe9a0ba100b8f82984e03f42fd46de0f4f9544e7eb7ef688e971b540ed0a3333878942604051611ec59594939291906132c7565b60405180910390a150505050600180819055505050565b60026001541415611f22576040517f08c379a0000000000000000000000000000000000000000000000000000000008152600401611f19906134fc565b60405180910390fd5b600260018190555060008060005b600860003373ffffffffffffffffffffffffffffffffffffffff1673ffffffffffffffffffffffffffffffffffffffff168152602001908152602001600020805490508110156120255783600860003373ffffffffffffffffffffffffffffffffffffffff1673ffffffffffffffffffffffffffffffffffffffff1681526020019081526020016000208281548110611ff2577f4e487b7100000000000000000000000000000000000000000000000000000000600052603260045260246000fd5b906000526020600020906002020160000154141561201257809250600191505b808061201d906138a8565b915050611f30565b5080612066576040517f08c379a000000000000000000000000000000000000000000000000000000000815260040161205d9061353c565b60405180910390fd5b6000339050600560009054906101000a900473ffffffffffffffffffffffffffffffffffffffff1673ffffffffffffffffffffffffffffffffffffffff1663db006a75600a6000878152602001908152602001600020546040518263ffffffff1660e01b81526004016120d9919061357e565b602060405180830381600087803b1580156120f357600080fd5b505af1158015612107573d6000803e3d6000fd5b505050506040513d601f19601f8201168201806040525081019061212b9190612d3c565b506000612137856114b9565b90506000600a600087815260200190815260200160002081905550600060096000878152602001908152602001600020819055508173ffffffffffffffffffffffffffffffffffffffff166108fc829081150290604051600060405180830381858888f193505050501580156121b1573d6000803e3d6000fd5b507fd457fe9a0ba100b8f82984e03f42fd46de0f4f9544e7eb7ef688e971b540ed0a33338784426040516121e99594939291906132c7565b60405180910390a1505050506001808190555050565b60008061220b83611809565b9050670de0b6b3a76400008173ffffffffffffffffffffffffffffffffffffffff1663182df0f56040518163ffffffff1660e01b815260040160206040518083038186803b15801561225c57600080fd5b505afa158015612270573d6000803e3d6000fd5b505050506040513d601f19601f820116820180604052508101906122949190612d3c565b600c600087815260200190815260200160002060006122b287611809565b73ffffffffffffffffffffffffffffffffffffffff1673ffffffffffffffffffffffffffffffffffffffff168152602001908152602001600020546122f791906136e7565b61230191906136b6565b91505092915050565b612312612614565b73ffffffffffffffffffffffffffffffffffffffff16612330611680565b73ffffffffffffffffffffffffffffffffffffffff1614612386576040517f08c379a000000000000000000000000000000000000000000000000000000000815260040161237d9061347c565b60405180910390fd5b600073ffffffffffffffffffffffffffffffffffffffff168173ffffffffffffffffffffffffffffffffffffffff1614156123f6576040517f08c379a00000000000000000000000000000000000000000000000000000000081526004016123ed9061345c565b60405180910390fd5b6123ff8161261c565b50565b60008033834260405160200161241a939291906131e9565b6040516020818303038152906040528051906020012060001c905060075481612443919061391f565b915050919050565b60008082905060008173ffffffffffffffffffffffffffffffffffffffff166370a08231306040518263ffffffff1660e01b815260040161248c9190613222565b60206040518083038186803b1580156124a457600080fd5b505afa1580156124b8573d6000803e3d6000fd5b505050506040513d601f19601f820116820180604052508101906124dc9190612d3c565b90508173ffffffffffffffffffffffffffffffffffffffff1663852a12e3866040518263ffffffff1660e01b8152600401612517919061357e565b602060405180830381600087803b15801561253157600080fd5b505af1158015612545573d6000803e3d6000fd5b505050506040513d601f19601f820116820180604052508101906125699190612d3c565b5060008273ffffffffffffffffffffffffffffffffffffffff166370a08231306040518263ffffffff1660e01b81526004016125a59190613222565b60206040518083038186803b1580156125bd57600080fd5b505afa1580156125d1573d6000803e3d6000fd5b505050506040513d601f19601f820116820180604052508101906125f59190612d3c565b9050600081836126059190613741565b90508094505050505092915050565b600033905090565b60008060009054906101000a900473ffffffffffffffffffffffffffffffffffffffff169050816000806101000a81548173ffffffffffffffffffffffffffffffffffffffff021916908373ffffffffffffffffffffffffffffffffffffffff1602179055508173ffffffffffffffffffffffffffffffffffffffff168173ffffffffffffffffffffffffffffffffffffffff167f8be0079c531659141344cd1fd0a4f28419497f9722a3daafe3b4186f6b6457e060405160405180910390a35050565b600080600560009054906101000a900473ffffffffffffffffffffffffffffffffffffffff1673ffffffffffffffffffffffffffffffffffffffff166370a08231306040518263ffffffff1660e01b815260040161273e9190613222565b60206040518083038186803b15801561275657600080fd5b505afa15801561276a573d6000803e3d6000fd5b505050506040513d601f19601f8201168201806040525081019061278e9190612d3c565b9050600560009054906101000a900473ffffffffffffffffffffffffffffffffffffffff1673ffffffffffffffffffffffffffffffffffffffff1663852a12e3846040518263ffffffff1660e01b81526004016127eb919061357e565b602060405180830381600087803b15801561280557600080fd5b505af1158015612819573d6000803e3d6000fd5b505050506040513d601f19601f8201168201806040525081019061283d9190612d3c565b506000600560009054906101000a900473ffffffffffffffffffffffffffffffffffffffff1673ffffffffffffffffffffffffffffffffffffffff166370a08231306040518263ffffffff1660e01b815260040161289b9190613222565b60206040518083038186803b1580156128b357600080fd5b505afa1580156128c7573d6000803e3d6000fd5b505050506040513d601f19601f820116820180604052508101906128eb9190612d3c565b9050600081836128fb9190613741565b9050809350505050919050565b82805461291490613845565b90600052602060002090601f016020900481019282612936576000855561297d565b82601f1061294f57805160ff191683800117855561297d565b8280016001018555821561297d579182015b8281111561297c578251825591602001919060010190612961565b5b50905061298a91906129a8565b5090565b604051806040016040528060008152602001606081525090565b5b808211156129c15760008160009055506001016129a9565b5090565b60006129d86129d3846135be565b613599565b9050828152602081018484840111156129f057600080fd5b6129fb848285613803565b509392505050565b600081359050612a1281613c33565b92915050565b600081519050612a2781613c4a565b92915050565b600082601f830112612a3e57600080fd5b8135612a4e8482602086016129c5565b91505092915050565b600081359050612a6681613c61565b92915050565b600081519050612a7b81613c61565b92915050565b600081359050612a9081613c78565b92915050565b600060208284031215612aa857600080fd5b6000612ab684828501612a03565b91505092915050565b60008060408385031215612ad257600080fd5b6000612ae085828601612a03565b9250506020612af185828601612a57565b9150509250929050565b600080600060608486031215612b1057600080fd5b6000612b1e86828701612a03565b9350506020612b2f86828701612a57565b9250506040612b4086828701612a57565b9150509250925092565b60008060008060808587031215612b6057600080fd5b6000612b6e87828801612a03565b9450506020612b7f87828801612a57565b9350506040612b9087828801612a57565b9250506060612ba187828801612a03565b91505092959194509250565b600060208284031215612bbf57600080fd5b6000612bcd84828501612a18565b91505092915050565b60008060408385031215612be957600080fd5b600083013567ffffffffffffffff811115612c0357600080fd5b612c0f85828601612a2d565b925050602083013567ffffffffffffffff811115612c2c57600080fd5b612c3885828601612a2d565b9150509250929050565b60008060008060008060c08789031215612c5b57600080fd5b600087013567ffffffffffffffff811115612c7557600080fd5b612c8189828a01612a2d565b9650506020612c9289828a01612a81565b955050604087013567ffffffffffffffff811115612caf57600080fd5b612cbb89828a01612a2d565b945050606087013567ffffffffffffffff811115612cd857600080fd5b612ce489828a01612a2d565b9350506080612cf589828a01612a03565b92505060a0612d0689828a01612a03565b9150509295509295509295565b600060208284031215612d2557600080fd5b6000612d3384828501612a57565b91505092915050565b600060208284031215612d4e57600080fd5b6000612d5c84828501612a6c565b91505092915050565b60008060408385031215612d7857600080fd5b6000612d8685828601612a57565b9250506020612d9785828601612a03565b9150509250929050565b60008060408385031215612db457600080fd5b6000612dc285828601612a57565b9250506020612dd385828601612a57565b9150509250929050565b600080600060608486031215612df257600080fd5b6000612e0086828701612a57565b9350506020612e1186828701612a57565b9250506040612e2286828701612a03565b9150509250925092565b60008060008060808587031215612e4257600080fd5b6000612e5087828801612a57565b9450506020612e6187828801612a57565b9350506040612e7287828801612a03565b9250506060612e8387828801612a57565b91505092959194509250565b6000612e9b838361312b565b905092915050565b612eac816137cd565b82525050565b612ebb81613775565b82525050565b612ed2612ecd82613775565b6138f1565b82525050565b6000612ee3826135ff565b612eed8185613622565b935083602082028501612eff856135ef565b8060005b85811015612f3b5784840389528151612f1c8582612e8f565b9450612f2783613615565b925060208a01995050600181019050612f03565b50829750879550505050505092915050565b6000612f588261360a565b612f628185613633565b9350612f72818560208601613812565b612f7b81613a0c565b840191505092915050565b6000612f918261360a565b612f9b8185613644565b9350612fab818560208601613812565b612fb481613a0c565b840191505092915050565b6000612fca8261360a565b612fd48185613655565b9350612fe4818560208601613812565b80840191505092915050565b6000612ffd600b83613644565b915061300882613a2a565b602082019050919050565b6000613020602683613644565b915061302b82613a53565b604082019050919050565b6000613043602083613644565b915061304e82613aa2565b602082019050919050565b6000613066603183613644565b915061307182613acb565b604082019050919050565b6000613089602283613644565b915061309482613b1a565b604082019050919050565b60006130ac602f83613644565b91506130b782613b69565b604082019050919050565b60006130cf601f83613644565b91506130da82613bb8565b602082019050919050565b60006130f2601483613644565b91506130fd82613be1565b602082019050919050565b6000613115601283613644565b915061312082613c0a565b602082019050919050565b600060408301600083015161314360008601826131a5565b506020830151848203602086015261315b8282612f4d565b9150508091505092915050565b600060408301600083015161318060008601826131a5565b50602083015184820360208601526131988282612f4d565b9150508091505092915050565b6131ae816137b3565b82525050565b6131bd816137b3565b82525050565b6131d46131cf826137b3565b613915565b82525050565b6131e3816137bd565b82525050565b60006131f58286612ec1565b6014820191506132058285612fbf565b915061321182846131c3565b602082019150819050949350505050565b60006020820190506132376000830184612eb2565b92915050565b60006040820190506132526000830185612ea3565b61325f60208301846131b4565b9392505050565b600060c08201905061327b6000830189612eb2565b6132886020830188612eb2565b61329560408301876131b4565b6132a26060830186612eb2565b6132af60808301856131b4565b6132bc60a08301846131b4565b979650505050505050565b600060a0820190506132dc6000830188612eb2565b6132e96020830187612eb2565b6132f660408301866131b4565b61330360608301856131b4565b61331060808301846131b4565b9695505050505050565b600060408201905061332f6000830185612eb2565b61333c60208301846131b4565b9392505050565b600060c0820190506133586000830189612eb2565b61336560208301886131b4565b6133726040830187612eb2565b61337f60608301866131b4565b61338c60808301856131b4565b61339960a08301846131b4565b979650505050505050565b600060208201905081810360008301526133be8184612ed8565b905092915050565b600060c08201905081810360008301526133e08189612f86565b90506133ef60208301886131da565b81810360408301526134018187612f86565b905081810360608301526134158186612f86565b90506134246080830185612eb2565b61343160a0830184612eb2565b979650505050505050565b6000602082019050818103600083015261345581612ff0565b9050919050565b6000602082019050818103600083015261347581613013565b9050919050565b6000602082019050818103600083015261349581613036565b9050919050565b600060208201905081810360008301526134b581613059565b9050919050565b600060208201905081810360008301526134d58161307c565b9050919050565b600060208201905081810360008301526134f58161309f565b9050919050565b60006020820190508181036000830152613515816130c2565b9050919050565b60006020820190508181036000830152613535816130e5565b9050919050565b6000602082019050818103600083015261355581613108565b9050919050565b600060208201905081810360008301526135768184613168565b905092915050565b600060208201905061359360008301846131b4565b92915050565b60006135a36135b4565b90506135af8282613877565b919050565b6000604051905090565b600067ffffffffffffffff8211156135d9576135d86139dd565b5b6135e282613a0c565b9050602081019050919050565b6000819050602082019050919050565b600081519050919050565b600081519050919050565b6000602082019050919050565b600082825260208201905092915050565b600082825260208201905092915050565b600082825260208201905092915050565b600081905092915050565b600061366b826137b3565b9150613676836137b3565b9250827fffffffffffffffffffffffffffffffffffffffffffffffffffffffffffffffff038211156136ab576136aa613950565b5b828201905092915050565b60006136c1826137b3565b91506136cc836137b3565b9250826136dc576136db61397f565b5b828204905092915050565b60006136f2826137b3565b91506136fd836137b3565b9250817fffffffffffffffffffffffffffffffffffffffffffffffffffffffffffffffff048311821515161561373657613735613950565b5b828202905092915050565b600061374c826137b3565b9150613757836137b3565b92508282101561376a57613769613950565b5b828203905092915050565b600061378082613793565b9050919050565b60008115159050919050565b600073ffffffffffffffffffffffffffffffffffffffff82169050919050565b6000819050919050565b600063ffffffff82169050919050565b60006137d8826137df565b9050919050565b60006137ea826137f1565b9050919050565b60006137fc82613793565b9050919050565b82818337600083830152505050565b60005b83811015613830578082015181840152602081019050613815565b8381111561383f576000848401525b50505050565b6000600282049050600182168061385d57607f821691505b60208210811415613871576138706139ae565b5b50919050565b61388082613a0c565b810181811067ffffffffffffffff8211171561389f5761389e6139dd565b5b80604052505050565b60006138b3826137b3565b91507fffffffffffffffffffffffffffffffffffffffffffffffffffffffffffffffff8214156138e6576138e5613950565b5b600182019050919050565b60006138fc82613903565b9050919050565b600061390e82613a1d565b9050919050565b6000819050919050565b600061392a826137b3565b9150613935836137b3565b9250826139455761394461397f565b5b828206905092915050565b7f4e487b7100000000000000000000000000000000000000000000000000000000600052601160045260246000fd5b7f4e487b7100000000000000000000000000000000000000000000000000000000600052601260045260246000fd5b7f4e487b7100000000000000000000000000000000000000000000000000000000600052602260045260246000fd5b7f4e487b7100000000000000000000000000000000000000000000000000000000600052604160045260246000fd5b6000601f19601f8301169050919050565b60008160601b9050919050565b7f4c6f772042616c616e6365000000000000000000000000000000000000000000600082015250565b7f4f776e61626c653a206e6577206f776e657220697320746865207a65726f206160008201527f6464726573730000000000000000000000000000000000000000000000000000602082015250565b7f4f776e61626c653a2063616c6c6572206973206e6f7420746865206f776e6572600082015250565b7f596f75722062616c616e636520697320736d616c6c6572207468616e2074686560008201527f2072657175657374656420616d6f756e74000000000000000000000000000000602082015250565b7f4d696e696d756d206465706f73697420616d6f756e7420697320302e3031204560008201527f7468000000000000000000000000000000000000000000000000000000000000602082015250565b7f596f75722062616c616e6365206973206c6f776572207468616e20746865207260008201527f657175657374656420616d6f756e740000000000000000000000000000000000602082015250565b7f5265656e7472616e637947756172643a207265656e7472616e742063616c6c00600082015250565b7f416d6f756e742073656e74206973206c6573732e000000000000000000000000600082015250565b7f4163636f756e74206e6f7420666f756e642e0000000000000000000000000000600082015250565b613c3c81613775565b8114613c4757600080fd5b50565b613c5381613787565b8114613c5e57600080fd5b50565b613c6a816137b3565b8114613c7557600080fd5b50565b613c81816137bd565b8114613c8c57600080fd5b5056fea2646970667358221220645e31f8b0928d01eb4d263cf0afbe45b09e3949fe1da068c8590dc25684ece464736f6c63430008040033",
  "linkReferences": {},
  "deployedLinkReferences": {}
}