{
  "_format": "hh-sol-artifact-1",
  "contractName": "Neobank",
  "sourceName": "contracts/Newbank.sol",
  "abi": [
    {
      "anonymous": false,
      "inputs": [
        {
          "indexed": false,
          "internalType": "address",
          "name": "_owner",
          "type": "address"
        },
        {
          "indexed": false,
          "internalType": "uint256",
          "name": "_accountNumber",
          "type": "uint256"
        },
        {
          "indexed": false,
          "internalType": "string",
          "name": "_metadata",
          "type": "string"
        }
      ],
      "name": "AccountCreated",
      "type": "event"
    },
    {
      "anonymous": false,
      "inputs": [
        {
          "indexed": false,
          "internalType": "string",
          "name": "name",
          "type": "string"
        },
        {
          "indexed": false,
          "internalType": "uint32",
          "name": "decimal",
          "type": "uint32"
        },
        {
          "indexed": false,
          "internalType": "string",
          "name": "symbol",
          "type": "string"
        },
        {
          "indexed": false,
          "internalType": "string",
          "name": "icon",
          "type": "string"
        },
        {
          "indexed": false,
          "internalType": "address",
          "name": "token",
          "type": "address"
        },
        {
          "indexed": false,
          "internalType": "address",
          "name": "cToken",
          "type": "address"
        }
      ],
      "name": "CompoundTokenAdded",
      "type": "event"
    },
    {
      "anonymous": false,
      "inputs": [
        {
          "indexed": false,
          "internalType": "address",
          "name": "_depositor",
          "type": "address"
        },
        {
          "indexed": false,
          "internalType": "address",
          "name": "_owner",
          "type": "address"
        },
        {
          "indexed": false,
          "internalType": "uint256",
          "name": "_accountNumber",
          "type": "uint256"
        },
        {
          "indexed": false,
          "internalType": "address",
          "name": "currency",
          "type": "address"
        },
        {
          "indexed": false,
          "internalType": "uint256",
          "name": "_amount",
          "type": "uint256"
        },
        {
          "indexed": false,
          "internalType": "uint256",
          "name": "_timestamp",
          "type": "uint256"
        }
      ],
      "name": "Erc20DepositMade",
      "type": "event"
    },
    {
      "anonymous": false,
      "inputs": [
        {
          "indexed": false,
          "internalType": "address",
          "name": "_depositor",
          "type": "address"
        },
        {
          "indexed": false,
          "internalType": "address",
          "name": "_owner",
          "type": "address"
        },
        {
          "indexed": false,
          "internalType": "uint256",
          "name": "_accountNumber",
          "type": "uint256"
        },
        {
          "indexed": false,
          "internalType": "uint256",
          "name": "_amount",
          "type": "uint256"
        },
        {
          "indexed": false,
          "internalType": "uint256",
          "name": "_timestamp",
          "type": "uint256"
        }
      ],
      "name": "EthDepositMade",
      "type": "event"
    },
    {
      "anonymous": false,
      "inputs": [
        {
          "indexed": true,
          "internalType": "address",
          "name": "previousOwner",
          "type": "address"
        },
        {
          "indexed": true,
          "internalType": "address",
          "name": "newOwner",
          "type": "address"
        }
      ],
      "name": "OwnershipTransferred",
      "type": "event"
    },
    {
      "inputs": [
        {
          "internalType": "string",
          "name": "name",
          "type": "string"
        },
        {
          "internalType": "uint32",
          "name": "decimal",
          "type": "uint32"
        },
        {
          "internalType": "string",
          "name": "symbol",
          "type": "string"
        },
        {
          "internalType": "string",
          "name": "icon",
          "type": "string"
        },
        {
          "internalType": "address",
          "name": "token",
          "type": "address"
        },
        {
          "internalType": "address",
          "name": "cToken",
          "type": "address"
        }
      ],
      "name": "addRelaventCtoken",
      "outputs": [],
      "stateMutability": "nonpayable",
      "type": "function"
    },
    {
      "inputs": [
        {
          "internalType": "string",
          "name": "_name",
          "type": "string"
        },
        {
          "internalType": "string",
          "name": "_metadata",
          "type": "string"
        }
      ],
      "name": "createAccount",
      "outputs": [],
      "stateMutability": "nonpayable",
      "type": "function"
    },
    {
      "inputs": [
        {
          "internalType": "address",
          "name": "_owner",
          "type": "address"
        },
        {
          "internalType": "uint256",
          "name": "_accountNumber",
          "type": "uint256"
        },
        {
          "internalType": "uint256",
          "name": "amount",
          "type": "uint256"
        },
        {
          "internalType": "address",
          "name": "currency",
          "type": "address"
        }
      ],
      "name": "depositERC20IntoAccount",
      "outputs": [],
      "stateMutability": "payable",
      "type": "function"
    },
    {
      "inputs": [
        {
          "internalType": "address",
          "name": "_owner",
          "type": "address"
        },
        {
          "internalType": "uint256",
          "name": "_accountNumber",
          "type": "uint256"
        },
        {
          "internalType": "uint256",
          "name": "_amount",
          "type": "uint256"
        }
      ],
      "name": "depositIntoAccount",
      "outputs": [],
      "stateMutability": "payable",
      "type": "function"
    },
    {
      "inputs": [
        {
          "internalType": "address",
          "name": "_owner",
          "type": "address"
        },
        {
          "internalType": "uint256",
          "name": "_accountNumber",
          "type": "uint256"
        }
      ],
      "name": "getAccountDetails",
      "outputs": [
        {
          "components": [
            {
              "internalType": "uint256",
              "name": "accountNumber",
              "type": "uint256"
            },
            {
              "internalType": "string",
              "name": "metadata",
              "type": "string"
            }
          ],
          "internalType": "struct Neobank.Account",
          "name": "",
          "type": "tuple"
        }
      ],
      "stateMutability": "view",
      "type": "function"
    },
    {
      "inputs": [],
      "name": "getContractBalance",
      "outputs": [
        {
          "internalType": "uint256",
          "name": "",
          "type": "uint256"
        }
      ],
      "stateMutability": "view",
      "type": "function"
    },
    {
      "inputs": [
        {
          "internalType": "uint256",
          "name": "_accountNumber",
          "type": "uint256"
        },
        {
          "internalType": "address",
          "name": "currency",
          "type": "address"
        }
      ],
      "name": "getERC20Balance",
      "outputs": [
        {
          "internalType": "uint256",
          "name": "",
          "type": "uint256"
        }
      ],
      "stateMutability": "view",
      "type": "function"
    },
    {
      "inputs": [
        {
          "internalType": "uint256",
          "name": "_accountNumber",
          "type": "uint256"
        },
        {
          "internalType": "address",
          "name": "erc20Token",
          "type": "address"
        }
      ],
      "name": "getERC20BalanceWithInterest",
      "outputs": [
        {
          "internalType": "uint256",
          "name": "",
          "type": "uint256"
        }
      ],
      "stateMutability": "view",
      "type": "function"
    },
    {
      "inputs": [
        {
          "internalType": "uint256",
          "name": "_accountNumber",
          "type": "uint256"
        }
      ],
      "name": "getEthBalance",
      "outputs": [
        {
          "internalType": "uint256",
          "name": "",
          "type": "uint256"
        }
      ],
      "stateMutability": "view",
      "type": "function"
    },
    {
      "inputs": [
        {
          "internalType": "uint256",
          "name": "_accountNumber",
          "type": "uint256"
        }
      ],
      "name": "getEthBalanceWithInterest",
      "outputs": [
        {
          "internalType": "uint256",
          "name": "",
          "type": "uint256"
        }
      ],
      "stateMutability": "view",
      "type": "function"
    },
    {
      "inputs": [
        {
          "internalType": "address",
          "name": "token",
          "type": "address"
        }
      ],
      "name": "getRelaventCToken",
      "outputs": [
        {
          "internalType": "address",
          "name": "",
          "type": "address"
        }
      ],
      "stateMutability": "view",
      "type": "function"
    },
    {
      "inputs": [
        {
          "internalType": "address",
          "name": "_erc20Token",
          "type": "address"
        }
      ],
      "name": "getTotalErc20Balance",
      "outputs": [
        {
          "internalType": "uint256",
          "name": "",
          "type": "uint256"
        }
      ],
      "stateMutability": "view",
      "type": "function"
    },
    {
      "inputs": [],
      "name": "getTotalEthBalance",
      "outputs": [
        {
          "internalType": "uint256",
          "name": "",
          "type": "uint256"
        }
      ],
      "stateMutability": "view",
      "type": "function"
    },
    {
      "inputs": [],
      "name": "myAccounts",
      "outputs": [
        {
          "components": [
            {
              "internalType": "uint256",
              "name": "accountNumber",
              "type": "uint256"
            },
            {
              "internalType": "string",
              "name": "metadata",
              "type": "string"
            }
          ],
          "internalType": "struct Neobank.Account[]",
          "name": "",
          "type": "tuple[]"
        }
      ],
      "stateMutability": "view",
      "type": "function"
    },
    {
      "inputs": [],
      "name": "owner",
      "outputs": [
        {
          "internalType": "address",
          "name": "",
          "type": "address"
        }
      ],
      "stateMutability": "view",
      "type": "function"
    },
    {
      "inputs": [],
      "name": "renounceOwnership",
      "outputs": [],
      "stateMutability": "nonpayable",
      "type": "function"
    },
    {
      "inputs": [
        {
          "internalType": "address",
          "name": "newOwner",
          "type": "address"
        }
      ],
      "name": "transferOwnership",
      "outputs": [],
      "stateMutability": "nonpayable",
      "type": "function"
    },
    {
      "inputs": [
        {
          "internalType": "uint256",
          "name": "amountRequested",
          "type": "uint256"
        },
        {
          "internalType": "uint256",
          "name": "_accountNumber",
          "type": "uint256"
        },
        {
          "internalType": "address",
          "name": "_erc20Token",
          "type": "address"
        }
      ],
      "name": "withdrawAmountErc20",
      "outputs": [],
      "stateMutability": "nonpayable",
      "type": "function"
    },
    {
      "inputs": [
        {
          "internalType": "uint256",
          "name": "amountRequested",
          "type": "uint256"
        },
        {
          "internalType": "uint256",
          "name": "_accountNumber",
          "type": "uint256"
        }
      ],
      "name": "withdrawAmountEth",
      "outputs": [],
      "stateMutability": "nonpayable",
      "type": "function"
    },
    {
      "inputs": [
        {
          "internalType": "uint256",
          "name": "_accountNumber",
          "type": "uint256"
        }
      ],
      "name": "withdrawMaxEth",
      "outputs": [],
      "stateMutability": "nonpayable",
      "type": "function"
    },
    {
      "stateMutability": "payable",
      "type": "receive"
    }
  ],
  "bytecode": "0x6080604052600060035573859e9d8a4edadfedb5a2ff311243af80f85a91b8600460006101000a81548173ffffffffffffffffffffffffffffffffffffffff021916908373ffffffffffffffffffffffffffffffffffffffff160217905550600460009054906101000a900473ffffffffffffffffffffffffffffffffffffffff16600560006101000a81548173ffffffffffffffffffffffffffffffffffffffff021916908373ffffffffffffffffffffffffffffffffffffffff160217905550600a600655600654600a620000d791906200023c565b600755348015620000e757600080fd5b5062000108620000fc6200011560201b60201c565b6200011d60201b60201c565b60018081905550620003bf565b600033905090565b60008060009054906101000a900473ffffffffffffffffffffffffffffffffffffffff169050816000806101000a81548173ffffffffffffffffffffffffffffffffffffffff021916908373ffffffffffffffffffffffffffffffffffffffff1602179055508173ffffffffffffffffffffffffffffffffffffffff168173ffffffffffffffffffffffffffffffffffffffff167f8be0079c531659141344cd1fd0a4f28419497f9722a3daafe3b4186f6b6457e060405160405180910390a35050565b6000808291508390505b600185111562000233578086048111156200020b576200020a62000383565b5b60018516156200021b5780820291505b80810290506200022b85620003b2565b9450620001eb565b94509492505050565b6000620002498262000379565b9150620002568362000379565b9250620002857fffffffffffffffffffffffffffffffffffffffffffffffffffffffffffffffff84846200028d565b905092915050565b6000826200029f576001905062000372565b81620002af576000905062000372565b8160018114620002c85760028114620002d35762000309565b600191505062000372565b60ff841115620002e857620002e762000383565b5b8360020a91508482111562000302576200030162000383565b5b5062000372565b5060208310610133831016604e8410600b8410161715620003435782820a9050838111156200033d576200033c62000383565b5b62000372565b620003528484846001620001e1565b925090508184048111156200036c576200036b62000383565b5b81810290505b9392505050565b6000819050919050565b7f4e487b7100000000000000000000000000000000000000000000000000000000600052601160045260246000fd5b60008160011c9050919050565b61389a80620003cf6000396000f3fe6080604052600436106101235760003560e01c806375e738b3116100a0578063c9a21ae611610064578063c9a21ae6146103f7578063cc308d7414610413578063ef26bd551461043c578063f1e29e0814610465578063f2fde38b146104a25761012a565b806375e738b3146102ec5780638da5cb5b146103295780639cd488e0146103545780639e46e2c314610391578063b3b7d877146103ba5761012a565b80633e89c723116100e75780633e89c72314610226578063443562af146102515780635475d2fb1461026d5780636f9fb98a146102aa578063715018a6146102d55761012a565b8063192892871461012f5780631ab7406214610158578063287cc96b1461019557806338cfb249146101c057806339dc5445146101fd5761012a565b3661012a57005b600080fd5b34801561013b57600080fd5b50610156600480360381019061015191906128db565b6104cb565b005b34801561016457600080fd5b5061017f600480360381019061017a91906127c4565b61059c565b60405161018c919061315a565b60405180910390f35b3480156101a157600080fd5b506101aa61079c565b6040516101b7919061317c565b60405180910390f35b3480156101cc57600080fd5b506101e760048036038101906101e2919061279b565b61090b565b6040516101f4919061317c565b60405180910390f35b34801561020957600080fd5b50610224600480360381019061021f9190612ae2565b610a45565b005b34801561023257600080fd5b5061023b610dd2565b6040516102489190612fc2565b60405180910390f35b61026b60048036038101906102669190612800565b610f0a565b005b34801561027957600080fd5b50610294600480360381019061028f9190612a18565b61123c565b6040516102a1919061317c565b60405180910390f35b3480156102b657600080fd5b506102bf611316565b6040516102cc919061317c565b60405180910390f35b3480156102e157600080fd5b506102ea611320565b005b3480156102f857600080fd5b50610313600480360381019061030e9190612a6a565b6113a8565b604051610320919061317c565b60405180910390f35b34801561033557600080fd5b5061033e611403565b60405161034b9190612ea1565b60405180910390f35b34801561036057600080fd5b5061037b60048036038101906103769190612a18565b61142c565b604051610388919061317c565b60405180910390f35b34801561039d57600080fd5b506103b860048036038101906103b39190612947565b611449565b005b3480156103c657600080fd5b506103e160048036038101906103dc919061279b565b61158c565b6040516103ee9190612ea1565b60405180910390f35b610411600480360381019061040c919061284f565b6115f5565b005b34801561041f57600080fd5b5061043a60048036038101906104359190612aa6565b611975565b005b34801561044857600080fd5b50610463600480360381019061045e9190612a18565b611c20565b005b34801561047157600080fd5b5061048c60048036038101906104879190612a6a565b611f04565b604051610499919061317c565b60405180910390f35b3480156104ae57600080fd5b506104c960048036038101906104c4919061279b565b61200f565b005b60006104d683612107565b9050600860003373ffffffffffffffffffffffffffffffffffffffff1673ffffffffffffffffffffffffffffffffffffffff168152602001908152602001600020604051806040016040528083815260200184815250908060018154018082558091505060019003906000526020600020906002020160009091909190915060008201518160000155602082015181600101908051906020019061057b92919061260d565b50505060006009600083815260200190815260200160002081905550505050565b6105a4612693565b6000600860008573ffffffffffffffffffffffffffffffffffffffff1673ffffffffffffffffffffffffffffffffffffffff168152602001908152602001600020805480602002602001604051908101604052809291908181526020016000905b828210156106d357838290600052602060002090600202016040518060400160405290816000820154815260200160018201805461064290613443565b80601f016020809104026020016040519081016040528092919081815260200182805461066e90613443565b80156106bb5780601f10610690576101008083540402835291602001916106bb565b820191906000526020600020905b81548152906001019060200180831161069e57829003601f168201915b50505050508152505081526020019060010190610605565b5050505090506106e1612693565b60005b82518110156107905784838281518110610727577f4e487b7100000000000000000000000000000000000000000000000000000000600052603260045260246000fd5b602002602001015160000151141561077d57828181518110610772577f4e487b7100000000000000000000000000000000000000000000000000000000600052603260045260246000fd5b602002602001015191505b8080610788906134a6565b9150506106e4565b50809250505092915050565b6000670de0b6b3a7640000600560009054906101000a900473ffffffffffffffffffffffffffffffffffffffff1673ffffffffffffffffffffffffffffffffffffffff1663182df0f56040518163ffffffff1660e01b815260040160206040518083038186803b15801561080f57600080fd5b505afa158015610823573d6000803e3d6000fd5b505050506040513d601f19601f820116820180604052508101906108479190612a41565b600560009054906101000a900473ffffffffffffffffffffffffffffffffffffffff1673ffffffffffffffffffffffffffffffffffffffff166370a08231306040518263ffffffff1660e01b81526004016108a29190612ea1565b60206040518083038186803b1580156108ba57600080fd5b505afa1580156108ce573d6000803e3d6000fd5b505050506040513d601f19601f820116820180604052508101906108f29190612a41565b6108fc91906132e5565b61090691906132b4565b905090565b6000806109178361158c565b9050670de0b6b3a76400008173ffffffffffffffffffffffffffffffffffffffff1663182df0f56040518163ffffffff1660e01b815260040160206040518083038186803b15801561096857600080fd5b505afa15801561097c573d6000803e3d6000fd5b505050506040513d601f19601f820116820180604052508101906109a09190612a41565b8273ffffffffffffffffffffffffffffffffffffffff166370a08231306040518263ffffffff1660e01b81526004016109d99190612ea1565b60206040518083038186803b1580156109f157600080fd5b505afa158015610a05573d6000803e3d6000fd5b505050506040513d601f19601f82011682018060405250810190610a299190612a41565b610a3391906132e5565b610a3d91906132b4565b915050919050565b60026001541415610a8b576040517f08c379a0000000000000000000000000000000000000000000000000000000008152600401610a82906130fa565b60405180910390fd5b6002600181905550600080600083905060005b600860003373ffffffffffffffffffffffffffffffffffffffff1673ffffffffffffffffffffffffffffffffffffffff16815260200190815260200160002080549050811015610b935785600860003373ffffffffffffffffffffffffffffffffffffffff1673ffffffffffffffffffffffffffffffffffffffff1681526020019081526020016000208281548110610b60577f4e487b7100000000000000000000000000000000000000000000000000000000600052603260045260246000fd5b9060005260206000209060020201600001541415610b8057809350600192505b8080610b8b906134a6565b915050610a9e565b508115610bd5576040517f08c379a0000000000000000000000000000000000000000000000000000000008152600401610bcc9061313a565b60405180910390fd5b610be785610be28661158c565b611f04565b861115610c29576040517f08c379a0000000000000000000000000000000000000000000000000000000008152600401610c209061309a565b60405180910390fd5b60003390506000610c4288610c3d8861158c565b612150565b90508060036000828254610c56919061333f565b9250508190555080600c60008981526020019081526020016000206000610c7c8961158c565b73ffffffffffffffffffffffffffffffffffffffff1673ffffffffffffffffffffffffffffffffffffffff1681526020019081526020016000206000828254610cc5919061333f565b9250508190555087600b600089815260200190815260200160002060008873ffffffffffffffffffffffffffffffffffffffff1673ffffffffffffffffffffffffffffffffffffffff1681526020019081526020016000206000828254610d2c919061333f565b925050819055508273ffffffffffffffffffffffffffffffffffffffff1663a9059cbb838a6040518363ffffffff1660e01b8152600401610d6e929190612ebc565b602060405180830381600087803b158015610d8857600080fd5b505af1158015610d9c573d6000803e3d6000fd5b505050506040513d601f19601f82011682018060405250810190610dc091906128b2565b50505050505060018081905550505050565b6060600860003373ffffffffffffffffffffffffffffffffffffffff1673ffffffffffffffffffffffffffffffffffffffff168152602001908152602001600020805480602002602001604051908101604052809291908181526020016000905b82821015610f01578382906000526020600020906002020160405180604001604052908160008201548152602001600182018054610e7090613443565b80601f0160208091040260200160405190810160405280929190818152602001828054610e9c90613443565b8015610ee95780601f10610ebe57610100808354040283529160200191610ee9565b820191906000526020600020905b815481529060010190602001808311610ecc57829003601f168201915b50505050508152505081526020019060010190610e33565b50505050905090565b80341015610f4d576040517f08c379a0000000000000000000000000000000000000000000000000000000008152600401610f449061311a565b60405180910390fd5b662386f26fc10000341015610f97576040517f08c379a0000000000000000000000000000000000000000000000000000000008152600401610f8e906130ba565b60405180910390fd5b6000600560009054906101000a900473ffffffffffffffffffffffffffffffffffffffff1673ffffffffffffffffffffffffffffffffffffffff166370a08231306040518263ffffffff1660e01b8152600401610ff49190612ea1565b60206040518083038186803b15801561100c57600080fd5b505afa158015611020573d6000803e3d6000fd5b505050506040513d601f19601f820116820180604052508101906110449190612a41565b9050600560009054906101000a900473ffffffffffffffffffffffffffffffffffffffff1673ffffffffffffffffffffffffffffffffffffffff16631249c58b346040518263ffffffff1660e01b81526004016000604051808303818588803b1580156110b057600080fd5b505af11580156110c4573d6000803e3d6000fd5b50505050506000600560009054906101000a900473ffffffffffffffffffffffffffffffffffffffff1673ffffffffffffffffffffffffffffffffffffffff166370a08231306040518263ffffffff1660e01b81526004016111269190612ea1565b60206040518083038186803b15801561113e57600080fd5b505afa158015611152573d6000803e3d6000fd5b505050506040513d601f19601f820116820180604052508101906111769190612a41565b905060008282611186919061333f565b9050346009600087815260200190815260200160002060008282546111ab919061325e565b9250508190555080600a600087815260200190815260200160002060008282546111d5919061325e565b9250508190555080600360008282546111ee919061325e565b925050819055507f3a8bced2b6a24c6a3e626f96aed9eb7f6236aa50d35c9bb99738d6b3c024f3fe338787344260405161122c959493929190612f46565b60405180910390a1505050505050565b6000670de0b6b3a7640000600560009054906101000a900473ffffffffffffffffffffffffffffffffffffffff1673ffffffffffffffffffffffffffffffffffffffff1663182df0f56040518163ffffffff1660e01b815260040160206040518083038186803b1580156112af57600080fd5b505afa1580156112c3573d6000803e3d6000fd5b505050506040513d601f19601f820116820180604052508101906112e79190612a41565b600a60008581526020019081526020016000205461130591906132e5565b61130f91906132b4565b9050919050565b6000600354905090565b611328612319565b73ffffffffffffffffffffffffffffffffffffffff16611346611403565b73ffffffffffffffffffffffffffffffffffffffff161461139c576040517f08c379a00000000000000000000000000000000000000000000000000000000081526004016113939061307a565b60405180910390fd5b6113a66000612321565b565b6000600b600084815260200190815260200160002060008373ffffffffffffffffffffffffffffffffffffffff1673ffffffffffffffffffffffffffffffffffffffff16815260200190815260200160002054905092915050565b60008060009054906101000a900473ffffffffffffffffffffffffffffffffffffffff16905090565b600060096000838152602001908152602001600020549050919050565b611451612319565b73ffffffffffffffffffffffffffffffffffffffff1661146f611403565b73ffffffffffffffffffffffffffffffffffffffff16146114c5576040517f08c379a00000000000000000000000000000000000000000000000000000000081526004016114bc9061307a565b60405180910390fd5b80600260008473ffffffffffffffffffffffffffffffffffffffff1673ffffffffffffffffffffffffffffffffffffffff16815260200190815260200160002060006101000a81548173ffffffffffffffffffffffffffffffffffffffff021916908373ffffffffffffffffffffffffffffffffffffffff1602179055507f72bdb52b9e8053e4a61e7068dc603c8fb5baf1ab7adeefa336d5ee2582159a3186868686868660405161157c96959493929190612fe4565b60405180910390a1505050505050565b6000600260008373ffffffffffffffffffffffffffffffffffffffff1673ffffffffffffffffffffffffffffffffffffffff16815260200190815260200160002060009054906101000a900473ffffffffffffffffffffffffffffffffffffffff169050919050565b60006116008261158c565b9050600082905060008273ffffffffffffffffffffffffffffffffffffffff166370a08231306040518263ffffffff1660e01b81526004016116429190612ea1565b60206040518083038186803b15801561165a57600080fd5b505afa15801561166e573d6000803e3d6000fd5b505050506040513d601f19601f820116820180604052508101906116929190612a41565b90508173ffffffffffffffffffffffffffffffffffffffff1663095ea7b36116b98661158c565b876040518363ffffffff1660e01b81526004016116d7929190612f99565b602060405180830381600087803b1580156116f157600080fd5b505af1158015611705573d6000803e3d6000fd5b505050506040513d601f19601f8201168201806040525081019061172991906128b2565b508273ffffffffffffffffffffffffffffffffffffffff1663a0712d68866040518263ffffffff1660e01b8152600401611763919061317c565b602060405180830381600087803b15801561177d57600080fd5b505af1158015611791573d6000803e3d6000fd5b505050506040513d601f19601f820116820180604052508101906117b59190612a41565b5060008373ffffffffffffffffffffffffffffffffffffffff166370a08231306040518263ffffffff1660e01b81526004016117f19190612ea1565b60206040518083038186803b15801561180957600080fd5b505afa15801561181d573d6000803e3d6000fd5b505050506040513d601f19601f820116820180604052508101906118419190612a41565b905060008282611851919061333f565b905086600b60008a815260200190815260200160002060008873ffffffffffffffffffffffffffffffffffffffff1673ffffffffffffffffffffffffffffffffffffffff16815260200190815260200160002060008282546118b3919061325e565b9250508190555080600c60008a815260200190815260200160002060006118d98961158c565b73ffffffffffffffffffffffffffffffffffffffff1673ffffffffffffffffffffffffffffffffffffffff1681526020019081526020016000206000828254611922919061325e565b925050819055507f8fb4891d307727b93beb160470a693b397cf751c1fdd9717dddbe9717c98ecf8338a8a898b4260405161196296959493929190612ee5565b60405180910390a1505050505050505050565b600260015414156119bb576040517f08c379a00000000000000000000000000000000000000000000000000000000081526004016119b2906130fa565b60405180910390fd5b600260018190555060008060005b600860003373ffffffffffffffffffffffffffffffffffffffff1673ffffffffffffffffffffffffffffffffffffffff16815260200190815260200160002080549050811015611abe5783600860003373ffffffffffffffffffffffffffffffffffffffff1673ffffffffffffffffffffffffffffffffffffffff1681526020019081526020016000208281548110611a8b577f4e487b7100000000000000000000000000000000000000000000000000000000600052603260045260246000fd5b9060005260206000209060020201600001541415611aab57809250600191505b8080611ab6906134a6565b9150506119c9565b508015611b00576040517f08c379a0000000000000000000000000000000000000000000000000000000008152600401611af79061313a565b60405180910390fd5b611b098361123c565b841115611b4b576040517f08c379a0000000000000000000000000000000000000000000000000000000008152600401611b42906130da565b60405180910390fd5b60003390506000611b5b866123e5565b90508060036000828254611b6f919061333f565b9250508190555080600a60008781526020019081526020016000206000828254611b99919061333f565b9250508190555085600960008781526020019081526020016000206000828254611bc3919061333f565b925050819055508173ffffffffffffffffffffffffffffffffffffffff166108fc879081150290604051600060405180830381858888f19350505050158015611c10573d6000803e3d6000fd5b5050505050600180819055505050565b60026001541415611c66576040517f08c379a0000000000000000000000000000000000000000000000000000000008152600401611c5d906130fa565b60405180910390fd5b600260018190555060008060005b600860003373ffffffffffffffffffffffffffffffffffffffff1673ffffffffffffffffffffffffffffffffffffffff16815260200190815260200160002080549050811015611d695783600860003373ffffffffffffffffffffffffffffffffffffffff1673ffffffffffffffffffffffffffffffffffffffff1681526020019081526020016000208281548110611d36577f4e487b7100000000000000000000000000000000000000000000000000000000600052603260045260246000fd5b9060005260206000209060020201600001541415611d5657809250600191505b8080611d61906134a6565b915050611c74565b5080611daa576040517f08c379a0000000000000000000000000000000000000000000000000000000008152600401611da19061313a565b60405180910390fd5b6000339050600560009054906101000a900473ffffffffffffffffffffffffffffffffffffffff1673ffffffffffffffffffffffffffffffffffffffff1663db006a75600a6000878152602001908152602001600020546040518263ffffffff1660e01b8152600401611e1d919061317c565b602060405180830381600087803b158015611e3757600080fd5b505af1158015611e4b573d6000803e3d6000fd5b505050506040513d601f19601f82011682018060405250810190611e6f9190612a41565b506000611e7b8561123c565b90506000600a600087815260200190815260200160002081905550600060096000878152602001908152602001600020819055508173ffffffffffffffffffffffffffffffffffffffff166108fc829081150290604051600060405180830381858888f19350505050158015611ef5573d6000803e3d6000fd5b50505050506001808190555050565b600080611f108361158c565b9050670de0b6b3a76400008173ffffffffffffffffffffffffffffffffffffffff1663182df0f56040518163ffffffff1660e01b815260040160206040518083038186803b158015611f6157600080fd5b505afa158015611f75573d6000803e3d6000fd5b505050506040513d601f19601f82011682018060405250810190611f999190612a41565b600c60008781526020019081526020016000206000611fb78761158c565b73ffffffffffffffffffffffffffffffffffffffff1673ffffffffffffffffffffffffffffffffffffffff16815260200190815260200160002054611ffc91906132e5565b61200691906132b4565b91505092915050565b612017612319565b73ffffffffffffffffffffffffffffffffffffffff16612035611403565b73ffffffffffffffffffffffffffffffffffffffff161461208b576040517f08c379a00000000000000000000000000000000000000000000000000000000081526004016120829061307a565b60405180910390fd5b600073ffffffffffffffffffffffffffffffffffffffff168173ffffffffffffffffffffffffffffffffffffffff1614156120fb576040517f08c379a00000000000000000000000000000000000000000000000000000000081526004016120f29061305a565b60405180910390fd5b61210481612321565b50565b60008033834260405160200161211f93929190612e68565b6040516020818303038152906040528051906020012060001c905060075481612148919061351d565b915050919050565b60008082905060008173ffffffffffffffffffffffffffffffffffffffff166370a08231306040518263ffffffff1660e01b81526004016121919190612ea1565b60206040518083038186803b1580156121a957600080fd5b505afa1580156121bd573d6000803e3d6000fd5b505050506040513d601f19601f820116820180604052508101906121e19190612a41565b90508173ffffffffffffffffffffffffffffffffffffffff1663852a12e3866040518263ffffffff1660e01b815260040161221c919061317c565b602060405180830381600087803b15801561223657600080fd5b505af115801561224a573d6000803e3d6000fd5b505050506040513d601f19601f8201168201806040525081019061226e9190612a41565b5060008273ffffffffffffffffffffffffffffffffffffffff166370a08231306040518263ffffffff1660e01b81526004016122aa9190612ea1565b60206040518083038186803b1580156122c257600080fd5b505afa1580156122d6573d6000803e3d6000fd5b505050506040513d601f19601f820116820180604052508101906122fa9190612a41565b90506000818361230a919061333f565b90508094505050505092915050565b600033905090565b60008060009054906101000a900473ffffffffffffffffffffffffffffffffffffffff169050816000806101000a81548173ffffffffffffffffffffffffffffffffffffffff021916908373ffffffffffffffffffffffffffffffffffffffff1602179055508173ffffffffffffffffffffffffffffffffffffffff168173ffffffffffffffffffffffffffffffffffffffff167f8be0079c531659141344cd1fd0a4f28419497f9722a3daafe3b4186f6b6457e060405160405180910390a35050565b600080600560009054906101000a900473ffffffffffffffffffffffffffffffffffffffff1673ffffffffffffffffffffffffffffffffffffffff166370a08231306040518263ffffffff1660e01b81526004016124439190612ea1565b60206040518083038186803b15801561245b57600080fd5b505afa15801561246f573d6000803e3d6000fd5b505050506040513d601f19601f820116820180604052508101906124939190612a41565b9050600560009054906101000a900473ffffffffffffffffffffffffffffffffffffffff1673ffffffffffffffffffffffffffffffffffffffff1663852a12e3846040518263ffffffff1660e01b81526004016124f0919061317c565b602060405180830381600087803b15801561250a57600080fd5b505af115801561251e573d6000803e3d6000fd5b505050506040513d601f19601f820116820180604052508101906125429190612a41565b506000600560009054906101000a900473ffffffffffffffffffffffffffffffffffffffff1673ffffffffffffffffffffffffffffffffffffffff166370a08231306040518263ffffffff1660e01b81526004016125a09190612ea1565b60206040518083038186803b1580156125b857600080fd5b505afa1580156125cc573d6000803e3d6000fd5b505050506040513d601f19601f820116820180604052508101906125f09190612a41565b905060008183612600919061333f565b9050809350505050919050565b82805461261990613443565b90600052602060002090601f01602090048101928261263b5760008555612682565b82601f1061265457805160ff1916838001178555612682565b82800160010185558215612682579182015b82811115612681578251825591602001919060010190612666565b5b50905061268f91906126ad565b5090565b604051806040016040528060008152602001606081525090565b5b808211156126c65760008160009055506001016126ae565b5090565b60006126dd6126d8846131bc565b613197565b9050828152602081018484840111156126f557600080fd5b612700848285613401565b509392505050565b60008135905061271781613808565b92915050565b60008151905061272c8161381f565b92915050565b600082601f83011261274357600080fd5b81356127538482602086016126ca565b91505092915050565b60008135905061276b81613836565b92915050565b60008151905061278081613836565b92915050565b6000813590506127958161384d565b92915050565b6000602082840312156127ad57600080fd5b60006127bb84828501612708565b91505092915050565b600080604083850312156127d757600080fd5b60006127e585828601612708565b92505060206127f68582860161275c565b9150509250929050565b60008060006060848603121561281557600080fd5b600061282386828701612708565b93505060206128348682870161275c565b92505060406128458682870161275c565b9150509250925092565b6000806000806080858703121561286557600080fd5b600061287387828801612708565b94505060206128848782880161275c565b93505060406128958782880161275c565b92505060606128a687828801612708565b91505092959194509250565b6000602082840312156128c457600080fd5b60006128d28482850161271d565b91505092915050565b600080604083850312156128ee57600080fd5b600083013567ffffffffffffffff81111561290857600080fd5b61291485828601612732565b925050602083013567ffffffffffffffff81111561293157600080fd5b61293d85828601612732565b9150509250929050565b60008060008060008060c0878903121561296057600080fd5b600087013567ffffffffffffffff81111561297a57600080fd5b61298689828a01612732565b965050602061299789828a01612786565b955050604087013567ffffffffffffffff8111156129b457600080fd5b6129c089828a01612732565b945050606087013567ffffffffffffffff8111156129dd57600080fd5b6129e989828a01612732565b93505060806129fa89828a01612708565b92505060a0612a0b89828a01612708565b9150509295509295509295565b600060208284031215612a2a57600080fd5b6000612a388482850161275c565b91505092915050565b600060208284031215612a5357600080fd5b6000612a6184828501612771565b91505092915050565b60008060408385031215612a7d57600080fd5b6000612a8b8582860161275c565b9250506020612a9c85828601612708565b9150509250929050565b60008060408385031215612ab957600080fd5b6000612ac78582860161275c565b9250506020612ad88582860161275c565b9150509250929050565b600080600060608486031215612af757600080fd5b6000612b058682870161275c565b9350506020612b168682870161275c565b9250506040612b2786828701612708565b9150509250925092565b6000612b3d8383612daa565b905092915050565b612b4e816133cb565b82525050565b612b5d81613373565b82525050565b612b74612b6f82613373565b6134ef565b82525050565b6000612b85826131fd565b612b8f8185613220565b935083602082028501612ba1856131ed565b8060005b85811015612bdd5784840389528151612bbe8582612b31565b9450612bc983613213565b925060208a01995050600181019050612ba5565b50829750879550505050505092915050565b6000612bfa82613208565b612c048185613231565b9350612c14818560208601613410565b612c1d8161360a565b840191505092915050565b6000612c3382613208565b612c3d8185613242565b9350612c4d818560208601613410565b612c568161360a565b840191505092915050565b6000612c6c82613208565b612c768185613253565b9350612c86818560208601613410565b80840191505092915050565b6000612c9f602683613242565b9150612caa82613628565b604082019050919050565b6000612cc2602083613242565b9150612ccd82613677565b602082019050919050565b6000612ce5603183613242565b9150612cf0826136a0565b604082019050919050565b6000612d08602283613242565b9150612d13826136ef565b604082019050919050565b6000612d2b602f83613242565b9150612d368261373e565b604082019050919050565b6000612d4e601f83613242565b9150612d598261378d565b602082019050919050565b6000612d71601483613242565b9150612d7c826137b6565b602082019050919050565b6000612d94601283613242565b9150612d9f826137df565b602082019050919050565b6000604083016000830151612dc26000860182612e24565b5060208301518482036020860152612dda8282612bef565b9150508091505092915050565b6000604083016000830151612dff6000860182612e24565b5060208301518482036020860152612e178282612bef565b9150508091505092915050565b612e2d816133b1565b82525050565b612e3c816133b1565b82525050565b612e53612e4e826133b1565b613513565b82525050565b612e62816133bb565b82525050565b6000612e748286612b63565b601482019150612e848285612c61565b9150612e908284612e42565b602082019150819050949350505050565b6000602082019050612eb66000830184612b54565b92915050565b6000604082019050612ed16000830185612b45565b612ede6020830184612e33565b9392505050565b600060c082019050612efa6000830189612b54565b612f076020830188612b54565b612f146040830187612e33565b612f216060830186612b54565b612f2e6080830185612e33565b612f3b60a0830184612e33565b979650505050505050565b600060a082019050612f5b6000830188612b54565b612f686020830187612b54565b612f756040830186612e33565b612f826060830185612e33565b612f8f6080830184612e33565b9695505050505050565b6000604082019050612fae6000830185612b54565b612fbb6020830184612e33565b9392505050565b60006020820190508181036000830152612fdc8184612b7a565b905092915050565b600060c0820190508181036000830152612ffe8189612c28565b905061300d6020830188612e59565b818103604083015261301f8187612c28565b905081810360608301526130338186612c28565b90506130426080830185612b54565b61304f60a0830184612b54565b979650505050505050565b6000602082019050818103600083015261307381612c92565b9050919050565b6000602082019050818103600083015261309381612cb5565b9050919050565b600060208201905081810360008301526130b381612cd8565b9050919050565b600060208201905081810360008301526130d381612cfb565b9050919050565b600060208201905081810360008301526130f381612d1e565b9050919050565b6000602082019050818103600083015261311381612d41565b9050919050565b6000602082019050818103600083015261313381612d64565b9050919050565b6000602082019050818103600083015261315381612d87565b9050919050565b600060208201905081810360008301526131748184612de7565b905092915050565b60006020820190506131916000830184612e33565b92915050565b60006131a16131b2565b90506131ad8282613475565b919050565b6000604051905090565b600067ffffffffffffffff8211156131d7576131d66135db565b5b6131e08261360a565b9050602081019050919050565b6000819050602082019050919050565b600081519050919050565b600081519050919050565b6000602082019050919050565b600082825260208201905092915050565b600082825260208201905092915050565b600082825260208201905092915050565b600081905092915050565b6000613269826133b1565b9150613274836133b1565b9250827fffffffffffffffffffffffffffffffffffffffffffffffffffffffffffffffff038211156132a9576132a861354e565b5b828201905092915050565b60006132bf826133b1565b91506132ca836133b1565b9250826132da576132d961357d565b5b828204905092915050565b60006132f0826133b1565b91506132fb836133b1565b9250817fffffffffffffffffffffffffffffffffffffffffffffffffffffffffffffffff04831182151516156133345761333361354e565b5b828202905092915050565b600061334a826133b1565b9150613355836133b1565b9250828210156133685761336761354e565b5b828203905092915050565b600061337e82613391565b9050919050565b60008115159050919050565b600073ffffffffffffffffffffffffffffffffffffffff82169050919050565b6000819050919050565b600063ffffffff82169050919050565b60006133d6826133dd565b9050919050565b60006133e8826133ef565b9050919050565b60006133fa82613391565b9050919050565b82818337600083830152505050565b60005b8381101561342e578082015181840152602081019050613413565b8381111561343d576000848401525b50505050565b6000600282049050600182168061345b57607f821691505b6020821081141561346f5761346e6135ac565b5b50919050565b61347e8261360a565b810181811067ffffffffffffffff8211171561349d5761349c6135db565b5b80604052505050565b60006134b1826133b1565b91507fffffffffffffffffffffffffffffffffffffffffffffffffffffffffffffffff8214156134e4576134e361354e565b5b600182019050919050565b60006134fa82613501565b9050919050565b600061350c8261361b565b9050919050565b6000819050919050565b6000613528826133b1565b9150613533836133b1565b9250826135435761354261357d565b5b828206905092915050565b7f4e487b7100000000000000000000000000000000000000000000000000000000600052601160045260246000fd5b7f4e487b7100000000000000000000000000000000000000000000000000000000600052601260045260246000fd5b7f4e487b7100000000000000000000000000000000000000000000000000000000600052602260045260246000fd5b7f4e487b7100000000000000000000000000000000000000000000000000000000600052604160045260246000fd5b6000601f19601f8301169050919050565b60008160601b9050919050565b7f4f776e61626c653a206e6577206f776e657220697320746865207a65726f206160008201527f6464726573730000000000000000000000000000000000000000000000000000602082015250565b7f4f776e61626c653a2063616c6c6572206973206e6f7420746865206f776e6572600082015250565b7f596f75722062616c616e636520697320736d616c6c6572207468616e2074686560008201527f2072657175657374656420616d6f756e74000000000000000000000000000000602082015250565b7f4d696e696d756d206465706f73697420616d6f756e7420697320302e3031204560008201527f7468000000000000000000000000000000000000000000000000000000000000602082015250565b7f596f75722062616c616e6365206973206c6f776572207468616e20746865207260008201527f657175657374656420616d6f756e740000000000000000000000000000000000602082015250565b7f5265656e7472616e637947756172643a207265656e7472616e742063616c6c00600082015250565b7f416d6f756e742073656e74206973206c6573732e000000000000000000000000600082015250565b7f4163636f756e74206e6f7420666f756e642e0000000000000000000000000000600082015250565b61381181613373565b811461381c57600080fd5b50565b61382881613385565b811461383357600080fd5b50565b61383f816133b1565b811461384a57600080fd5b50565b613856816133bb565b811461386157600080fd5b5056fea264697066735822122064cb1447e18a33c29648ab33b845ad493e746b0e1e6c6f69cc0bfaabac6cac7a64736f6c63430008040033",
  "linkReferences": {},
  "deployedLinkReferences": {}
}