{
  "_format": "hh-sol-artifact-1",
  "contractName": "Neobank",
  "sourceName": "contracts/Newbank.sol",
  "abi": [
    {
      "anonymous": false,
      "inputs": [
        {
          "indexed": false,
          "internalType": "address",
          "name": "_owner",
          "type": "address"
        },
        {
          "indexed": false,
          "internalType": "uint256",
          "name": "_accountNumber",
          "type": "uint256"
        },
        {
          "indexed": false,
          "internalType": "string",
          "name": "_metadata",
          "type": "string"
        }
      ],
      "name": "AccountCreated",
      "type": "event"
    },
    {
      "anonymous": false,
      "inputs": [
        {
          "indexed": false,
          "internalType": "string",
          "name": "name",
          "type": "string"
        },
        {
          "indexed": false,
          "internalType": "uint32",
          "name": "decimal",
          "type": "uint32"
        },
        {
          "indexed": false,
          "internalType": "string",
          "name": "symbol",
          "type": "string"
        },
        {
          "indexed": false,
          "internalType": "string",
          "name": "icon",
          "type": "string"
        },
        {
          "indexed": false,
          "internalType": "address",
          "name": "token",
          "type": "address"
        },
        {
          "indexed": false,
          "internalType": "address",
          "name": "cToken",
          "type": "address"
        }
      ],
      "name": "CompoundTokenAdded",
      "type": "event"
    },
    {
      "anonymous": false,
      "inputs": [
        {
          "indexed": false,
          "internalType": "address",
          "name": "_depositor",
          "type": "address"
        },
        {
          "indexed": false,
          "internalType": "address",
          "name": "_owner",
          "type": "address"
        },
        {
          "indexed": false,
          "internalType": "uint256",
          "name": "_accountNumber",
          "type": "uint256"
        },
        {
          "indexed": false,
          "internalType": "address",
          "name": "currency",
          "type": "address"
        },
        {
          "indexed": false,
          "internalType": "uint256",
          "name": "_amount",
          "type": "uint256"
        },
        {
          "indexed": false,
          "internalType": "uint256",
          "name": "_timestamp",
          "type": "uint256"
        }
      ],
      "name": "Erc20DepositMade",
      "type": "event"
    },
    {
      "anonymous": false,
      "inputs": [
        {
          "indexed": false,
          "internalType": "address",
          "name": "_depositor",
          "type": "address"
        },
        {
          "indexed": false,
          "internalType": "address",
          "name": "_owner",
          "type": "address"
        },
        {
          "indexed": false,
          "internalType": "uint256",
          "name": "_accountNumber",
          "type": "uint256"
        },
        {
          "indexed": false,
          "internalType": "uint256",
          "name": "_amount",
          "type": "uint256"
        },
        {
          "indexed": false,
          "internalType": "uint256",
          "name": "_timestamp",
          "type": "uint256"
        }
      ],
      "name": "EthDepositMade",
      "type": "event"
    },
    {
      "anonymous": false,
      "inputs": [
        {
          "indexed": true,
          "internalType": "address",
          "name": "previousOwner",
          "type": "address"
        },
        {
          "indexed": true,
          "internalType": "address",
          "name": "newOwner",
          "type": "address"
        }
      ],
      "name": "OwnershipTransferred",
      "type": "event"
    },
    {
      "inputs": [
        {
          "internalType": "string",
          "name": "name",
          "type": "string"
        },
        {
          "internalType": "uint32",
          "name": "decimal",
          "type": "uint32"
        },
        {
          "internalType": "string",
          "name": "symbol",
          "type": "string"
        },
        {
          "internalType": "string",
          "name": "icon",
          "type": "string"
        },
        {
          "internalType": "address",
          "name": "token",
          "type": "address"
        },
        {
          "internalType": "address",
          "name": "cToken",
          "type": "address"
        }
      ],
      "name": "addRelaventCtoken",
      "outputs": [],
      "stateMutability": "nonpayable",
      "type": "function"
    },
    {
      "inputs": [
        {
          "internalType": "string",
          "name": "_name",
          "type": "string"
        },
        {
          "internalType": "string",
          "name": "_metadata",
          "type": "string"
        }
      ],
      "name": "createAccount",
      "outputs": [],
      "stateMutability": "nonpayable",
      "type": "function"
    },
    {
      "inputs": [
        {
          "internalType": "address",
          "name": "_owner",
          "type": "address"
        },
        {
          "internalType": "uint256",
          "name": "_accountNumber",
          "type": "uint256"
        },
        {
          "internalType": "uint256",
          "name": "_amount",
          "type": "uint256"
        },
        {
          "internalType": "address",
          "name": "currency",
          "type": "address"
        }
      ],
      "name": "depositERC20IntoAccount",
      "outputs": [],
      "stateMutability": "payable",
      "type": "function"
    },
    {
      "inputs": [
        {
          "internalType": "address",
          "name": "_owner",
          "type": "address"
        },
        {
          "internalType": "uint256",
          "name": "_accountNumber",
          "type": "uint256"
        },
        {
          "internalType": "uint256",
          "name": "_amount",
          "type": "uint256"
        }
      ],
      "name": "depositIntoAccount",
      "outputs": [],
      "stateMutability": "payable",
      "type": "function"
    },
    {
      "inputs": [
        {
          "internalType": "address",
          "name": "_owner",
          "type": "address"
        },
        {
          "internalType": "uint256",
          "name": "_accountNumber",
          "type": "uint256"
        }
      ],
      "name": "getAccountDetails",
      "outputs": [
        {
          "components": [
            {
              "internalType": "uint256",
              "name": "accountNumber",
              "type": "uint256"
            },
            {
              "internalType": "string",
              "name": "metadata",
              "type": "string"
            }
          ],
          "internalType": "struct Neobank.Account",
          "name": "",
          "type": "tuple"
        }
      ],
      "stateMutability": "view",
      "type": "function"
    },
    {
      "inputs": [],
      "name": "getContractBalance",
      "outputs": [
        {
          "internalType": "uint256",
          "name": "",
          "type": "uint256"
        }
      ],
      "stateMutability": "view",
      "type": "function"
    },
    {
      "inputs": [
        {
          "internalType": "uint256",
          "name": "_accountNumber",
          "type": "uint256"
        },
        {
          "internalType": "address",
          "name": "currency",
          "type": "address"
        }
      ],
      "name": "getERC20Balance",
      "outputs": [
        {
          "internalType": "uint256",
          "name": "",
          "type": "uint256"
        }
      ],
      "stateMutability": "view",
      "type": "function"
    },
    {
      "inputs": [
        {
          "internalType": "uint256",
          "name": "_accountNumber",
          "type": "uint256"
        },
        {
          "internalType": "address",
          "name": "erc20Token",
          "type": "address"
        }
      ],
      "name": "getERC20BalanceWithInterest",
      "outputs": [
        {
          "internalType": "uint256",
          "name": "",
          "type": "uint256"
        }
      ],
      "stateMutability": "view",
      "type": "function"
    },
    {
      "inputs": [
        {
          "internalType": "uint256",
          "name": "_accountNumber",
          "type": "uint256"
        }
      ],
      "name": "getEthBalance",
      "outputs": [
        {
          "internalType": "uint256",
          "name": "",
          "type": "uint256"
        }
      ],
      "stateMutability": "view",
      "type": "function"
    },
    {
      "inputs": [
        {
          "internalType": "uint256",
          "name": "_accountNumber",
          "type": "uint256"
        }
      ],
      "name": "getEthBalanceWithInterest",
      "outputs": [
        {
          "internalType": "uint256",
          "name": "",
          "type": "uint256"
        }
      ],
      "stateMutability": "view",
      "type": "function"
    },
    {
      "inputs": [
        {
          "internalType": "address",
          "name": "token",
          "type": "address"
        }
      ],
      "name": "getRelaventCToken",
      "outputs": [
        {
          "internalType": "address",
          "name": "",
          "type": "address"
        }
      ],
      "stateMutability": "view",
      "type": "function"
    },
    {
      "inputs": [
        {
          "internalType": "address",
          "name": "_erc20Token",
          "type": "address"
        }
      ],
      "name": "getTotalErc20Balance",
      "outputs": [
        {
          "internalType": "uint256",
          "name": "",
          "type": "uint256"
        }
      ],
      "stateMutability": "view",
      "type": "function"
    },
    {
      "inputs": [],
      "name": "getTotalEthBalance",
      "outputs": [
        {
          "internalType": "uint256",
          "name": "",
          "type": "uint256"
        }
      ],
      "stateMutability": "view",
      "type": "function"
    },
    {
      "inputs": [],
      "name": "myAccounts",
      "outputs": [
        {
          "components": [
            {
              "internalType": "uint256",
              "name": "accountNumber",
              "type": "uint256"
            },
            {
              "internalType": "string",
              "name": "metadata",
              "type": "string"
            }
          ],
          "internalType": "struct Neobank.Account[]",
          "name": "",
          "type": "tuple[]"
        }
      ],
      "stateMutability": "view",
      "type": "function"
    },
    {
      "inputs": [],
      "name": "owner",
      "outputs": [
        {
          "internalType": "address",
          "name": "",
          "type": "address"
        }
      ],
      "stateMutability": "view",
      "type": "function"
    },
    {
      "inputs": [],
      "name": "renounceOwnership",
      "outputs": [],
      "stateMutability": "nonpayable",
      "type": "function"
    },
    {
      "inputs": [
        {
          "internalType": "address",
          "name": "newOwner",
          "type": "address"
        }
      ],
      "name": "transferOwnership",
      "outputs": [],
      "stateMutability": "nonpayable",
      "type": "function"
    },
    {
      "inputs": [
        {
          "internalType": "uint256",
          "name": "amountRequested",
          "type": "uint256"
        },
        {
          "internalType": "uint256",
          "name": "_accountNumber",
          "type": "uint256"
        },
        {
          "internalType": "address",
          "name": "_erc20Token",
          "type": "address"
        }
      ],
      "name": "withdrawAmountErc20",
      "outputs": [],
      "stateMutability": "payable",
      "type": "function"
    },
    {
      "inputs": [
        {
          "internalType": "uint256",
          "name": "amountRequested",
          "type": "uint256"
        },
        {
          "internalType": "uint256",
          "name": "_accountNumber",
          "type": "uint256"
        }
      ],
      "name": "withdrawAmountEth",
      "outputs": [],
      "stateMutability": "payable",
      "type": "function"
    },
    {
      "inputs": [
        {
          "internalType": "uint256",
          "name": "_accountNumber",
          "type": "uint256"
        }
      ],
      "name": "withdrawMaxEth",
      "outputs": [],
      "stateMutability": "payable",
      "type": "function"
    },
    {
      "stateMutability": "payable",
      "type": "receive"
    }
  ],
  "bytecode": "0x6080604052600060035573859e9d8a4edadfedb5a2ff311243af80f85a91b8600460006101000a81548173ffffffffffffffffffffffffffffffffffffffff021916908373ffffffffffffffffffffffffffffffffffffffff160217905550600460009054906101000a900473ffffffffffffffffffffffffffffffffffffffff16600560006101000a81548173ffffffffffffffffffffffffffffffffffffffff021916908373ffffffffffffffffffffffffffffffffffffffff160217905550600a600655600654600a620000d791906200023c565b600755348015620000e757600080fd5b5062000108620000fc6200011560201b60201c565b6200011d60201b60201c565b60018081905550620003bf565b600033905090565b60008060009054906101000a900473ffffffffffffffffffffffffffffffffffffffff169050816000806101000a81548173ffffffffffffffffffffffffffffffffffffffff021916908373ffffffffffffffffffffffffffffffffffffffff1602179055508173ffffffffffffffffffffffffffffffffffffffff168173ffffffffffffffffffffffffffffffffffffffff167f8be0079c531659141344cd1fd0a4f28419497f9722a3daafe3b4186f6b6457e060405160405180910390a35050565b6000808291508390505b600185111562000233578086048111156200020b576200020a62000383565b5b60018516156200021b5780820291505b80810290506200022b85620003b2565b9450620001eb565b94509492505050565b6000620002498262000379565b9150620002568362000379565b9250620002857fffffffffffffffffffffffffffffffffffffffffffffffffffffffffffffffff84846200028d565b905092915050565b6000826200029f576001905062000372565b81620002af576000905062000372565b8160018114620002c85760028114620002d35762000309565b600191505062000372565b60ff841115620002e857620002e762000383565b5b8360020a91508482111562000302576200030162000383565b5b5062000372565b5060208310610133831016604e8410600b8410161715620003435782820a9050838111156200033d576200033c62000383565b5b62000372565b620003528484846001620001e1565b925090508184048111156200036c576200036b62000383565b5b81810290505b9392505050565b6000819050919050565b7f4e487b7100000000000000000000000000000000000000000000000000000000600052601160045260246000fd5b60008160011c9050919050565b613a4380620003cf6000396000f3fe6080604052600436106101235760003560e01c806375e738b3116100a0578063c9a21ae611610064578063c9a21ae6146103ea578063cc308d7414610406578063ef26bd5514610422578063f1e29e081461043e578063f2fde38b1461047b5761012a565b806375e738b3146102df5780638da5cb5b1461031c5780639cd488e0146103475780639e46e2c314610384578063b3b7d877146103ad5761012a565b80633e89c723116100e75780633e89c72314610219578063443562af146102445780635475d2fb146102605780636f9fb98a1461029d578063715018a6146102c85761012a565b8063192892871461012f5780631ab7406214610158578063287cc96b1461019557806338cfb249146101c057806339dc5445146101fd5761012a565b3661012a57005b600080fd5b34801561013b57600080fd5b5061015660048036038101906101519190612a24565b6104a4565b005b34801561016457600080fd5b5061017f600480360381019061017a919061290d565b610575565b60405161018c9190613303565b60405180910390f35b3480156101a157600080fd5b506101aa610775565b6040516101b79190613325565b60405180910390f35b3480156101cc57600080fd5b506101e760048036038101906101e291906128e4565b6108e4565b6040516101f49190613325565b60405180910390f35b61021760048036038101906102129190612c2b565b610a1e565b005b34801561022557600080fd5b5061022e610dab565b60405161023b919061316b565b60405180910390f35b61025e60048036038101906102599190612949565b610ee3565b005b34801561026c57600080fd5b5061028760048036038101906102829190612b61565b611215565b6040516102949190613325565b60405180910390f35b3480156102a957600080fd5b506102b26112ef565b6040516102bf9190613325565b60405180910390f35b3480156102d457600080fd5b506102dd6112f9565b005b3480156102eb57600080fd5b5061030660048036038101906103019190612bb3565b611381565b6040516103139190613325565b60405180910390f35b34801561032857600080fd5b506103316113dc565b60405161033e9190612fea565b60405180910390f35b34801561035357600080fd5b5061036e60048036038101906103699190612b61565b611405565b60405161037b9190613325565b60405180910390f35b34801561039057600080fd5b506103ab60048036038101906103a69190612a90565b611422565b005b3480156103b957600080fd5b506103d460048036038101906103cf91906128e4565b611565565b6040516103e19190612fea565b60405180910390f35b61040460048036038101906103ff9190612998565b6115ce565b005b610420600480360381019061041b9190612bef565b61194d565b005b61043c60048036038101906104379190612b61565b611bf8565b005b34801561044a57600080fd5b5061046560048036038101906104609190612bb3565b611e88565b6040516104729190613325565b60405180910390f35b34801561048757600080fd5b506104a2600480360381019061049d91906128e4565b611f93565b005b60006104af8361208b565b9050600860003373ffffffffffffffffffffffffffffffffffffffff1673ffffffffffffffffffffffffffffffffffffffff1681526020019081526020016000206040518060400160405280838152602001848152509080600181540180825580915050600190039060005260206000209060020201600090919091909150600082015181600001556020820151816001019080519060200190610554929190612756565b50505060006009600083815260200190815260200160002081905550505050565b61057d6127dc565b6000600860008573ffffffffffffffffffffffffffffffffffffffff1673ffffffffffffffffffffffffffffffffffffffff168152602001908152602001600020805480602002602001604051908101604052809291908181526020016000905b828210156106ac57838290600052602060002090600202016040518060400160405290816000820154815260200160018201805461061b906135ec565b80601f0160208091040260200160405190810160405280929190818152602001828054610647906135ec565b80156106945780601f1061066957610100808354040283529160200191610694565b820191906000526020600020905b81548152906001019060200180831161067757829003601f168201915b505050505081525050815260200190600101906105de565b5050505090506106ba6127dc565b60005b82518110156107695784838281518110610700577f4e487b7100000000000000000000000000000000000000000000000000000000600052603260045260246000fd5b60200260200101516000015114156107565782818151811061074b577f4e487b7100000000000000000000000000000000000000000000000000000000600052603260045260246000fd5b602002602001015191505b80806107619061364f565b9150506106bd565b50809250505092915050565b6000670de0b6b3a7640000600560009054906101000a900473ffffffffffffffffffffffffffffffffffffffff1673ffffffffffffffffffffffffffffffffffffffff1663182df0f56040518163ffffffff1660e01b815260040160206040518083038186803b1580156107e857600080fd5b505afa1580156107fc573d6000803e3d6000fd5b505050506040513d601f19601f820116820180604052508101906108209190612b8a565b600560009054906101000a900473ffffffffffffffffffffffffffffffffffffffff1673ffffffffffffffffffffffffffffffffffffffff166370a08231306040518263ffffffff1660e01b815260040161087b9190612fea565b60206040518083038186803b15801561089357600080fd5b505afa1580156108a7573d6000803e3d6000fd5b505050506040513d601f19601f820116820180604052508101906108cb9190612b8a565b6108d5919061348e565b6108df919061345d565b905090565b6000806108f083611565565b9050670de0b6b3a76400008173ffffffffffffffffffffffffffffffffffffffff1663182df0f56040518163ffffffff1660e01b815260040160206040518083038186803b15801561094157600080fd5b505afa158015610955573d6000803e3d6000fd5b505050506040513d601f19601f820116820180604052508101906109799190612b8a565b8273ffffffffffffffffffffffffffffffffffffffff166370a08231306040518263ffffffff1660e01b81526004016109b29190612fea565b60206040518083038186803b1580156109ca57600080fd5b505afa1580156109de573d6000803e3d6000fd5b505050506040513d601f19601f82011682018060405250810190610a029190612b8a565b610a0c919061348e565b610a16919061345d565b915050919050565b60026001541415610a64576040517f08c379a0000000000000000000000000000000000000000000000000000000008152600401610a5b906132a3565b60405180910390fd5b6002600181905550600080600083905060005b600860003373ffffffffffffffffffffffffffffffffffffffff1673ffffffffffffffffffffffffffffffffffffffff16815260200190815260200160002080549050811015610b6c5785600860003373ffffffffffffffffffffffffffffffffffffffff1673ffffffffffffffffffffffffffffffffffffffff1681526020019081526020016000208281548110610b39577f4e487b7100000000000000000000000000000000000000000000000000000000600052603260045260246000fd5b9060005260206000209060020201600001541415610b5957809350600192505b8080610b649061364f565b915050610a77565b508115610bae576040517f08c379a0000000000000000000000000000000000000000000000000000000008152600401610ba5906132e3565b60405180910390fd5b610bc085610bbb86611565565b611e88565b861115610c02576040517f08c379a0000000000000000000000000000000000000000000000000000000008152600401610bf990613243565b60405180910390fd5b60003390506000610c1b88610c1688611565565b6120d4565b90508060036000828254610c2f91906134e8565b9250508190555080600c60008981526020019081526020016000206000610c5589611565565b73ffffffffffffffffffffffffffffffffffffffff1673ffffffffffffffffffffffffffffffffffffffff1681526020019081526020016000206000828254610c9e91906134e8565b9250508190555087600b600089815260200190815260200160002060008873ffffffffffffffffffffffffffffffffffffffff1673ffffffffffffffffffffffffffffffffffffffff1681526020019081526020016000206000828254610d0591906134e8565b925050819055508273ffffffffffffffffffffffffffffffffffffffff1663a9059cbb838a6040518363ffffffff1660e01b8152600401610d47929190613005565b602060405180830381600087803b158015610d6157600080fd5b505af1158015610d75573d6000803e3d6000fd5b505050506040513d601f19601f82011682018060405250810190610d9991906129fb565b50505050505060018081905550505050565b6060600860003373ffffffffffffffffffffffffffffffffffffffff1673ffffffffffffffffffffffffffffffffffffffff168152602001908152602001600020805480602002602001604051908101604052809291908181526020016000905b82821015610eda578382906000526020600020906002020160405180604001604052908160008201548152602001600182018054610e49906135ec565b80601f0160208091040260200160405190810160405280929190818152602001828054610e75906135ec565b8015610ec25780601f10610e9757610100808354040283529160200191610ec2565b820191906000526020600020905b815481529060010190602001808311610ea557829003601f168201915b50505050508152505081526020019060010190610e0c565b50505050905090565b80341015610f26576040517f08c379a0000000000000000000000000000000000000000000000000000000008152600401610f1d906132c3565b60405180910390fd5b662386f26fc10000341015610f70576040517f08c379a0000000000000000000000000000000000000000000000000000000008152600401610f6790613263565b60405180910390fd5b6000600560009054906101000a900473ffffffffffffffffffffffffffffffffffffffff1673ffffffffffffffffffffffffffffffffffffffff166370a08231306040518263ffffffff1660e01b8152600401610fcd9190612fea565b60206040518083038186803b158015610fe557600080fd5b505afa158015610ff9573d6000803e3d6000fd5b505050506040513d601f19601f8201168201806040525081019061101d9190612b8a565b9050600560009054906101000a900473ffffffffffffffffffffffffffffffffffffffff1673ffffffffffffffffffffffffffffffffffffffff16631249c58b346040518263ffffffff1660e01b81526004016000604051808303818588803b15801561108957600080fd5b505af115801561109d573d6000803e3d6000fd5b50505050506000600560009054906101000a900473ffffffffffffffffffffffffffffffffffffffff1673ffffffffffffffffffffffffffffffffffffffff166370a08231306040518263ffffffff1660e01b81526004016110ff9190612fea565b60206040518083038186803b15801561111757600080fd5b505afa15801561112b573d6000803e3d6000fd5b505050506040513d601f19601f8201168201806040525081019061114f9190612b8a565b90506000828261115f91906134e8565b9050346009600087815260200190815260200160002060008282546111849190613407565b9250508190555080600a600087815260200190815260200160002060008282546111ae9190613407565b9250508190555080600360008282546111c79190613407565b925050819055507f3a8bced2b6a24c6a3e626f96aed9eb7f6236aa50d35c9bb99738d6b3c024f3fe33878734426040516112059594939291906130ef565b60405180910390a1505050505050565b6000670de0b6b3a7640000600560009054906101000a900473ffffffffffffffffffffffffffffffffffffffff1673ffffffffffffffffffffffffffffffffffffffff1663182df0f56040518163ffffffff1660e01b815260040160206040518083038186803b15801561128857600080fd5b505afa15801561129c573d6000803e3d6000fd5b505050506040513d601f19601f820116820180604052508101906112c09190612b8a565b600a6000858152602001908152602001600020546112de919061348e565b6112e8919061345d565b9050919050565b6000600354905090565b61130161229d565b73ffffffffffffffffffffffffffffffffffffffff1661131f6113dc565b73ffffffffffffffffffffffffffffffffffffffff1614611375576040517f08c379a000000000000000000000000000000000000000000000000000000000815260040161136c90613223565b60405180910390fd5b61137f60006122a5565b565b6000600b600084815260200190815260200160002060008373ffffffffffffffffffffffffffffffffffffffff1673ffffffffffffffffffffffffffffffffffffffff16815260200190815260200160002054905092915050565b60008060009054906101000a900473ffffffffffffffffffffffffffffffffffffffff16905090565b600060096000838152602001908152602001600020549050919050565b61142a61229d565b73ffffffffffffffffffffffffffffffffffffffff166114486113dc565b73ffffffffffffffffffffffffffffffffffffffff161461149e576040517f08c379a000000000000000000000000000000000000000000000000000000000815260040161149590613223565b60405180910390fd5b80600260008473ffffffffffffffffffffffffffffffffffffffff1673ffffffffffffffffffffffffffffffffffffffff16815260200190815260200160002060006101000a81548173ffffffffffffffffffffffffffffffffffffffff021916908373ffffffffffffffffffffffffffffffffffffffff1602179055507f72bdb52b9e8053e4a61e7068dc603c8fb5baf1ab7adeefa336d5ee2582159a318686868686866040516115559695949392919061318d565b60405180910390a1505050505050565b6000600260008373ffffffffffffffffffffffffffffffffffffffff1673ffffffffffffffffffffffffffffffffffffffff16815260200190815260200160002060009054906101000a900473ffffffffffffffffffffffffffffffffffffffff169050919050565b60006115d982611565565b90508234101561161e576040517f08c379a0000000000000000000000000000000000000000000000000000000008152600401611615906132c3565b60405180910390fd5b662386f26fc10000341015611668576040517f08c379a000000000000000000000000000000000000000000000000000000000815260040161165f90613263565b60405180910390fd5b60008173ffffffffffffffffffffffffffffffffffffffff166370a08231306040518263ffffffff1660e01b81526004016116a39190612fea565b60206040518083038186803b1580156116bb57600080fd5b505afa1580156116cf573d6000803e3d6000fd5b505050506040513d601f19601f820116820180604052508101906116f39190612b8a565b9050600061170084612369565b90508273ffffffffffffffffffffffffffffffffffffffff1663a0712d68826040518263ffffffff1660e01b815260040161173b9190613325565b602060405180830381600087803b15801561175557600080fd5b505af1158015611769573d6000803e3d6000fd5b505050506040513d601f19601f8201168201806040525081019061178d9190612b8a565b5060008373ffffffffffffffffffffffffffffffffffffffff166370a08231306040518263ffffffff1660e01b81526004016117c99190612fea565b60206040518083038186803b1580156117e157600080fd5b505afa1580156117f5573d6000803e3d6000fd5b505050506040513d601f19601f820116820180604052508101906118199190612b8a565b90506000838261182991906134e8565b905082600b60008a815260200190815260200160002060008873ffffffffffffffffffffffffffffffffffffffff1673ffffffffffffffffffffffffffffffffffffffff168152602001908152602001600020600082825461188b9190613407565b9250508190555080600c60008a815260200190815260200160002060006118b189611565565b73ffffffffffffffffffffffffffffffffffffffff1673ffffffffffffffffffffffffffffffffffffffff16815260200190815260200160002060008282546118fa9190613407565b925050819055507f8fb4891d307727b93beb160470a693b397cf751c1fdd9717dddbe9717c98ecf8338a8a89874260405161193a9695949392919061308e565b60405180910390a1505050505050505050565b60026001541415611993576040517f08c379a000000000000000000000000000000000000000000000000000000000815260040161198a906132a3565b60405180910390fd5b600260018190555060008060005b600860003373ffffffffffffffffffffffffffffffffffffffff1673ffffffffffffffffffffffffffffffffffffffff16815260200190815260200160002080549050811015611a965783600860003373ffffffffffffffffffffffffffffffffffffffff1673ffffffffffffffffffffffffffffffffffffffff1681526020019081526020016000208281548110611a63577f4e487b7100000000000000000000000000000000000000000000000000000000600052603260045260246000fd5b9060005260206000209060020201600001541415611a8357809250600191505b8080611a8e9061364f565b9150506119a1565b508015611ad8576040517f08c379a0000000000000000000000000000000000000000000000000000000008152600401611acf906132e3565b60405180910390fd5b611ae183611215565b841115611b23576040517f08c379a0000000000000000000000000000000000000000000000000000000008152600401611b1a90613283565b60405180910390fd5b60003390506000611b338661252e565b90508060036000828254611b4791906134e8565b9250508190555080600a60008781526020019081526020016000206000828254611b7191906134e8565b9250508190555085600960008781526020019081526020016000206000828254611b9b91906134e8565b925050819055508173ffffffffffffffffffffffffffffffffffffffff166108fc879081150290604051600060405180830381858888f19350505050158015611be8573d6000803e3d6000fd5b5050505050600180819055505050565b60008060005b600860003373ffffffffffffffffffffffffffffffffffffffff1673ffffffffffffffffffffffffffffffffffffffff16815260200190815260200160002080549050811015611cf35783600860003373ffffffffffffffffffffffffffffffffffffffff1673ffffffffffffffffffffffffffffffffffffffff1681526020019081526020016000208281548110611cc0577f4e487b7100000000000000000000000000000000000000000000000000000000600052603260045260246000fd5b9060005260206000209060020201600001541415611ce057809250600191505b8080611ceb9061364f565b915050611bfe565b508015611d35576040517f08c379a0000000000000000000000000000000000000000000000000000000008152600401611d2c906132e3565b60405180910390fd5b6000339050600560009054906101000a900473ffffffffffffffffffffffffffffffffffffffff1673ffffffffffffffffffffffffffffffffffffffff1663db006a75600a6000878152602001908152602001600020546040518263ffffffff1660e01b8152600401611da89190613325565b602060405180830381600087803b158015611dc257600080fd5b505af1158015611dd6573d6000803e3d6000fd5b505050506040513d601f19601f82011682018060405250810190611dfa9190612b8a565b506000611e0685611215565b90506000600a600087815260200190815260200160002081905550600060096000878152602001908152602001600020819055508173ffffffffffffffffffffffffffffffffffffffff166108fc829081150290604051600060405180830381858888f19350505050158015611e80573d6000803e3d6000fd5b505050505050565b600080611e9483611565565b9050670de0b6b3a76400008173ffffffffffffffffffffffffffffffffffffffff1663182df0f56040518163ffffffff1660e01b815260040160206040518083038186803b158015611ee557600080fd5b505afa158015611ef9573d6000803e3d6000fd5b505050506040513d601f19601f82011682018060405250810190611f1d9190612b8a565b600c60008781526020019081526020016000206000611f3b87611565565b73ffffffffffffffffffffffffffffffffffffffff1673ffffffffffffffffffffffffffffffffffffffff16815260200190815260200160002054611f80919061348e565b611f8a919061345d565b91505092915050565b611f9b61229d565b73ffffffffffffffffffffffffffffffffffffffff16611fb96113dc565b73ffffffffffffffffffffffffffffffffffffffff161461200f576040517f08c379a000000000000000000000000000000000000000000000000000000000815260040161200690613223565b60405180910390fd5b600073ffffffffffffffffffffffffffffffffffffffff168173ffffffffffffffffffffffffffffffffffffffff16141561207f576040517f08c379a000000000000000000000000000000000000000000000000000000000815260040161207690613203565b60405180910390fd5b612088816122a5565b50565b6000803383426040516020016120a393929190612fb1565b6040516020818303038152906040528051906020012060001c9050600754816120cc91906136c6565b915050919050565b60008082905060008173ffffffffffffffffffffffffffffffffffffffff166370a08231306040518263ffffffff1660e01b81526004016121159190612fea565b60206040518083038186803b15801561212d57600080fd5b505afa158015612141573d6000803e3d6000fd5b505050506040513d601f19601f820116820180604052508101906121659190612b8a565b90508173ffffffffffffffffffffffffffffffffffffffff1663852a12e3866040518263ffffffff1660e01b81526004016121a09190613325565b602060405180830381600087803b1580156121ba57600080fd5b505af11580156121ce573d6000803e3d6000fd5b505050506040513d601f19601f820116820180604052508101906121f29190612b8a565b5060008273ffffffffffffffffffffffffffffffffffffffff166370a08231306040518263ffffffff1660e01b815260040161222e9190612fea565b60206040518083038186803b15801561224657600080fd5b505afa15801561225a573d6000803e3d6000fd5b505050506040513d601f19601f8201168201806040525081019061227e9190612b8a565b90506000818361228e91906134e8565b90508094505050505092915050565b600033905090565b60008060009054906101000a900473ffffffffffffffffffffffffffffffffffffffff169050816000806101000a81548173ffffffffffffffffffffffffffffffffffffffff021916908373ffffffffffffffffffffffffffffffffffffffff1602179055508173ffffffffffffffffffffffffffffffffffffffff168173ffffffffffffffffffffffffffffffffffffffff167f8be0079c531659141344cd1fd0a4f28419497f9722a3daafe3b4186f6b6457e060405160405180910390a35050565b60008082905060008173ffffffffffffffffffffffffffffffffffffffff1663dd62ed3e33306040518363ffffffff1660e01b81526004016123ac92919061302e565b60206040518083038186803b1580156123c457600080fd5b505afa1580156123d8573d6000803e3d6000fd5b505050506040513d601f19601f820116820180604052508101906123fc9190612b8a565b90508173ffffffffffffffffffffffffffffffffffffffff166323b872dd3330846040518463ffffffff1660e01b815260040161243b93929190613057565b602060405180830381600087803b15801561245557600080fd5b505af1158015612469573d6000803e3d6000fd5b505050506040513d601f19601f8201168201806040525081019061248d91906129fb565b508173ffffffffffffffffffffffffffffffffffffffff1663095ea7b36124b386611565565b836040518363ffffffff1660e01b81526004016124d1929190613142565b602060405180830381600087803b1580156124eb57600080fd5b505af11580156124ff573d6000803e3d6000fd5b505050506040513d601f19601f8201168201806040525081019061252391906129fb565b508092505050919050565b600080600560009054906101000a900473ffffffffffffffffffffffffffffffffffffffff1673ffffffffffffffffffffffffffffffffffffffff166370a08231306040518263ffffffff1660e01b815260040161258c9190612fea565b60206040518083038186803b1580156125a457600080fd5b505afa1580156125b8573d6000803e3d6000fd5b505050506040513d601f19601f820116820180604052508101906125dc9190612b8a565b9050600560009054906101000a900473ffffffffffffffffffffffffffffffffffffffff1673ffffffffffffffffffffffffffffffffffffffff1663852a12e3846040518263ffffffff1660e01b81526004016126399190613325565b602060405180830381600087803b15801561265357600080fd5b505af1158015612667573d6000803e3d6000fd5b505050506040513d601f19601f8201168201806040525081019061268b9190612b8a565b506000600560009054906101000a900473ffffffffffffffffffffffffffffffffffffffff1673ffffffffffffffffffffffffffffffffffffffff166370a08231306040518263ffffffff1660e01b81526004016126e99190612fea565b60206040518083038186803b15801561270157600080fd5b505afa158015612715573d6000803e3d6000fd5b505050506040513d601f19601f820116820180604052508101906127399190612b8a565b90506000818361274991906134e8565b9050809350505050919050565b828054612762906135ec565b90600052602060002090601f01602090048101928261278457600085556127cb565b82601f1061279d57805160ff19168380011785556127cb565b828001600101855582156127cb579182015b828111156127ca5782518255916020019190600101906127af565b5b5090506127d891906127f6565b5090565b604051806040016040528060008152602001606081525090565b5b8082111561280f5760008160009055506001016127f7565b5090565b600061282661282184613365565b613340565b90508281526020810184848401111561283e57600080fd5b6128498482856135aa565b509392505050565b600081359050612860816139b1565b92915050565b600081519050612875816139c8565b92915050565b600082601f83011261288c57600080fd5b813561289c848260208601612813565b91505092915050565b6000813590506128b4816139df565b92915050565b6000815190506128c9816139df565b92915050565b6000813590506128de816139f6565b92915050565b6000602082840312156128f657600080fd5b600061290484828501612851565b91505092915050565b6000806040838503121561292057600080fd5b600061292e85828601612851565b925050602061293f858286016128a5565b9150509250929050565b60008060006060848603121561295e57600080fd5b600061296c86828701612851565b935050602061297d868287016128a5565b925050604061298e868287016128a5565b9150509250925092565b600080600080608085870312156129ae57600080fd5b60006129bc87828801612851565b94505060206129cd878288016128a5565b93505060406129de878288016128a5565b92505060606129ef87828801612851565b91505092959194509250565b600060208284031215612a0d57600080fd5b6000612a1b84828501612866565b91505092915050565b60008060408385031215612a3757600080fd5b600083013567ffffffffffffffff811115612a5157600080fd5b612a5d8582860161287b565b925050602083013567ffffffffffffffff811115612a7a57600080fd5b612a868582860161287b565b9150509250929050565b60008060008060008060c08789031215612aa957600080fd5b600087013567ffffffffffffffff811115612ac357600080fd5b612acf89828a0161287b565b9650506020612ae089828a016128cf565b955050604087013567ffffffffffffffff811115612afd57600080fd5b612b0989828a0161287b565b945050606087013567ffffffffffffffff811115612b2657600080fd5b612b3289828a0161287b565b9350506080612b4389828a01612851565b92505060a0612b5489828a01612851565b9150509295509295509295565b600060208284031215612b7357600080fd5b6000612b81848285016128a5565b91505092915050565b600060208284031215612b9c57600080fd5b6000612baa848285016128ba565b91505092915050565b60008060408385031215612bc657600080fd5b6000612bd4858286016128a5565b9250506020612be585828601612851565b9150509250929050565b60008060408385031215612c0257600080fd5b6000612c10858286016128a5565b9250506020612c21858286016128a5565b9150509250929050565b600080600060608486031215612c4057600080fd5b6000612c4e868287016128a5565b9350506020612c5f868287016128a5565b9250506040612c7086828701612851565b9150509250925092565b6000612c868383612ef3565b905092915050565b612c9781613574565b82525050565b612ca68161351c565b82525050565b612cbd612cb88261351c565b613698565b82525050565b6000612cce826133a6565b612cd881856133c9565b935083602082028501612cea85613396565b8060005b85811015612d265784840389528151612d078582612c7a565b9450612d12836133bc565b925060208a01995050600181019050612cee565b50829750879550505050505092915050565b6000612d43826133b1565b612d4d81856133da565b9350612d5d8185602086016135b9565b612d66816137b3565b840191505092915050565b6000612d7c826133b1565b612d8681856133eb565b9350612d968185602086016135b9565b612d9f816137b3565b840191505092915050565b6000612db5826133b1565b612dbf81856133fc565b9350612dcf8185602086016135b9565b80840191505092915050565b6000612de86026836133eb565b9150612df3826137d1565b604082019050919050565b6000612e0b6020836133eb565b9150612e1682613820565b602082019050919050565b6000612e2e6031836133eb565b9150612e3982613849565b604082019050919050565b6000612e516022836133eb565b9150612e5c82613898565b604082019050919050565b6000612e74602f836133eb565b9150612e7f826138e7565b604082019050919050565b6000612e97601f836133eb565b9150612ea282613936565b602082019050919050565b6000612eba6014836133eb565b9150612ec58261395f565b602082019050919050565b6000612edd6012836133eb565b9150612ee882613988565b602082019050919050565b6000604083016000830151612f0b6000860182612f6d565b5060208301518482036020860152612f238282612d38565b9150508091505092915050565b6000604083016000830151612f486000860182612f6d565b5060208301518482036020860152612f608282612d38565b9150508091505092915050565b612f768161355a565b82525050565b612f858161355a565b82525050565b612f9c612f978261355a565b6136bc565b82525050565b612fab81613564565b82525050565b6000612fbd8286612cac565b601482019150612fcd8285612daa565b9150612fd98284612f8b565b602082019150819050949350505050565b6000602082019050612fff6000830184612c9d565b92915050565b600060408201905061301a6000830185612c8e565b6130276020830184612f7c565b9392505050565b60006040820190506130436000830185612c9d565b6130506020830184612c9d565b9392505050565b600060608201905061306c6000830186612c9d565b6130796020830185612c9d565b6130866040830184612f7c565b949350505050565b600060c0820190506130a36000830189612c9d565b6130b06020830188612c9d565b6130bd6040830187612f7c565b6130ca6060830186612c9d565b6130d76080830185612f7c565b6130e460a0830184612f7c565b979650505050505050565b600060a0820190506131046000830188612c9d565b6131116020830187612c9d565b61311e6040830186612f7c565b61312b6060830185612f7c565b6131386080830184612f7c565b9695505050505050565b60006040820190506131576000830185612c9d565b6131646020830184612f7c565b9392505050565b600060208201905081810360008301526131858184612cc3565b905092915050565b600060c08201905081810360008301526131a78189612d71565b90506131b66020830188612fa2565b81810360408301526131c88187612d71565b905081810360608301526131dc8186612d71565b90506131eb6080830185612c9d565b6131f860a0830184612c9d565b979650505050505050565b6000602082019050818103600083015261321c81612ddb565b9050919050565b6000602082019050818103600083015261323c81612dfe565b9050919050565b6000602082019050818103600083015261325c81612e21565b9050919050565b6000602082019050818103600083015261327c81612e44565b9050919050565b6000602082019050818103600083015261329c81612e67565b9050919050565b600060208201905081810360008301526132bc81612e8a565b9050919050565b600060208201905081810360008301526132dc81612ead565b9050919050565b600060208201905081810360008301526132fc81612ed0565b9050919050565b6000602082019050818103600083015261331d8184612f30565b905092915050565b600060208201905061333a6000830184612f7c565b92915050565b600061334a61335b565b9050613356828261361e565b919050565b6000604051905090565b600067ffffffffffffffff8211156133805761337f613784565b5b613389826137b3565b9050602081019050919050565b6000819050602082019050919050565b600081519050919050565b600081519050919050565b6000602082019050919050565b600082825260208201905092915050565b600082825260208201905092915050565b600082825260208201905092915050565b600081905092915050565b60006134128261355a565b915061341d8361355a565b9250827fffffffffffffffffffffffffffffffffffffffffffffffffffffffffffffffff03821115613452576134516136f7565b5b828201905092915050565b60006134688261355a565b91506134738361355a565b92508261348357613482613726565b5b828204905092915050565b60006134998261355a565b91506134a48361355a565b9250817fffffffffffffffffffffffffffffffffffffffffffffffffffffffffffffffff04831182151516156134dd576134dc6136f7565b5b828202905092915050565b60006134f38261355a565b91506134fe8361355a565b925082821015613511576135106136f7565b5b828203905092915050565b60006135278261353a565b9050919050565b60008115159050919050565b600073ffffffffffffffffffffffffffffffffffffffff82169050919050565b6000819050919050565b600063ffffffff82169050919050565b600061357f82613586565b9050919050565b600061359182613598565b9050919050565b60006135a38261353a565b9050919050565b82818337600083830152505050565b60005b838110156135d75780820151818401526020810190506135bc565b838111156135e6576000848401525b50505050565b6000600282049050600182168061360457607f821691505b6020821081141561361857613617613755565b5b50919050565b613627826137b3565b810181811067ffffffffffffffff8211171561364657613645613784565b5b80604052505050565b600061365a8261355a565b91507fffffffffffffffffffffffffffffffffffffffffffffffffffffffffffffffff82141561368d5761368c6136f7565b5b600182019050919050565b60006136a3826136aa565b9050919050565b60006136b5826137c4565b9050919050565b6000819050919050565b60006136d18261355a565b91506136dc8361355a565b9250826136ec576136eb613726565b5b828206905092915050565b7f4e487b7100000000000000000000000000000000000000000000000000000000600052601160045260246000fd5b7f4e487b7100000000000000000000000000000000000000000000000000000000600052601260045260246000fd5b7f4e487b7100000000000000000000000000000000000000000000000000000000600052602260045260246000fd5b7f4e487b7100000000000000000000000000000000000000000000000000000000600052604160045260246000fd5b6000601f19601f8301169050919050565b60008160601b9050919050565b7f4f776e61626c653a206e6577206f776e657220697320746865207a65726f206160008201527f6464726573730000000000000000000000000000000000000000000000000000602082015250565b7f4f776e61626c653a2063616c6c6572206973206e6f7420746865206f776e6572600082015250565b7f596f75722062616c616e636520697320736d616c6c6572207468616e2074686560008201527f2072657175657374656420616d6f756e74000000000000000000000000000000602082015250565b7f4d696e696d756d206465706f73697420616d6f756e7420697320302e3031204560008201527f7468000000000000000000000000000000000000000000000000000000000000602082015250565b7f596f75722062616c616e6365206973206c6f776572207468616e20746865207260008201527f657175657374656420616d6f756e740000000000000000000000000000000000602082015250565b7f5265656e7472616e637947756172643a207265656e7472616e742063616c6c00600082015250565b7f416d6f756e742073656e74206973206c6573732e000000000000000000000000600082015250565b7f4163636f756e74206e6f7420666f756e642e0000000000000000000000000000600082015250565b6139ba8161351c565b81146139c557600080fd5b50565b6139d18161352e565b81146139dc57600080fd5b50565b6139e88161355a565b81146139f357600080fd5b50565b6139ff81613564565b8114613a0a57600080fd5b5056fea2646970667358221220c55b689b5bf58dc15abc06af326552033682881baf088b23445a1ce39568470c64736f6c63430008040033",
  "linkReferences": {},
  "deployedLinkReferences": {}
}